:020000040800F2
:10000000A8080020CD0100088D1D0008691A00080D
:10001000111D0008D30200080123000800000000A1
:10002000000000000000000000000000951D000816
:10003000D502000800000000931D0008971D00086D
:10004000E7010008E7010008E7010008E7010008F0
:10005000E7010008E7010008E7010008D7020008EF
:10006000E7010008E7010008E7010008E7010008D0
:10007000E7010008E7010008E7010008E7010008C0
:10008000E7010008E7010008E7010008E7010008B0
:10009000E7010008E7010008E7010008DD020008A9
:1000A000E7010008FD1D0008E7010008E70100085E
:1000B000E7010008E7010008091E0008E701000841
:1000C000E7010008E7010008E7010008E701000870
:1000D000E7010008F5220008E7010008E701000831
:1000E000E7010008E7010008E7010008E701000850
:1000F000E7010008E7010008E7010008E701000840
:10010000E7010008E7010008E7010008E70100082F
:10011000E7010008E7010008E7010008E70100081F
:10012000E7010008E7010008E7010008E70100080F
:1001300000F002F800F03AF80AA090E8000C8244BF
:100140008344AAF10107DA4501D100F02FF8AFF29C
:10015000090EBAE80F0013F0010F18BFFB1A43F0A5
:1001600001031847D0350000F0350000103A24BFD5
:1001700078C878C1FAD8520724BF30C830C144BF0C
:1001800004680C607047000000230024002500264E
:10019000103A28BF78C1FBD8520728BF30C148BFEA
:1001A0000B6070471FB51FBD10B510BD00F05CF8A7
:1001B0001146FFF7F7FF02F0C3F800F07AF803B436
:1001C000FFF7F2FF03BC00F07DF80000094880470C
:1001D00009480047FEE7FEE7FEE7FEE7FEE7FEE729
:1001E000FEE7FEE7FEE7FEE704480549054A064B41
:1001F00070470000FB1D000831010008A802002024
:10020000A8080020A8040020A80400204FF0000245
:1002100000B5134694469646203922BFA0E80C50FC
:10022000A0E80C50B1F12001BFF4F7AF090728BFD7
:10023000A0E80C5048BF0CC05DF804EB890028BF53
:1002400040F8042B08BF704748BF20F8022B11F07C
:10025000804F18BF00F8012B7047704770477047F8
:1002600000487047480200207546FFF7F9FFAE4688
:1002700005006946534620F00700854618B020B5B2
:10028000FFF7B2FFBDE820404FF000064FF0000737
:100290004FF000084FF0000B21F00701AC46ACE82E
:1002A000C009ACE8C009ACE8C009ACE8C0098D469B
:1002B000704710B50446AFF300802046BDE81040FB
:1002C000FFF77DBF01491820ABBEFEE72600020004
:1002D0007047FEE77047022000F0F4B8802000F07D
:1002E000F1B810B590F821100022022905D00421A0
:1002F000816380F82020012010BD01680B6823F085
:100300000E030B6001680B6823F001030B6090F88B
:100310004030C46B012101FA03F3636080F82110BF
:1003200080F82020104610BD2DE9F05F90F82110D4
:100330000024022903D004218163012485E001689F
:100340000A6822F00E020A6001680A6822F00102BF
:100350000A603F4E3E4FB215DFF8F4C0DFF8F09070
:10036000DFF8ECA0DFF8E8B0DFF8E4E00168783F00
:1003700013011502ACF1640CA9F15009AAF13C0A71
:10038000ABF1280BAEF1140E4FF48018B14227D90F
:10039000B9420ED0614512D049451DD0514518D003
:1003A000594518D0714501D1424615E0294EB14258
:1003B00001D1012210E0274E1436B14201D11022A2
:1003C0000AE0244E2836B14206D0224A3C329142FD
:1003D00001D11A4600E02A461E49091F0A602BE097
:1003E000B94213D0614517D0494522D051451DD09F
:1003F00059451DD0714501D142461AE0B14202D1A2
:100400004FF0807215E0134EB14201D1012210E08D
:10041000104E1436B14201D110220AE00D4E28369A
:10042000B14206D00B4A3C32914201D11A4600E05B
:100430002A46074980394A60012180F821100021AD
:1004400080F82010416B01B188472046BDE8F09F3D
:1004500080000240080402402DE9F0410026164CBD
:1004600001254FF07E5780280ED002280AD10121A5
:10047000124800F02FF93946C0B1A06902F044FEDD
:10048000A061E570BDE8F08140210D4800F022F93F
:10049000394628B1606902F037FE6061A570F1E766
:1004A000606A02F031FE6062A670EBE7A06A02F0BB
:1004B0002BFEA062E670E5E700000020000C014082
:1004C00000100140044910B50A68024202D00860D9
:1004D000FFF7C2FF10BD0000140401402DE9F84FE2
:1004E000DFF8C891002409F1040A0AF1040B23463D
:1004F0000F270BF1040ED1E00125A54006EA050205
:10050000AA4276D1DFF8A8C14E68A6EB0C08664572
:100510002BD00DDC032E34D005DC36B3012E19D0E0
:10052000022E2FD11BE0112E16D0122E2AD119E047
:10053000B8F5881F19D006DCB8F5803F15D0B8F59E
:10054000801F1FD111E0B8F5001F0ED0B8F5041FB1
:1005500018D10AE0CB6815E0CB681B1D12E0CB6810
:1005600008330FE0CB680C330CE08B682BB1012B08
:100570004FF0080303D0456104E0042302E0056165
:1005800000E00023FF2A01D8064601E000F104063E
:100590004FEA840501D9A5F12005D6F8008007FAB5
:1005A00005FC28EA0C0803FA05F548EA0508C6F830
:1005B00000804D68ED0070D53E4DAE6946F00106F5
:1005C000AE61AD6924F0030605F0010500953A4DD2
:1005D00006EB050CDCF80850A607360F07FA06F8FC
:1005E00025EA0805DFF8D480404503D14FF0000824
:1005F00025E052E0DFF8C880404502D14FF0010805
:100600001DE0DFF8C080404502D14FF0020816E03F
:10061000DFF8B480404502D14FF003080FE0DFF867
:10062000AC80404502D14FF0040808E0DFF8A0801C
:10063000404502D14FF0050801E04FF0060808FAE6
:1006400006F848EA0508CCF808804D68D9F800603B
:10065000ED034D4601D5164300E096432E604D68EC
:10066000DAF80060AD03554601D5164300E0964325
:100670002E604D68DBF80060ED025D4601D5164343
:1006800000E096432E604D68DEF80060AD027546CE
:1006900001D5164300E096432E60641C0A68164696
:1006A000E2407FF429AFBDE8F88F0000000401406C
:1006B000000011100010024000000140000801403D
:1006C000000C0140001001400014014000180140DE
:1006D000001C01408068084000D0012070470AB12A
:1006E000016170470904FBE701488068704700001A
:1006F0004000002070B5040025D094F83D0000258E
:1007000020B984F83C50204600F0B8F8242084F842
:100710003D002068016821F0010101602068016846
:1007200041F4004101602068016821F4004101604A
:1007300000F00AFA4D4A6168914201D84C4900E044
:100740004C49884201D2012070BD4B492368B0FB5F
:10075000F1F15E6826F03F060E435E6063689342E7
:1007600006D94FF4967359434FF47A73B1FBF3F102
:100770002368491C1E6A26F03F06314319626168EE
:10078000914210D84900401EB0FBF1F2521CC2F356
:100790000B02042A01D2042022E0B0FBF1F0401C3D
:1007A000C0F30B001CE0A268F2B301EBC10303EB42
:1007B0000116431EB3FBF6F35B1C43F480431B0599
:1007C00049D092B301EBC10202EB0111401EB0FB14
:1007D000F1F0401CC0F30B0040F4804040F40040B6
:1007E0002168CA694CF6FF739A431043C861D4E983
:1007F000071001432068026822F0C0021143016023
:10080000D4E9030101432068826848F2FF339A4328
:1008100011438160D4E9050108432168CA6822F0C8
:10082000FF021043C86001E00EE016E02068016896
:1008300041F0010101602564202084F83D0025631A
:1008400084F83E50002070BD01EB4106431EB3FB0F
:10085000F6F35B1CB3E70120C2E701EB4101401E48
:10086000B0FBF1F0401CC0F30B00B7E7A08601001D
:1008700080841E0000093D0040420F0010B586B084
:100880000021009101910291039100681049884272
:100890001BD1104CA06940F00800A061A069694616
:1008A00000F0080004904FF4406000901220019086
:1008B000032003900848FFF711FEE06940F4800030
:1008C000E061E06900F48000049006B010BD000013
:1008D0000058004000100240000C014002488168AE
:1008E000027811448160704740000020074810B52D
:1008F000016841F010010160032000F075F80F203D
:1009000000F006F800F024F8002010BD002002409E
:1009100070B50D4D04464FF47A712878B1FBF0F0B4
:100920000A490968B1FBF0F000F004FB48B9102C4B
:1009300007D200222146501E00F036F800206C60DD
:1009400070BD012070BD0000400000204C00002060
:100950000C4808B5816941F001018161816901F0AC
:1009600001010091C16941F08051C161C06900F08D
:10097000805000900448416821F0E06141F000712E
:10098000416008BD0010024000000140002809DB62
:1009900000F01F02012191404009800000F1E02099
:1009A000C0F8001170470000F0B40E4B1B680C46F5
:1009B000C3F30223C3F10705042D00D90425191D33
:1009C000072901D2002300E0DB1E012606FA05F10B
:1009D000491E214099409E40761E16403143F0BC8E
:1009E00001F08FBC0CED00E0064900F0070208683A
:1009F0004FF6FF03184040EA0220034A1043086004
:100A0000704700000CED00E00000FA0570470000A0
:100A10002DE9F0470F46050061D0434E306800F0E5
:100A20000700B84209D2306820F007003843306030
:100A3000306800F00700B84251D128683B4C81076C
:100A400012D5400703D5606840F4E0606060287804
:100A5000000703D5606840F4605060606068A96872
:100A600020F0F000084360602878C00728D068684C
:100A7000012810D02168022810D0890700292EDA19
:100A8000616821F0030101436160FFF72DFE80469C
:100A900041F288390DE021688903EFE78901EDE72C
:100AA000FFF722FEA0EB0801494502D90320BDE86B
:100AB000F0876068696800F00C00B0EB810FEFD13F
:100AC000306800F00700B8420BD9306820F007000A
:100AD00038433060306800F00700B84201D0012090
:100AE000E5E72878400705D56068E96820F4E0600C
:100AF000084360602878000706D56068296920F4FB
:100B0000605040EAC100606000F03EF86168084A49
:100B1000C1F30311515CC8400649086006480068EB
:100B2000FFF7F6FE0020C2E700200240001002405E
:100B30001A3700084C000020440000200149012021
:100B4000C86470470000424204480549006849688B
:100B5000044AC1F30221515CC84070474C00002098
:100B6000001002402A370008044805490068496817
:100B7000044AC1F3C221515CC84070474C000020B8
:100B8000001002402A37000813A185B00FC98DE874
:100B90000F0015A0154A00680490516801F00C0080
:100BA000042804D0082804D0114805B07047114823
:100BB000FBE7C1F38343C9031DF8030009D551685E
:100BC00004AAC1F34041515C0A4A5043B0FBF1F022
:100BD000EBE709494843E8E702030405060708096B
:100BE0000A0B0C0D0E0F1010010200000010024045
:100BF00000127A000024F40000093D0010B5044CF6
:100C0000A068000603D5FFF701FF8020A07210BD89
:100C1000001002402DE9F84F040070D02078C04D3C
:100C2000C00749D06868C0F38100012807D0686810
:100C3000C0F38100022809D16868C00306D528687E
:100C4000800339D560680028E7D035E06068B0F5EA
:100C5000803F0BD010B1B0F5A02F11D0286820F440
:100C600080302860286820F4802002E0286840F462
:100C700080302860606890B1FFF736FD06460AE0D4
:100C8000286840F480202860F0E700BFFFF72CFDC3
:100C9000801B642873D828688003F7D50CE0FFF721
:100CA00023FD064605E000BFFFF71EFD801B6428FC
:100CB000F0D828688003F7D420789A4E80074FF048
:100CC00001094FF0000839D5686810F00C0F07D003
:100CD0006868C0F38100022809D16868C00306D49F
:100CE0002868800714D52069012808D110E0206900
:100CF000B0B1C6F80090FFF7F7FC074605E00AE13F
:100D0000FFF7F2FCC01B0228C4D828688007F7D57B
:100D10002868616920F0F80040EAC10028600DE011
:100D2000C6F80080FFF7E0FC074604E0FFF7DCFCB4
:100D3000C01B022823D828688007F7D42078000732
:100D40002CD57948A169D9B1C0F80090FFF7CCFC47
:100D5000074604E0FFF7C8FCC01B02280FD8686AEA
:100D60008007F7D571484FF4FA510068B0FBF1F0F5
:100D7000009000BF0098411E0091FAD20EE080E082
:100D8000C0F80080FFF7B0FC074604E0FFF7ACFCBA
:100D9000C01B022875D8686A8007F7D420784007FE
:100DA00060D5E8690027C00008D4E86940F08050A9
:100DB000E861E869012700F0805000905C48016814
:100DC000C90513D40168834641F480710160FFF7BF
:100DD0008BFC824606E000BFFFF786FCA0EB0A0012
:100DE00064284ED8DBF80000C005F5D5E06801287E
:100DF0000AD008B1052813D0286A20F00100286223
:100E0000286A20F0040002E0286A40F0010028620D
:100E1000E06841F2883B98B1FFF766FC82460BE040
:100E2000286A40F004002862EEE700BFFFF75CFC90
:100E3000A0EB0A0159455AD8286A8007F6D50CE07C
:100E4000FFF752FC824605E0FFF74EFCA0EB0A01DB
:100E500059454CD8286A8007F6D41FB1E86920F0BC
:100E60008050E861E06988B36968C1F381010229B3
:100E700044D00228C6F8608004D0FFF735FC044651
:100E800038E034E0FFF730FC074604E0FFF72CFCC5
:100E9000C01B02282BD828688001F7D4206AB0F53F
:100EA000803F05D16868A16820F40030084368607D
:100EB000D4E908010843696821F4741108436860A3
:100EC000C6F86090FFF710FC044606E025E000BF7E
:100ED000FFF70AFC001B022809D828688001F7D513
:100EE0001BE000BFFFF700FC001B022802D9032013
:100EF000BDE8F88F28688001F4D40EE00128F7D00F
:100F00006868226A00F48031914204D1616A00F479
:100F10007010884201D00120EAE70020E8E70000D5
:100F20000010024000004242800442424C00002077
:100F30000070004010B5401EB0F1807F01D3012049
:100F400010BD4FF0E02460610F21601701F0D9F966
:100F50000020A06107202061002010BD704770476D
:100F600070B590F83C20012A2CD0012480F83C4038
:100F7000022280F83D2003685A689D6822F07006BE
:100F80000A6832435A60104B02689A420ED00F4BE7
:100F90009A420BD0B2F1804F08D00D4B9A4205D047
:100FA0000C4B9A4202D00C4B9A4204D1496825F06E
:100FB00080031943916080F83D40002180F83C1087
:100FC000084670BD022070BD002C01400034014075
:100FD0000004004000080040000C004010B5040070
:100FE00003D094F83D0010B107E0012010BD0020AF
:100FF00084F83C00204600F01FF8022084F83D00F1
:10100000211D206800F006FF012084F8460084F8C6
:101010003E0084F83F0084F8400084F8410084F8E2
:10102000420084F8430084F8440084F8450084F8C2
:101030003D00002010BD000008B5154A01681548A4
:1010400091420ED1816941F4006181618069002281
:1010500000F40060009011461920FFF7A5FC19204C
:1010600010E00D4A914211D1C16941F00401C16102
:10107000C069002200F00400009001211E20FFF74B
:1010800093FC1E20BDE80840FFF780BC08BD0000AF
:10109000002C0140001002400008004090F83D1074
:1010A000012901D001207047022180F83D1001681C
:1010B000CA6842F00102CA6000680E4988420ED038
:1010C0000D4988420BD0B0F1804F08D00B498842BF
:1010D00005D00B49884202D00A49884204D1816870
:1010E00001F00701062903D0016841F00101016008
:1010F00000207047002C01400034014000040040F3
:1011000000080040000C004070B5044690F83C0018
:10111000012817D0012584F83C50022084F83D00B6
:101120002068826822F0770222F47F428260086899
:10113000502830D00DDC20284DD005DC98B3102885
:101140003BD148E0022070BD302844D0402834D143
:1011500039E0602828D0702806D0B0F5805F2CD008
:10116000B0F5005F29D10AE0CB68D1E90121206800
:1011700000F0A3FE2068816841F0770109E0CB68A8
:10118000D1E90121206800F098FE2068816841F4CF
:101190008041816011E0CA684968206800F062FF00
:1011A0005021206807E016E0CA684968206800F00E
:1011B0006AFF6021206800F08AFE84F83D5000201C
:1011C00084F83C0070BDCA684968206800F04AFF96
:1011D00040212068EFE7226801461046EBE77047A0
:1011E00070B50446006801694FF00005C9438907DE
:1011F00015D4C168C943890711D4E91E01610120D2
:101200002077206880698007204602D0FFF7E7FF3B
:1012100004E000F0D5F8204600F078F92577206842
:101220000169C943490717D4C168C943490713D4A1
:101230006FF004010161022020772068806910F4BA
:10124000407F204602D0FFF7CAFF04E000F0B8F864
:10125000204600F05BF9257720680169C94309073A
:1012600016D4C168C943090712D46FF0080101619F
:10127000042020772068C0698007204602D0FFF74D
:10128000AEFF04E000F09CF8204600F03FF925771F
:1012900020680169C943C90617D4C168C943C90692
:1012A00013D46FF010010161082020772068C06915
:1012B00010F4407F204602D0FFF791FF04E000F0D9
:1012C0007FF8204600F022F9257720680169C9439C
:1012D000C90708D1C168C943C90704D1891E016182
:1012E000204600F06FF920680169C943090609D456
:1012F000C168C943090605D46FF080010161204629
:10130000FFF72CFE20680169C943490609D4C1686A
:10131000C943490605D46FF040010161204600F041
:101320005DF920680169C94389060BD4C168C943C6
:10133000890607D46FF0200101612046BDE87040A6
:10134000FFF70DBE70BD000000B585B00021009113
:10135000019102910391154B0268154802219A42AE
:101360000FD1826942F0080282618069039100F026
:10137000080004904FF44070CDE9000169460D4823
:1013800010E00D4B9A420FD1826942F00402826153
:101390008069039100F0040004900E20CDE9000163
:1013A00069460648FFF79AF805B000BD00080040FE
:1013B00000100240000C0140000C004000080140F9
:1013C000704770B5044690F83C000D4601280AD0DD
:1013D000012084F83C0042B1042A18D0082A2AD0FF
:1013E0000C2A4DD139E0022070BD206800F078FD54
:1013F0002068816941F0080181612068816921F0DC
:1014000004018161206881692A69114311E0206823
:1014100000F096FD2068816941F4006181612068D7
:10142000816921F480618161206881692A6941EACA
:101430000221816124E0206800F0B8FD2068C169C4
:1014400041F00801C1612068C16921F00401C16156
:101450002068C1692A69114311E0206800F0DAFDB3
:101460002068C16941F40061C1612068C16921F44B
:101470008061C1612068C1692A6941EA0221C161B4
:10148000002084F83C0070BD10B5040003D094F82F
:101490003D0010B107E0012010BD002084F83C00A1
:1014A000204600F01FF8022084F83D00211D20682E
:1014B00000F0B0FC012084F8460084F83E0084F877
:1014C0003F0084F8400084F8410084F8420084F82A
:1014D000430084F8440084F8450084F83D0000206F
:1014E00010BD000008B500680649884208D10648CA
:1014F000C16941F00801C161C06900F008000090B5
:1015000008BD0000000C00400010024070470000C1
:1015100010B50446022249B104290ED0082913D07F
:1015200094F84100012816D0012010BD94F83E0027
:101530000128F9D184F83E200FE094F83F000128FB
:10154000F2D184F83F2008E094F840000128EBD164
:1015500084F8402001E084F841200122206800F056
:101560009FFC13492068134A884201D0904203D15E
:10157000436C43F400434364206888420DD090429A
:101580000BD0B0F1804F08D00B49884205D00B49F1
:10159000884202D00A49884204D1816801F00701DB
:1015A000062903D0016841F001010160002010BD4F
:1015B000002C0140003401400004004000080040BD
:1015C000000C004000680349884202D10249012012
:1015D00008707047002C01400000002070477047E1
:1015E00070470000F8B5026804461068D168536976
:1015F00010F00F0F4FF0000553D003F0010601F477
:10160000907737435FD0C20705D0CA0503D5226C57
:1016100042F001022264420705D5DA0703D0226CAA
:1016200042F002022264820705D5DA0703D0226C59
:1016300042F004022264020707D501F0200232437F
:1016400003D0226C42F008022264226C002A34D0BB
:10165000800604D5880602D5204600F046FD2068A5
:101660004069216CC0F38010090700D430B32046D4
:1016700000F023FD2068416949061BD5416921F02E
:1016800040014161A06BA8B158494163A06BFEF7CE
:101690004BFE002811D0A06B416B01B0BDE8F040BB
:1016A000084783060FD58B060DD52046BDE8F840C8
:1016B00000F01BBD2046FFF793FFF8BD2046FFF763
:1016C0008FFF2564F8BD266B2023012E52D1C6065C
:1016D00050D5CE064ED5106850680090506940062F
:1016E0002AD5A16B086840680004000CEAD0A68DDA
:1016F0008642E7D9E0858869202818D0D06820F490
:101700008070D0602068416921F00101416120684A
:10171000416921F04001416184F83E302563206831
:10172000C16821F01001C160A06BFEF7DAFDA08D49
:10173000E18D401A81B219E0A08DE18D401A81B28D
:10174000E08D0028BED00029BCD0D06820F4907075
:10175000D0602068426922F00102426184F83E3084
:1017600025632068C26822F01002C2602046FFF79D
:1017700036FFF8BD05062BD50D0629D594F83D009A
:101780002128F6D1A068B0F5805F01D12069B0B101
:10179000206A411C2162216800784860E08C401E6C
:1017A0000004000CE084E4D12068C16821F08001CD
:1017B000C1602068C16841F04001C160F8BD206A85
:1017C0000088C0F308005060206A801C2062E5E7B2
:1017D0004006F3D54806F1D5D168204621F04001F6
:1017E000D16084F83D3000F03EF9F8BDAB20000830
:1017F00070B5040004D094F83D00002510B106E057
:10180000012070BD84F83C50204600F023F82420CD
:1018100084F83D002068C16821F40051C160204671
:1018200000F0BEFC2068016921F49041016120684C
:10183000416921F02A0141612068C16841F40051E9
:10184000C1602564202084F83D0084F83E0000201B
:1018500070BD0000F0B585B000240094019402949E
:10186000039440493E4F06680D15022203233E486B
:10187000BE421DD1CE6946F40026CE61CE6906F483
:10188000002604968E6946F010068E61896901F083
:101890001001CDE90331CDE9005269460546FEF756
:1018A0001DFEF814CDE9000469462846029427E09D
:1018B0002E4FBE4228D1CD6945F48015CD61CD694A
:1018C00005F4801504958D6945F010058D618D69CD
:1018D00005F0100504958D6945F020058D61896935
:1018E000039301F020010491B114CDE9001269467F
:1018F000FEF7F4FD0420CDE9000469461C4802947B
:10190000FEF7ECFD05B0F0BD1A488642FAD18869B1
:1019100040F480408861886900F4804004908869C0
:1019200040F0040088618869694600F00400049072
:101930007015CDE90002104E03933046FEF7CEFD40
:10194000CDE90054694630460294FEF7C7FD0022F7
:1019500011462520FFF728F82520FFF717F8D1E7D3
:10196000004C0040001002400010014000500040B8
:1019700000140140003801400008014090F83E305A
:10198000202B0ED159B152B190F83C30012B08D028
:10199000012380F83C300023036300F05DBC01208C
:1019A00070470220704700000149012048707047CD
:1019B000000000202DE9F843044690F83D001F4642
:1019C00016460D4620284CD1C5B1BEB194F83C0056
:1019D000012846D0012084F83C004FF00008C4F8EC
:1019E0004080212084F83D00FEF77EFEA6848146DB
:1019F000E684A068B0F5805F03D004E00120BDE874
:101A0000F883206928B12E465FF0000584F83C80F9
:101A10000EE00026FAE78021204600F038FCA0B94D
:101A2000AEB116F8010B21684860E08C401EE084DE
:101A3000E08C4B464FF0000200970028EBD14FF0AE
:101A40004001204600F023FC30B10320D7E735F8F1
:101A5000020BC0F30800E6E7202084F83D000020D8
:101A6000CDE70220CBE77047FEE700002DE9F04309
:101A700085B000243A48009401940294039481694B
:101A800041F020018161816901F0200104918169A7
:101A900041F004018161816901F0040104918169CF
:101AA00041F008018161816901F0080104918169B7
:101AB00041F0100181618069DFF8A89000F010000A
:101AC0000490002243F2F0014846FEF708FE01268A
:101AD000CDE90064694648460294FEF7FFFC022502
:101AE000214F6946CDE9005748460295FEF7F6FCBE
:101AF0004FF44050CDE90006CDE9026569464846FD
:101B0000FEF7ECFC4020CDE90004DFF86080694678
:101B100040460294FEF7E2FC8020CDE900076946CA
:101B200002954046FEF7DAFCF020CDE90006694652
:101B30004846CDE90245FEF7D1FC002211460720B8
:101B4000FEF732FF0720FEF721FF00221146172083
:101B5000FEF72AFF1720FEF719FF05B0BDE8F08356
:101B600000100240000C0140000011100010014064
:101B700010B586B000241748009401940294039491
:101B8000049413490594016045F6BF51C0E901145E
:101B90003B21C0E9031444618461FFF71FFA08B1D7
:101BA00072B6FEE74FF48050009069460948FFF78F
:101BB000ABFA08B172B6FEE7049404A9054805948F
:101BC000FFF7CEF9002801D072B6FEE706B010BDCF
:101BD000002C0140A400002010B58EB00024079412
:101BE000089409940A940B941C2168460C94FEF7FF
:101BF0000DFB2248204901603121C0E9011440F267
:101C0000E731C0E903148461FFF7E8F908B172B65F
:101C1000FEE74FF48050079007A91848FFF774FAC1
:101C200008B172B6FEE71548FFF72EFC08B172B690
:101C3000FEE70B940BA911480C94FFF791F908B13A
:101C400072B6FEE76020CDE90004029408226946DE
:101C50000A480494FFF7B5FB08B172B6FEE70C2200
:101C600069460648FFF7ADFB08B172B6FEE70348C8
:101C7000FFF76AFB0EB010BD00080040EC0000202A
:101C800010B58AB0002407941C2168460894FEF71A
:101C9000BDFA1E481C49C0E900144FF6FF71C0E9A7
:101CA000024104618461FFF7EFFB08B172B6FEE701
:101CB000079407A915480894FFF752F908B172B6BE
:101CC000FEE76020CDE900040294042269460F4833
:101CD0000494FFF776FB08B172B6FEE70822694666
:101CE0000A48FFF76EFB08B172B6FEE70C226946A0
:101CF0000648FFF766FB08B172B6FEE70348FFF738
:101D000023FB0AB010BD0000000C0040340100208D
:101D1000FEE7000070B50C4D0C4E040006D4002206
:101D200010212846FEF7DBFC012206E04442012296
:101D300010212846FEF7D3FC002220212846FEF77A
:101D4000CEFC3068046470BD000C0140EC00002043
:101D500070B50C4D0C4E040006D40022802128469C
:101D6000FEF7BDFC012206E0444201228021284604
:101D7000FEF7B5FC002240212846FEF7B0FC306893
:101D8000C46370BD000C0140EC000020FEF736FF7C
:101D9000FEE770477047FEF7A1BD10B590B028214F
:101DA0006846FEF733FA14210AA8FEF72FFA01213C
:101DB0000804CDE900104200029202240491CDE90A
:101DC0000740800009906846FEF724FF08B172B60C
:101DD000FEE70F20CDE90A0400204FF48061CDE931
:101DE0000C0101460E900AA8FEF712FE08B172B669
:101DF000FEE7FEF7A3FE10B010BD70470148FFF7E5
:101E0000EFB90000A40000200148FFF7E9B9000085
:101E1000EC000020F0B502681C4B1D4D1D4E1E4FFE
:101E20001E4C4FF0804C984209D0A04207D060452C
:101E300005D0A84203D0B04201D0B84204D122F06C
:101E4000700E4A6842EA0E02984209D0A04207D0BA
:101E5000604505D0A84203D0B04201D0B84203D1BA
:101E600022F44075CA682A434D6922F080022A4351
:101E700002608A68C2620A688262984201D0A04207
:101E800001D10969016301214161F0BD002C0140CC
:101E90000004004000080040000C004000340140F5
:101EA00010B501F01F030121046A99408C430462BC
:101EB000016A9A401143016210BD10B5846842EA7C
:101EC000032224F47F440A432243826010BD8268C7
:101ED00022F070020A4342F007018160704700005F
:101EE000F0B5026A22F001020262036A4268846964
:101EF000124E24F073050C682C4323F002058B6806
:101F00002B430D4DA84201D0B04205D123F0080764
:101F1000CB683B4323F00403A84201D0B04205D173
:101F20004D6922F4407215438A692A4342608461F4
:101F3000496841630362F0BD002C01400034014058
:101F4000F0B5026A22F010020262026A43688469F4
:101F50000D6824F4E64444EA05248D6822F020024A
:101F600042EA05120F4D104EA84201D0B04206D1F0
:101F7000CF6822F0800242EA071222F04002A84213
:101F800001D0B04207D14D6923F4406343EA850391
:101F90008D6943EA85034360846149688163026215
:101FA000F0BD0000002C014000340140F0B5026A91
:101FB00022F480720262026A4368C46922F40072E9
:101FC00024F073050C68124E2C438D6842EA0522FA
:101FD0000E4DA84201D0B04206D1CF6822F4006273
:101FE00042EA072222F48062A84201D0B04207D11F
:101FF0004D6923F4405343EA05138D6943EA051301
:102000004360C4614968C1630262F0BD002C0140B5
:102010000034014030B5026A22F480520262046A40
:102020004268C3690D6823F4E64343EA05238D68DB
:1020300024F4005444EA0534084DA84202D0084D67
:10204000A84204D14D6922F4804242EA85124260DE
:10205000C36149680164046230BD0000002C014086
:102060000034014010B5036A046A24F001040462DC
:10207000846924F0F00444EA021423F00A020A43BB
:102080008461026210BD10B5036A23F0100303627D
:102090008369046A23F4704343EA023224F0A00304
:1020A00043EA01118261016210BD10B5406A00214E
:1020B000C185C184FFF794FA10BD0168CA6822F493
:1020C0009072CA6001684A6922F001024A61016B9C
:1020D000012904D10168CA6822F01002CA602021D7
:1020E00080F83E1000210163704708B590F83E105B
:1020F000222901D0022008BD82684FF480539A4201
:1021000001D1016921B1816A9A421BD04AB10AE02A
:102110000268816A5268C2F308020A80816A891CD7
:1021200008E0026972B10268526802F07F020A7028
:10213000816A491C8162C18D491E0904090CC1854F
:1021400003D019E002685268F1E70168CA6822F01A
:102150002002CA600168CA6822F48072CA600168FD
:102160004A6922F001024A61202180F83E10016B89
:10217000012903D0FFF718FC002008BD00210163EE
:102180000168CA6822F01002CA6001680A68D206B3
:1021900002D50A6849680091818DFFF720FAEBE7C4
:1021A00070B5044600680169E26821F440511143AA
:1021B00001612169A0680843616908432168CA6810
:1021C00041F20C639A430243CA6020684169A269E4
:1021D00021F44071114341611E492068884202D1B7
:1021E000FEF7C2FC01E0FEF7AFFC00EBC00101EB23
:1021F0000012606864218000B2FBF0F3B3FBF1F3DE
:102200006FF018067343B2FBF0F5B2FBF0F605EB86
:102210008305322303EB0515B5FBF1F5B6FBF1F6AB
:1022200005F0F00505EB0615B2FBF0F6B2FBF0F099
:10223000B0FBF1F06FF01802504306EB800003EBA7
:102240000010B0FBF1F0216800F00F002844886016
:1022500070BD00000038014081628285C285002186
:102260000164222280F83E2080F83C100168CA6890
:1022700042F48072CA6001684A6942F001024A6110
:102280000068C16841F02001C160002070472DE95D
:10229000F041984617460E460446069D1DE0681C10
:1022A0001BD02DB1FEF720FAA0EB0800A84214D9EC
:1022B0002068C16821F4D071C1602068416921F0B3
:1022C00001014161202084F83D0084F83E00002097
:1022D00084F83C000320BDE8F0812068006836EAFD
:1022E000000004D00020B842D9D00020F3E701203C
:1022F000F9E700000148FFF775B90000040200206B
:10230000FEE70907090E002804DB00F1E02080F851
:102310000014704700F00F0000F1E02080F8141D59
:10232000704770B5002204460D46134600F0A0FD2C
:10233000204601D8294670BD85F0004170BD0000DF
:102340000EB5FEF7D3FAFFF728FDFFF78FFBFFF777
:102350000FFCD248D0494FF4E13600240160C0E9B7
:1023600001640C25C460C0E904458461C461FFF7C1
:102370003FFA08B172B6FEE7FFF72EFCC948C8491C
:102380000160C949C0E901144FF48041C0E903412B
:1023900044618461C4610462FEF7ACF908B172B6AD
:1023A000FEE7BE48C14988380160C0E90164C460E5
:1023B000C0E904458461C461FFF71AFA08B172B636
:1023C000FEE7B648BA494438C0E9001600218160EA
:1023D000C160C0E904158161C161FFF709FA08B164
:1023E00072B6FEE7FFF74CFCAE4808219C30FFF7C1
:1023F0008FF8AC480C219C30FFF78AF8A7480421DD
:10240000D038FFF785F8A5480821D038FFF780F8C5
:10241000A2480C21D038FFF77BF8A2485430FEF7D1
:102420003DFEA44C002210212046FEF758F901225F
:1024300020212046FEF753F9012280212046FEF795
:102440004EF9002240212046FEF749F906229A491A
:102450009248FFF793FA012211032046FEF73FF955
:10246000012251032046FEF73AF9944A0021131D38
:102470004FF6FF701C1D451A1560186020600A3168
:102480008142F8DB1060186020608B4C343C20786F
:10249000B8B3A67856B18A49606900F05FFF8949F0
:1024A00000F09AFE884900F097FEE061E57855B1AA
:1024B0008349A06900F052FF824900F08DFE8249F5
:1024C00000F08AFE206256B97D49606A00F046FF3E
:1024D0007C4900F081FE7D4900F07EFEE06155B947
:1024E0007749A06A00F03AFF764900F075FE774917
:1024F00000F072FE206200206062A0626061A06154
:10250000207060780028C2D06B4DB5F8010000F053
:1025100062FB6F4F00223B4600F0D6F9DFF8B48132
:102520000022434600F0D0F9DFF8AC9100224B4680
:1025300000F0A0FB00F020FB06466060A88800F0D9
:102540004AFB00223B4600F0BFF90022434600F060
:10255000BBF900224B4600F08DFB00F00DFBA060A4
:102560002978012901D171426160E978012901D1FD
:102570004042A0606068FFF7EBFBA068FFF7CAFB72
:102580000121E06801F08BF800F092FD8046894659
:10259000206A00F08DFD514FDFF844A13A465346C2
:1025A00000F092F9054602910E46E06900F080FDC8
:1025B0003A46534600F088F9074633462A460191C9
:1025C00000F08CFC82468B46206900F071FD0646C7
:1025D00052465B46009100F04DFB42464B4600F0F0
:1025E00073F900F083F82063DDE9013180463A4653
:1025F000284600F0ADF802460B463046009900F040
:1026000039FB4FF0FF3201F01CF800F06FF8354A4B
:102610000146E062904504D227480023801D0370E4
:1026200003E0254B01209B1D1870914204D22248E3
:102630000021801DC17003E01F490120891DC87061
:10264000294E4046314600F089FE00F031FDFFF78B
:1026500068FE00F091FA184D3146AD1D6870000A11
:10266000A870E06A00F07AFE00F022FDFFF759FE44
:1026700000F082FA2871000A687164230622294654
:102680000648FFF797F90622A91F0448FFF776F9D5
:1026900000206070FBE600000038014004020020CA
:1026A0000058004050000020A0860100004C00406F
:1026B00000500040000C014034000020380C004065
:1026C00000606A470000704200103D4600103DC6A1
:1026D000000059400000384000408F409A99999975
:1026E00099192340000080800000C84221F0004278
:1026F000A2F16052B2F5801F01F0004328BFD2F171
:102700007F6C0BD95FEA001C43EAC20242EB5070B7
:1027100018BF704728BF20F001007047B2F5801F36
:10272000BCBF184670474FEA410C1CF5001F02D28F
:10273000084600F0DABE70B500F046FB00000089E4
:10274000FFF7F6BF4FF00040A0F580007047000093
:1027500010B591EA030F48BF83F0004300F1C68330
:10276000841A71EB030C05D2121943EB0C03001B06
:1027700061EB0C01DFF824E14FEA1154A4EB135C88
:102780001EEA430F18BF9EEA445F73D023EA0E038C
:10279000DCF1200E21EA045143F4801332D322FAF3
:1027A0000CFE10EB0E0023FA0CFE41EB0E01CCF1F7
:1027B000200E03FA0EFE10EB0E0051F10001B1F5F0
:1027C000801FCCF1200E32D201EB045112FA0EF22E
:1027D000BDE8104058BF7047401C38BF5FEA420256
:1027E00018BF7047002814BF20F0010041F100011C
:1027F0004FEA410313F5001F38BF7047A1F1C041F4
:1028000000F030BB012A43EB0302ACF1200CDCF1F9
:102810001F0E32BF4FF0000E23FA0CF310EB030033
:1028200041EB0451B4EB115FD0D0A1EB045101F5A1
:10283000801149085FEA300001EB04510ED350F1DA
:10284000000038BF12FA0EFE08D1BDE81040C9E7FB
:10285000401C38BF5FEA4202CAD1C3E7BDE810405E
:102860004FEA410313F5001F38BF7047A1F1C04183
:1028700000F0F8BA9EEA445F08D011EA5E0FBDE8A6
:10288000104004BF01F0004100207047BDE8104037
:1028900070B500F099FA00BF64FBBE3E0000E0FF97
:1028A00002494FF0000000F09ABE00BF0000F87F20
:1028B000491058BFC1F140415B1058BFC3F14043BC
:1028C0008B42EFF3008070472DE9C04130B4DFF850
:1028D000A0C23CEA111418BF3CEA131400F0EC80CB
:1028E00081EA03051CEA111444EAD57418BF1CEAF6
:1028F000131500F0C780A4EB05044FF0004545EA2E
:10290000C12145EAC32341EA505143EA525304F13D
:102910007F74994204F500344FEAC0204FEAC22286
:1029200008BF904200F09C804FEA13650FF24016FA
:10293000765D4FEA134506FB05F7C7F1807706FB86
:1029400007F74FEAD737A7FB03687642C8F5803808
:10295000A7FB06CE38BFA8F1010807FB08E64FF039
:10296000000EA6FB028CE6FB03CEDCF1000CCEF1E0
:10297000004E38BFAEF1010EA6FB0C584FF0000719
:102980004FF00005E6FB0E87A1FB08C6A0FB07CEB3
:1029900016EB0E0645F10005E1FB076515F1E04E6B
:1029A0007EBFA4F580345FEA46066D4116F18007CC
:1029B00045F100054FEA17274FEA066647EA056723
:1029C000A6F1DE46B6F1805F4FEA15251FD93846DD
:1029D00024F0010C05EBC471BCF1FE6F01EB0C118E
:1029E00002D8F0BCBDE8008124425CBF01F5801E26
:1029F0009EEAC47F02D4F0BCBDE80081244238D4F2
:102A0000F0BCA1F1C041BDE8004100F02BBA4FEA93
:102A1000D22242EA43524FEAD323A7FB02864FEA6F
:102A2000D02040EA415007FB03661EEA0E0F4FEA32
:102A3000D12105FB026658BFA6EB0056B6EB005647
:102A40004FEA520E4EEAC37E18EB0E0E56EB530EB3
:102A5000BDD518EB02085E417F1C55F10005B6E7B5
:102A60004FF480154FF000074FF000064FF00008BC
:102A7000ADE7F0BC4FF0000001F1C04101F00041B2
:102A8000BDE8008111EA0C1F0CEA131500D00CE020
:102A900013EA0C1F00F025804FF00000F0BC81EA23
:102AA000030101F00041BDE80081F0BCBDE8004138
:102AB00081EA030100F0D6B9F0BCBDE8004170B571
:102AC00000F082F9097EFC3E00F007B881EA0301BC
:102AD0004FF0000001F00041704781EA030100F06F
:102AE000C1B9F0BCBDE800414FF00000214970477A
:102AF000FFFDFBF9F7F5F4F2F0EEEDEBE9E8E6E4C3
:102B0000E3E1E0DEDDDBDAD8D7D5D4D3D1D0CFCD49
:102B1000CCCBCAC8C7C6C5C4C2C1C0BFBEBDBCBB82
:102B2000BAB9B8B7B6B5B4B3B2B1B0AFAEADACAB7D
:102B3000AAA9A8A8A7A6A5A4A3A3A2A1A09F9F9E57
:102B40009D9C9C9B9A999998979796959594939309
:102B5000929191908F8F8E8E8D8C8C8B8B8A8989A0
:102B60008888878786858584848383828281818023
:102B70000000FF070000F87F4FEA41034FEA53537C
:102B8000A3F58063D3F11E03C8BFD3F1210C0CDD84
:102B90004FF0004242EAC12242EA505232FA03FCAC
:102BA0008CEAE17CACEBE1707047102BC4BF0020D5
:102BB000704703F5787CBCF1FF3F04D06FF0004212
:102BC00082EA2100704770B500F0FEF84992248037
:102BD00000207047F2E7B0FA80F310FA03F10AD050
:102BE000C3F11D0303F580634FEA41504FEA0352DE
:102BF00002EBD12170474FF00000704751EA030CFF
:102C000017D41CF5801F58BFBCF5801F00F106804B
:102C1000994218BF704708BF9042704707D711F517
:102C2000801F58BF13F5801F19D4994270478942FD
:102C300070471CF5801F08D5BCF5801FF7D58B4267
:102C400018BF704708BF824270474FF4001C1CEB4E
:102C5000410F38BF1CEB430F01D28B42704770B558
:102C600000F0B2F8922449004FF000514FF0805329
:102C7000FFF71EBEDFF848C170B51CEA111E1EBF6B
:102C80001CEA13159EEA0C0F95EA0C0F00F06F80FA
:102C900081EA030423EA4C134EEAD47E21EA4C1164
:102CA00041F4801143F48013AE44A1FB024CA0FB1D
:102CB0000365AEF17F7E361955EB0C05A1FB034C85
:102CC0004CF10003A0FB021C16EB0C06654153F10E
:102CD0000003094218BF46F0010613F4007F0BD130
:102CE0004FEA03314FEA0530340341EA155140EA17
:102CF00016506FF003020AE04FEAC3214FEAC520E5
:102D0000F40241EA555140EA56506FF0020202EBDC
:102D10002E4201EB025585EACE710AD05FEA440CDF
:102D200018BF24F0004450F1000041F1000120EAF6
:102D3000D47040F2FE7C624500D270BDA84214BF40
:102D40004FF080444FF04044002E08BF0024BEF1F5
:102D5000806FA8BFA1F1C041BDE8704080F28280C1
:102D60004FF0000001F1C04101F0004170479EEAC0
:102D70000C0F0CEA131518BF95EA0C0F06D04FF094
:102D8000000081EA030E0EF0004170BD00F01CF857
:102D90008900013E00F007B800F009B84FEA430C83
:102DA0005FEA5C5C08D081EA030100F05BB84FEA9F
:102DB000410C5FEA5C5CF6D14FF0000001497047BE
:102DC0000000FF070000F87F0EF1020E2EF0030E48
:102DD0005EF8046B364205D4012A43EB030515F572
:102DE000001F12D8012841EB010C1CF5001F0CD864
:102DF0000ED14FEAD17C15F5001F0CEB4C0C0CF1F9
:102E0000020C08BF4CEBD37C04E04FF0080C01E04F
:102E10004FEAD37C0CEB4C0526FA05F606F00706C4
:102E2000B6F1040C06D20EEB860CBDE870404CF0F7
:102E3000010C6047DFE80CF0090B02024FF0004183
:102E40004FF00000A1F5002170BD19461046012881
:102E500051EB010418BFD4F5001484BF002001F029
:102E6000004170BD0808A0F500114FEA310170471C
:102E700053EA010C17D41CF5801F58BFBCF5801F06
:102E800000F106808B4218BF704708BF824270472E
:102E900007D713F5801F58BF11F5801F19D48B4237
:102EA00070479B4270471CF5801F08D5BCF5801FFA
:102EB000F7D5994218BF704708BF904270474FF44A
:102EC000001C1CEB430F38BF1CEB410F01D2994291
:102ED00070470FB40CBC03BCFFF7C1BE10B591EA3C
:102EE000030F48BF83F000433FF53AAC841A71EBFF
:102EF000030C07D212198CF0004C43EB0C03001B9F
:102F000061EB0C01DFF8A4E14FEA1154A4EB135C70
:102F10001EEA430F18BF9EEA445F00F0B08023EA28
:102F20006E03524221EA0451C3EB6E0338BF5B1EAD
:102F3000DCF1200E25D322FA0CFE10EB0E0043FA32
:102F40000CFE41EB0E01CCF1200E03FA0EFE10EB4D
:102F50000E0051F10001CCF1200E29D412FA0EF22C
:102F600001EB0451BDE8104058BF7047401C1CBF26
:102F7000B2F1004F704700280CBF491C20F001003F
:102F8000704712EB020E43EB030218BF4FF0010E25
:102F90004EEA4202ACF1200CDCF11E0E54D943FA89
:102FA0000CFE10EB0E0051F1FF31CCF11E0ED5D509
:102FB0000EF1010E12FA0EFE404141EB010101EB50
:102FC000445C5FEA5C5C10D910EBDE7001EB0451ED
:102FD00038BFBEF1004FBDE8104018BF7047002851
:102FE0000CBF491C20F00100704730D24FEAD42CAE
:102FF00011F5001124F400641BD0B1FA81F20B3AF0
:10300000A41AA41ED2F12003914030FA03F319430D
:10301000904001EBCC71002C01EB0451BDE8104055
:10302000A8BF704701F1C0414FF0000001F000411E
:103030007047B0FA80F310FA03F100D110BDE41A22
:10304000173C4805C90AE4E701EB045110BD4910DB
:1030500001EB0451BDE810404FEA300002E04FF0B0
:10306000000170474A0008BF0042F8D0B2F5001FC7
:1030700028BF704701F000414FF0000070479EEA02
:10308000445F07D011EA5E0FBDE8104004BF002185
:1030900000207047BDE8104070B5FFF795FE00BFF7
:1030A00040DFF63E83F00041104670470000E0FF2D
:1030B00043004FEAD30C4FEA3C0C43401FBF40078C
:1030C0000CF1605113F0FE4F70471CF0006F03D1FC
:1030D00000200CF0004170470CF0004343EA5070B0
:1030E00010B540EACC0000F0BAF900BF0000009231
:1030F0004FEA0001FFF7B6BE4FF000414FF000006D
:10310000A1F500217047000090EA010F48BF81F04F
:10311000004100F1F681421A3CBF801A89184FEA3B
:10312000D0524FF07F4C1CEA410FA2EBD15318BF95
:103130009CEA026F00F03B804FF0004C4CEA00200C
:103140004CEA012121FA03FC10EB0C0C1ED202F117
:10315000FF325FEA1C2040EBC25038BF70471CF0C2
:103160007F0F4FEA400C18BFBCF17F4F38BF70474C
:10317000C3F12003994008BF20F00100BCF17F4F4C
:1031800038BF7047A0F1C04000F0AFB94FEA3C0033
:10319000000A40EBC25028BF1CF0FF0F4FEA400C62
:1031A000E6D018BFBCF17F4F38BF7047EAE79CEA12
:1031B000026F05D010EA5C0F08BF00F000407047B6
:1031C00010B500F04CF900BF64FBBE3E014800F0B2
:1031D00006BA00BF0000C07F4FF47F0C1CEAD0127B
:1031E0001EBF1CEAD11392EA0C0F93EA0C0F00F0F9
:1031F000858090EA010F48BF42F4807240F4000CD1
:1032000041F400002CF07F4120F07F4000B5814266
:10321000A2EB03020FF2081CACEB504EC0F1000011
:103220009EF800E04FEA4E0E00FB0EFC38BF49004E
:103230004FEA2C1C02F5FA020CFB0EF34FEACE1EED
:103240004FEA112C4FEAC1210EEB635E42EB2242A2
:103250000EFB0CFC4FEA1C5300FB03114FEA112C30
:103260004FEA01310EFB0CFC4FEADC4C00FB0C1169
:10327000C14228BF09184CEB03335DF804EB10EB97
:10328000410143EBC250B2F57C0F38BF704729D5DE
:1032900012F0F00F1CBF00F1C04000F0004070477A
:1032A000008182838485868788898B8C8D8E8F911F
:1032B0009293959697999A9C9D9FA0A2A3A5A7A843
:1032C000AAACAEB0B2B3B5B7B9BCBEC0C2C5C7C96F
:1032D000CCCED1D4D7D9DCDFE2E6E9ECF0F3F7FAD3
:1032E000FE0000004FEA400C0CF1807CBCF17E4FE8
:1032F00028BF7047B0F1C04000F0F7B890EA010F66
:103300000CEAD11348BF42F48072624538BF63456E
:1033100007D213F47F0F16D080EA010000F00040BE
:10332000704710B500F09BF8097EFC3E00F005B830
:1033300080EA010000F00040704780EA010000F0E0
:10334000004000F0D2B812F47F0F04BF024870476B
:1033500080EA010000F0C9B80000C07F4FF47F0C84
:103360001CEAD0121EBF1CEAD11392EA0C0F93EA9A
:103370000C0F00F0478090EA010F48BF42F48072C2
:103380004FF0004C4CEA00204CEA012102EB030212
:10339000A0FB0113A2F50002002918BF43F00103AE
:1033A0005B0028BF4FEA330342EB22425FEA132C53
:1033B0004CEBC2502EBFBCEB436FB2F57C0F704795
:1033C0004FEA036CBCF1004F08BF20F00100B2F5DA
:1033D0007C0F38BF70470BD582F0FF0212F5803F9B
:1033E000C8BF704700F1C040D8BF00F00040704730
:1033F00000F5000C5FEA4C0C48BF7047B0F1C040CC
:1034000000F073B890EA010F0CEAD11348BF42F400
:103410008072624538BF634504D280EA010000F043
:103420000040704710B500F01AF800BF8900013E57
:1034300000F007B800F009B85FEA410C5FEA1C6CC5
:1034400008D080EA010000F050B85FEA400C5FEA63
:103450001C6CF6D14FF00040A0F5800070470EF1D3
:10346000020E2EF0030E5EF8044B244204D44FEA01
:103470004102B2F17F4F11D84FEA4003B3F17F4FC1
:103480000CD80ED14FEAD07CB2F17F4F0CEB4C0C34
:103490000CF1020C08BF4CEBD17C04E04FF0080C9F
:1034A00001E04FEAD17C0CEB4C0324FA03F404F066
:1034B0000704B4F1040C06D20EEB840CBDE81040F6
:1034C0004CF0010C6047DFE80CF0070802024FF0F7
:1034D0000040A0F5800010BD0846420018BFD2F1A0
:1034E000807288BF00F0004010BDFF2141EAD0503B
:1034F000C005704790EA010F48BF81F000413FF5D9
:103500000AAE421A04D882F00042A0EB0200114435
:103510004FEAD0524FF07F4C1CEA410FA2EBD1533F
:1035200018BF9CEA026F4AD04FF0004C4CEA0020D2
:103530004CEA012121FA03FCB0EB0C0C0FD412F081
:10354000FE0F36D05FEA4C001DD5001240EBC25092
:1035500038BF70471CF03F0F18BF70470BE0A2F157
:1035600001025FEA1C2040EBC25038BF70471CF0DC
:103570007F0F18BF7047C3F12003994014BF401E4E
:1035800020F00100704780084FEA122308BF7047FF
:10359000B0FA80FCA2EB0C02CCF1280C60FA0CF023
:1035A00093EA122F04BF00EBC25070474FEAC3707A
:1035B0007047130A5FEADC1008BF7047F6E79CEA21
:1035C000026F04D010EA5C0F08BF0020704710B5EE
:1035D000FFF745FF40DFF63E81F0004070470CF0FA
:1035E0000F03092B08BF082000F07F800A2B0BD0A7
:1035F000082B18BF704708BF1CF0400F0AD04FF0CF
:1036000000004FF0000170471CF0400F18BF4FF052
:10361000004070471CF0100F08D020F0704300F0FD
:103620007F4242EAD3014FEA4370704700F06040A6
:1036300021F07F4242EA000201F07F4040EA7270CE
:1036400070474FF0FF0C4CF4E06C1CEA11531CBFA8
:103650009CEA030C9445C2BFDA4201EB0251704769
:10366000002B0DD0BCF1000F0FD0002A01F000415B
:10367000A4BF41F0E04141F07F614FF0000070478E
:1036800001F000414FF00000704750EA01334FF065
:103690009B0C18BF4CF0806C7FF402A970474FF070
:1036A000FF0212EAD0521CBF92F0FF038B42C2BF4E
:1036B000D14200EBC1507047002A0AD0002B0BD03A
:1036C000002900F00040A4BF40F0FE4040F400009C
:1036D000704700F00040704743024FF00B0C18BFDA
:1036E0004CF0806C7FF472AD70471CF4801F11D0D9
:1036F0001CF4E02F03D06FEACC31490070474FF043
:103700004050EFF3008222F0704242EA000282F35E
:10371000008870474FF00000704700000000000074
:10372000000001020304060708090000000001026E
:10373000030400005437000800000020500000007F
:103740006C010008A4370008500000205808000051
:1037500088010008000000000000000000000000D8
:103760000000003E8FC2753D000000000000000018
:103770000000000000000000000000000000000049
:103780000000000000000000000000000000000039
:103790000000000001000000100000000000000018
:0437A0000024F4000D
:0400000508000131BD
:00000001FF
