:020000040800F2
:1000000090090020CD010008652A00085D2A00083B
:10001000612A00085D030008FD2B000800000000B5
:10002000000000000000000000000000712A00082D
:1000300061030008000000006D2A0008752A00080E
:10004000E7010008E7010008E7010008E7010008F0
:10005000E7010008E7010008E7010008E7010008E0
:10006000E7010008E7010008E7010008E7010008D0
:10007000E7010008E7010008E7010008E7010008C0
:10008000E7010008E7010008E7010008E7010008B0
:10009000E7010008E7010008E70100086503000820
:1000A000E7010008152B0008E7010008E701000838
:1000B000E7010008E7010008212B0008E70100081C
:1000C000E7010008E7010008E7010008E701000870
:1000D000E7010008F12B0008E7010008E70100082C
:1000E000E7010008E7010008E7010008E701000850
:1000F000E7010008E7010008E7010008E701000840
:10010000E7010008E7010008E7010008E70100082F
:10011000E7010008E7010008E7010008E70100081F
:10012000E7010008E7010008E7010008E70100080F
:1001300000F002F800F03AF80AA090E8000C8244BF
:100140008344AAF10107DA4501D100F02FF8AFF29C
:10015000090EBAE80F0013F0010F18BFFB1A43F0A5
:1001600001031847085C0000285C0000103A24BF17
:1001700078C878C1FAD8520724BF30C830C144BF0C
:1001800004680C607047000000230024002500264E
:10019000103A28BF78C1FBD8520728BF30C148BFEA
:1001A0000B6070471FB51FBD10B510BD00F044F8BF
:1001B0001146FFF7F7FF02F023FD00F062F803B4E9
:1001C000FFF7F2FF03BC00F065F800000948804724
:1001D00009480047FEE7FEE7FEE7FEE7FEE7FEE729
:1001E000FEE7FEE7FEE7FEE704480549054A064B41
:1001F00070470000112B0008310100089003002017
:10020000900900209005002090050020704770475D
:10021000704710B500F008F8006810BD10B504462E
:1002200000F002F8046010BD004870475000002044
:1002300000487047500000207546FFF7F9FFAE46B2
:1002400005006946534620F00700854618B020B5E2
:10025000FFF7CAFFBDE820404FF000064FF000074F
:100260004FF000084FF0000BAC46ACE8C009ACE81A
:10027000C009ACE8C009ACE8C00921F007018D460F
:10028000704710B50446AFF300802046BDE810402B
:10029000FFF795BF01491820ABBEFEE7260002001C
:1002A00070470000B0B582B004460020019021687C
:1002B0008A68D2074FD1886840F00100886040F218
:1002C0004C00C2F2000000684DF68361C4F21B319D
:1002D000A0FB0101880C01900198A0B101980138A0
:1002E0000190019878B1019801380190019850B1BE
:1002F000019801380190019828B1019801380190C6
:1003000001980028EAD100F0E7FD21688968C90753
:100310001CD1054603E000BF8068C0071AD100F079
:10032000DBFD411B20680329F6D38168C907F3D19F
:10033000A06A40F01000A062E06A40F00100E062B4
:10034000002084F82400012002B0B0BD002002B0DB
:10035000B0BD00BF002002B0B0BD0000FEE700004D
:100360007047000080B5202000F0A0FC402000F085
:100370009DFC802000F09AFC4FF48070BDE8804026
:1003800000F094BCB0B581B00022009290F8242017
:10039000012A03D10221084601B0B0BD4B680122F9
:1003A000062B80F8242023D8D0F800C003EB830369
:1003B00062465D1F1F2352F834EF03FA05F40B6801
:1003C0002EEA040E03FA05F444EA0E05092B156023
:1003D0002DD8DCF8102003EB4303072589689D40E6
:1003E000AA4399401143CCF8101000213FE000BF10
:1003F000D0F800C00C2B624606D852F830EF03EB61
:100400008303A3F1230405E052F82CEF03EB8303ED
:10041000A3F141041F2303FA04F50B682EEA050E2D
:1004200003FA04F444EA0E05092B1560D1D903EB55
:100430004305DCF80C201E3D07248968AC40A2432C
:10044000A940114323F00102102ACCF80C100DD161
:1004500042F20841C4F20101A1F1080294450DD015
:10046000816A41F020018162012100E00021002227
:1004700080F82420084601B0B0BD00BF0A6812020F
:1004800030D40A68102B42F400020A602CD140F2EA
:100490004C01C2F2000109684DF68362C4F21B32BE
:1004A000A1FB0212910C01EB81014900009100991E
:1004B000E1B10099013900910099C9B10099013960
:1004C00000910099B1B1009901390091009999B159
:1004D000009901390091009900294FF00001E8D1FD
:1004E000C5E700BF0021C2E70021C0E70021BEE749
:1004F0000021BCE70021BAE70021B8E70068C06C22
:1005000070470000002804BF0120704770B5064600
:10051000044656F8280F28B121688868C0070CD116
:1005200015E000BF0020E06284F82400204600F0BF
:10053000A7F821688868C00709D0886820F0010002
:10054000886000F0C9FC21688A68D20730D1306821
:10055000C00644D4A06A41F2021290430230A06265
:10056000E36981F0804080F49E3083F440221043A0
:1005700008BF4FF40023D4E9010243EA000C531EE4
:10058000B3FA83F35D091346B2F5807F18BF2B02DF
:10059000207D257B01284CEA450030D135B3A56A82
:1005A00045F02005A562E56A45F00105E56226E013
:1005B000054602E08868C007C9D000F08DFC401BEA
:1005C00021680328F6D38868C007F3D0A06A40F0FA
:1005D0001000A062E06A40F00100E062A06A3068AA
:1005E00040F010010120316070BD00BFD4F818C088
:1005F0004EF60005CFF6FF7505EB4C352B434D68E5
:10060000B2F5807F25F4694543EA05034B608B68AA
:100610004FF2FD75CFF6E17503EA050343EA0003E7
:100620008B6001D0012A07D122690023CFF6F07335
:1006300003EB025201E000BF0022CB6A23F47003F7
:100640001A43CA62896840F6FE62CFF61F721140F3
:10065000814207D10020E062A16A012262F3010118
:10066000316070BDA06A40F0100020F00200A0626E
:1006700054F82C0F40F0010101202646316070BD76
:1006800070B586B040F60004C4F20104006804F5B9
:10069000E05188424FF00000CDE9040002D006B0DE
:1006A00070BD00BF41F21800C4F20200016802AD43
:1006B00041F4007101600168032601F400710191A9
:1006C0000199016841F010010160016801F0100119
:1006D00001910199016841F0040101600068294617
:1006E00000F00400019001980120029004F50060E0
:1006F000039600F0E7FA0820CDE9020620462946D5
:1007000000F0E0FA06B070BDF0B581B000270D46EC
:100710000446009700F0E0FB21688A68D20543D4C4
:1007200006464868C00503D4C86A10F4700F45D067
:1007300040F24C00C2F200000768022000F086FC84
:10074000216844F624130A69B7FBF0F0C2F2924321
:100750001A4206D1CA6844F62413C0F292031A4220
:100760005ED00A6942F29243C1F249231A4207D18C
:10077000CA6842F29243C0F249031A4200F0C080B4
:100780000A6949F24923C0F224031A424FF0FC02DD
:1007900057D1CF681F4208BF5422009B02FB00F7CD
:1007A000BB4253D3C3E000BFA06A40F02000A06268
:1007B00084F82470012001B0F0BD00BF08688007F4
:1007C00000F1B580681C00F0A880FDB908688007BA
:1007D00072D50868800700F1AA80086880076BD589
:1007E0000868800700F1A3800868800764D508685E
:1007F000800700F19C80086880075DD50868800745
:10080000E4D594E00868800700F1918000F064FB73
:10081000801B2168A842F5D908688007F2D44BE014
:100820000A6942F29243C1F249231A424FF0290267
:1008300007D1CB6842F29247C0F249073B4208BF5A
:100840001422009B02FB00F7BB4270D2681C4FD001
:1008500055BB0098B8422FD3009801300090009803
:10086000B84264D20098B84226D300980130009074
:100870000098B8425BD20098B8421DD3009801306E
:1008800000900098B84252D20098B84214D3009811
:10089000013000900098B842DBD348E00098013066
:1008A00000900098B84233D200F016FB801BA8429B
:1008B000F4D90098B842F1D2A06A40F00400A062D6
:1008C000002084F82400032001B0F0BD009801301E
:1008D00000900098B8422AD2009801300090009809
:1008E000B84224D20098013000900098B8421ED23D
:1008F0000098013000900098B842E7D317E000BF9D
:100900005422009B02FB00F7BB429FD30FE000BFC5
:1009100021680CE00868800709D40868800706D4BD
:10092000086880075CBF08685FEA8070F2D56FF0E6
:1009300012000860A06A40F40070A062886800F4A9
:100940006020B0F5602F01D1207B18B1002001B0EC
:10095000F0BD00BFA06A20F48070A062A06AC0044D
:10096000F4D4A06A40F00100A062002001B0F0BD04
:1009700010B5044690F82400012804BF022010BDE1
:10098000012084F824002046FFF78CFC20B10021D0
:1009900084F8241010BD00BF42F2044C2068A16A04
:1009A000C4F2010C40F2013291430CF57F7201F563
:1009B00080719042A16233D0A16A21F48011A162BA
:1009C0004168490504D5A16A012363F30D31A16291
:1009D000A16A0023C9044FF0000144BFE16A21F07D
:1009E0000601E1626FF0020184F824300160816841
:1009F00001F46021B1F5602F06D190420AD1DCF8F4
:100A0000001011F4702F05D0816841F480118160CD
:100A1000002010BD816841F4A0018160002010BD5C
:100A2000DCF8001011F4702FC6D0A16A41F48011D7
:100A3000A162DCF800104905C5D4C9E7B0B5044689
:100A400090F82400012804BF0220B0BD01212068D5
:100A500084F824108168C90709D0816821F0010158
:100A6000816000F039FA21688968C9070ED12146F2
:100A700051F8280F41F2011220EA0202002042F050
:100A800001020A60002184F82410B0BD054602E08E
:100A90008068C007EBD000F01FFA411B20680329D3
:100AA000F6D38168C907F3D0A06A214640F0100050
:100AB000A06251F82C2F0120E1E70000014690F8D8
:100AC0002100022816D10868D1E90FC3026822F07C
:100AD0000E020260026822F001020260012000FAA8
:100AE00003F2CCF8042081F821000020002281F8D4
:100AF00020207047042088630120002281F82020F4
:100B00007047000080B590F82110022928D10268B2
:100B100040F2040C1368C4F2020C23F00E031360BD
:100B200013680CF17C018A4223F0010111601BD98A
:100B300040F20841C4F202018A4249D040F21C410D
:100B4000C4F202018A4247D040F23041C4F20201AD
:100B50008A4245D14FF48073CCF800345DE000BF89
:100B600004218163012080BD4321C4F202018A4235
:100B70000EDD6B21C4F202018A421BDC4421C4F267
:100B800002018A423CD05821C4F202018A4233E079
:100B90000821C4F202018A4236D01C21C4F20201AB
:100BA0008A4237D03021C4F202018A4224D14FF464
:100BB000807230E06C21C4F202018A4226D080218A
:100BC000C4F202018A4217D14FF0807223E000BFC5
:100BD0000123CCF8003420E01023CCF800341CE0D2
:100BE0000CF588614FF480338A4208BF4FF480537C
:100BF000CCF8003411E000BF4FF480320BE000BFAE
:100C00004FF4805207E000BF012204E04FF480124D
:100C100001E000BF1022CCF80020416B4FF480723D
:100C2000028401B18847002080BD000080B5802883
:100C300016D0402818BF80BD40F60000C4F2010065
:100C400000F50060802100F03BF9D8B140F2B0001F
:100C5000C2F20000016C013101640121C17080BD4C
:100C600040F60000C4F20100402100F029F998B1DB
:100C700040F2B000C2F20000816C013181640121B8
:100C8000017180BD40F2B000C2F20000416C013140
:100C900041640021C17080BD40F2B000C2F200008A
:100CA000C16C0131C1640021017180BD40F2144169
:100CB000C4F201010A68024214BF08607047FFF7DE
:100CC000B5BF00002DE9F04F82B0D1F800C0BCF1F3
:100CD000000F00F0F180A0F1804241F60045A2F53E
:100CE0008432C4F2010540F2004E4FEAB2240627D6
:100CF000A842C4F2010E08BF0527052C4FF00004DE
:100D00004FF001084FF00F034FF0000A4FF0000BB7
:100D100038BF4FEAB22700970AE000BFD1F800C001
:100D20000AF1010A3CFA0AF204F1040400F0C4805A
:100D300008FA0AF91CEA090FF0D04E684FF6FF7264
:100D4000C1F21002964211DC122E55D8DFE806F0EF
:100D5000340A4448545454545454545454545454D9
:100D6000544C5000D1F80CB046E000BF4FF6FF7273
:100D7000C1F2210296420FDC0022C1F2110296421A
:100D80001AD00022C1F21202964215D00022C1F2FE
:100D90002102964210D02FE00022C1F22202964298
:100DA0000AD00022C1F23102964205D00022C1F2DF
:100DB0003202964220D100BF8A684AB1012A14BF8C
:100DC000C0F81490C0F810904FF0080B14E000BF6A
:100DD0004FF0040B10E000BFCA6802F1080B0BE0F3
:100DE0004FF0000B08E000BFCA6802F1040B03E0FB
:100DF000CA6802F10C0B00BF22460646BAF1080F82
:100E000024BF203A0436376803FA02F5AF430BFAE1
:100E100002F23A433260CA79D2067FF57FAF41F2DF
:100E20001807C4F202073A684FF6084342F001027D
:100E30003A603A68CFF6FF7302F001020192019A1C
:100E40002AF0030272440F25D75804F00C06B5406F
:100E5000AF43009D05FA06F63743D7504E680F237F
:100E6000F203DEF8002054BF22EA090242EA090236
:100E7000CEF80020DEF80420B70354BF22EA0902AE
:100E800042EA0902CEF80420F702DEF8082054BF37
:100E900022EA090242EA0902B70240F20C47CEF800
:100EA0000820C4F201073A6854BF22EA090242EA64
:100EB00009023A6032E700BF02B0BDE8F08F0000DF
:100EC0008068084018BF012070470000002A08BF52
:100ED000090401617047000040F28830C2F200004E
:100EE0000068704740F2440040F28831C2F20000CE
:100EF000C2F2000100780A681044086070470000E0
:100F000080B542F20000C4F20200016841F0100115
:100F10000160032000F08AF80F2000F005F800F0CF
:100F200027F8002080BD000070B540F24406C2F2F0
:100F3000000640F24C013278C2F200014FF47A739D
:100F40000968B3FBF2F20446B1FBF2F1084600F087
:100F5000AFFC0F2C4FF0010508D838B94FF0FF3027
:100F600021460022002500F035F87460284670BD47
:100F700082B041F21800C4F202000168022241F07E
:100F800001010160016801F00101019101994168CD
:100F900041F080514160406800F08050009000981E
:100FA0000420C4F20100016862F31A61016002B01A
:100FB00070470000002848BF704700F01F01012261
:100FC00002FA01F14EF200124009CEF2000242F89C
:100FD0002010704710B54EF60C5CCEF2000CDCF819
:100FE0000030C3F3022E8EF00704042C28BF042423
:100FF000BEF103034FF0FF3E0EFA04F438BF0023A6
:10100000A14399400EFA03F39A4300F00F03043B07
:101010001143634409010C3300F16042B0F1FF3F1A
:10102000C8BF02F56443197010BD00004EF60C51A4
:10103000CEF200010A684FF6FF031A4060F30A225D
:1010400042F0806040F0FD700860704780B5411E3E
:101050000F294FF0000039D8DFE801F00C2A3808DA
:1010600038383808383838383838383ABDE88040A9
:1010700000F00ABA41F20400C4F20200C16940F271
:1010800002320A40B2F5817F04BF4FF4004080BDB8
:1010900001F44071B1F5407F4CD0B1F5007F51D1E2
:1010A000006A49F64041800701EAE07080BD00BF58
:1010B00000F0D6F941F20401C4F2020109680222EB
:1010C000C1F3813102EB4101B0FBF1F080BD00BF03
:1010D00041F20401C4F202010A6851F8040CC00193
:1010E0005CBF002080BDC2F3834017A3185CD2030D
:1010F00006D440F60012C0F23D0250430CE000BF9F
:101100000A6815A3C2F340429A5C41F20023C0F280
:101110007A03B3FBF2F250430968490248BF80BD2D
:101120004AF6AB214000CAF6AA21A0FB01014808FB
:1011300080BD00BF50F8040C4FF22441800301EA47
:10114000E07080BD002080BD020304050607080989
:101150000A0B0C0D0E0F1010010200002DE9F041DA
:1011600082B00446007841F21C06C007C4F20206B1
:101170004AD0306810F0805808D1306840F0805074
:101180003060306800F080500190019847F200070D
:10119000C4F200073868C00512D4386840F4807083
:1011A0003860FFF799FE05463868C00508D4FFF798
:1011B00093FE401B6428F7D9032002B0BDE8F081FC
:1011C000706810F4407012D0616801F44071884278
:1011D0000DD0706840F24042C4F24222012320F454
:1011E000407113600023C007136071602AD17068DA
:1011F000616820F440700843B8F1000F706003D1BB
:10120000306820F0805030602068810707D556F89C
:10121000181CA26821F44041114346F8181CC0066E
:1012200004D4002002B0BDE8F08100BF56F8180CCD
:10123000616920F48000084346F8180C002002B0D1
:10124000BDE8F081FFF748FE054641F2883700BF50
:1012500070688007CBD4FFF73FFE401BB8424FF0C9
:101260000300F5D9EBE70000704700002DE9F043DB
:1012700081B0002800F0858042F20008C4F2020824
:101280000446D8F800000D4600F0070088420CD252
:10129000D8F8000020F007002843C8F80000D8F86C
:1012A000000000F00700A8426BD1206841F2040959
:1012B0008107C4F2020917D5410705D5D9F80010F6
:1012C00041F4E061C9F80010010705D5D9F8001014
:1012D00041F46051C9F80010D9F80010A26821F05B
:1012E000F0011143C9F80010C00741D1D8F800003F
:1012F00000F00700A8420CD9D8F8000020F0070041
:101300002843C8F80000D8F8000000F00700A84201
:1013100037D12068410707D5D9F80010E26821F4D9
:10132000E0611143C9F80010000708D5D9F80000A2
:10133000216920F4605040EAC100C9F80000D9F8E2
:10134000002002F00C00082841F20020C0F27A00D0
:1013500050D145F65A53C2F38341C0F60003595C9D
:10136000D2033BD440F60010C0F23D00484341E0B8
:10137000606802280AD001282AD159F8041C890380
:1013800008D4012001B0BDE8F08300BF59F8041C67
:101390008901F6D5D9F8001021F003010843C9F8F6
:1013A0000000FFF799FD064641F28837D9F80000A2
:1013B000616800F00C00B0EB810F97D0FFF78CFD57
:1013C000801BB842F2D9032001B0BDE8F08300BF12
:1013D00059F8041C8907D4D5DCE700BFD9F80020F0
:1013E00045F64053C2F34042C0F600039A5C4843BE
:1013F000B0FBF2F0D9F8001045F64252C1F30311E8
:10140000C0F60002515C40F24C0220FA01F140F2B9
:101410004800C2F200000068C2F200021160FFF74B
:1014200083FD002001B0BDE8F08300004C20C4F231
:10143000422001210160704740F24C0041F204015A
:10144000C2F20000C4F202010068096845F6525277
:10145000C1F30221C0F60002515CC8407047000091
:1014600040F24C0041F20401C2F20000C4F2020159
:101470000068096845F65252C1F3C221C0F6000265
:10148000515CC8407047000041F2040CC4F2020CE9
:10149000DCF8003003F00C00082841F20020C0F214
:1014A0007A0018BF704745F65A51C3F38342C0F61D
:1014B00000018A5CD90305D440F60010C0F23D005B
:1014C00050437047DCF8001045F64053C1F34041EB
:1014D000C0F60003595C5043B0FBF1F070470000C8
:1014E00010B541F20804C4F202042068000658BF97
:1014F00010BDFFF7B9FE8020A07010BD2DE9F041AE
:1015000082B0002868D00446007841F20006C00787
:10151000C4F2020625D0706800F00C0004281BD02D
:10152000706800F00C00082802D17068C00313D462
:101530006068002800F06881B0F5A02F00F07C8181
:10154000B0F5803F00F07C81306820F4803030605E
:10155000306820F4802076E13068800301D560682F
:10156000D0B32078800718D5706810F00C0F07D022
:10157000706800F00C0008286ED17068C0036BD44E
:101580003068800702D52069012825D1306861695B
:1015900020F0F80040EAC1003060207800071FD436
:1015A0002078400732D4E56995B1706800F00C00EE
:1015B000082840F08F80012D0ED07068216A00F459
:1015C00080328A4208D1616A00F47010884203D1E7
:1015D000002002B0BDE8F081012002B0BDE8F0813A
:1015E000A069002862D00020C4F242200121C0F886
:1015F0008014FFF771FC0546706A800700F18C804B
:10160000FFF76AFC401B0228F6D92AE1F06910F0C6
:10161000805808D1F06940F08050F061F06900F026
:1016200080500090009847F20007C4F20007386825
:10163000C00529D4386840F480703860FFF74CFC4E
:10164000054600BF3868C0051ED4FFF745FC401BA7
:101650006428F7D905E100BF2069002840F20000A6
:10166000C4F2422000F0828001210160FFF734FCC7
:10167000054600BF306880073FF588AFFFF72CFCB8
:10168000401B0228F6D9ECE0E068002800F08080DA
:10169000052800F09780012800F09880306A20F03B
:1016A00001003062306A20F0040092E00020C4F2B1
:1016B00042200021C0F88014FFF70EFC054600BF51
:1016C000706A80077FF56CAFFFF706FC401B0228AD
:1016D000F6D9C6E00027C4F2422700203866FFF79B
:1016E000FBFB022D05460BD13068800140F1BE8026
:1016F000FFF7F2FB401B02284FF00300F4D968E724
:10170000306880017FF564AFFFF7E6FB401B0228DD
:101710004FF00300F4D95CE740F24C00C2F2000045
:10172000006844F6D351C1F26201A0FB0101480AEE
:10173000019000BF00BF0198411E002801913FF4B5
:101740002FAF00BF0198411E002801913FF428AF40
:1017500000BF0198411E002801913FF421AF00BF56
:101760000198411E00280191E4D119E70021016090
:10177000FFF7B2FB054600BF306880077FF50DAF6D
:10178000FFF7AAFB401B02284FF00300F4D920E723
:10179000306A20F001003062306A20F004003062CC
:1017A000FFF79AFB054641F2883700BF306A800791
:1017B00020D5FFF791FB401BB8424FF00300F5D94D
:1017C00007E700BF306A40F004003062306A40F042
:1017D00001003062FFF780FB054641F2883700BF09
:1017E000306A800706D4FFF777FB401BB842F7D971
:1017F00037E000BFB8F1000F7FF4D5AEF06920F0FC
:101800008050F061CFE600BF306820F48030306057
:10181000306820F480203060FFF75EFB054600BF93
:10182000306880037FF59DAEFFF756FB401B6428B0
:101830004FF00300F4D9CCE6306840F480203060EB
:10184000306840F480303060FFF746FB054600BF4B
:10185000306880033FF585AEFFF73EFB401B6428F0
:10186000F6D9032002B0BDE8F08100BF206AB0F5D0
:10187000803F05D17168A26821F400311143716085
:101880007168626A21F4741110430843706001208A
:101890003866FFF721FB0446306880013FF598AEBB
:1018A000FFF71AFB001B02284FF00300F4D990E663
:1018B000411E0020B0EB116F1CBF012070474EF29B
:1018C0001002CEF2000251604EF62351CEF200011A
:1018D000F0230B7007219060116070477047000083
:1018E0007047000010B590F83C20012A4FF002022A
:1018F0003FD080F83D200268D2F804E0D2F808C05A
:101900000C682EF07003234340F6FF34C4F2000449
:10191000A242536010DCB2F1804F1FD040F200436E
:10192000C4F200039A4219D040F60003C4F2000347
:101930009A4213D017E000BF40F60043C4F2000300
:101940009A420BD043F20043C4F201039A4205D0FD
:1019500042F60043C4F201039A4204D149682CF0D4
:101960008003194391600121002280F83D1080F826
:101970003C20104610BD0000002804BF0120704725
:1019800010B5044690F83D0028B9002084F83C00CA
:10199000204600F085F8022084F83D00206840F6DB
:1019A000FF330268C4F2000343F2004C9842C4F2D1
:1019B000010C21DCB0F1804F2CD040F20041C4F288
:1019C0000001884226D040F60001C4F2000188429E
:1019D00020D0984224DCB0F1804F2FD040F200415B
:1019E000C4F20001884229D040F60001C4F200018F
:1019F000884223D026E000BF40F60041C4F2000137
:101A0000884207D0604505D042F60041C4F201018A
:101A10008842DED1A16822F070020A439842DADDE2
:101A200040F60041C4F20001884207D0604505D06D
:101A300042F60041C4F20101884203D1216922F437
:101A400040720A43A36922F08001D4F804E0E268FE
:101A5000194360450160C262C0F828E005D042F633
:101A60000041C4F20101884201D161690163012191
:101A70004161002084F8461084F83E1084F83F103D
:101A800084F8401084F8411084F8421084F8431020
:101A900084F8441084F8451084F83D1010BD00000F
:101AA00080B582B0006840F2FF71C4F20001884244
:101AB00018DCB0F1804F3DD040F20041C4F200018B
:101AC000884244D141F21C00C4F20200016841F096
:101AD00002010160006800F002000190019802B06C
:101AE00080BD00BF40F60001C4F20001884231D041
:101AF00042F60041C4F20101884228D141F21C00A3
:101B0000C4F2020050F8041C002241F4006140F8C5
:101B1000041C50F8040C002100F4006001900198AE
:101B20001920FFF757FA192002B0BDE88040FFF7EF
:101B300041BA00BF41F21C00C4F20200016841F04A
:101B400001010160006800F001000190019802B0FD
:101B500080BD00BF41F21C00C4F2020001680022F7
:101B600041F0040101600068012100F004000190CF
:101B700001981E20FFF72EFA1E2002B0BDE880401B
:101B8000FFF718BA90F83D1001291CBF01207047DB
:101B9000022180F83D10006840F6FF32C168C4F2AF
:101BA0000002904241F00101C1600FDCB0F1804FB2
:101BB0001ED040F20041C4F20001884218D040F625
:101BC0000001C4F20001884212D018E040F6004142
:101BD000C4F2000188420BD043F20041C4F201017B
:101BE000884205D042F60041C4F20101884206D184
:101BF000816801F00701062904BF002070470168D1
:101C000041F00101016000207047000080B590F8AC
:101C10003C20012A4FF0020200F0BF8080F83D20F6
:101C2000D0F800C04FF67772DCF8083023EA0202E1
:101C3000CCF808200B683F2B1CDD5F2B20DD602BD0
:101C400050D0B3F5005F6DD0702B40F0A080D1E98B
:101C500001E3C968DCF8082043EA0E0322F47F425E
:101C600043EA01211143CCF80810DCF8081041F0D8
:101C700077018AE01F2B29DC63B3102B2AD086E082
:101C8000402B63D0502B40F08280D1F804E0C9682B
:101C9000DCF82030DCF8202022F00102CCF82020F3
:101CA000DCF8182022F0F00242EA011123F00A02C7
:101CB00042EA0E02CCF81810CCF82020DCF808100C
:101CC00041F0570121F020015FE000BF202B01D03F
:101CD000302B5CD1DCF8081021F07001194341F081
:101CE000070152E0D1F804E0C968DCF8203023F0A5
:101CF0001003CCF82030DCF81830DCF8202023F476
:101D0000704322F0A00243EA013142EA0E12CCF8FD
:101D10001810CCF82020DCF8081041F0670121F001
:101D2000100132E0D1E901E3C968DCF8082043EA98
:101D30000E0322F47F4243EA01211143CCF808103C
:101D4000DCF8081041F480411FE000BFD1F804E046
:101D5000C968DCF82030DCF8202022F00102CCF841
:101D60002020DCF8182022F0F00242EA011123F0D2
:101D70000A0242EA0E02CCF81810CCF82020DCF857
:101D8000081041F0470121F03001CCF80810012182
:101D9000002280F83D1080F83C20104680BD0000F5
:101DA0007047000010B5016804460869800744BF09
:101DB000C8685FEA807039D40869400744BFC868C2
:101DC0005FEA40703ED40869000744BFC8685FEA14
:101DD000007045D40869C00644BFC8685FEAC060A7
:101DE0004AD40869C0071CBFC8685FEAC07051D1F7
:101DF0000869000644BFC8685FEA006052D40869F9
:101E0000400644BFC8685FEA406053D40869800652
:101E100046BFC8685FEA806010BD6FF020022046B0
:101E20000A61BDE81040FFF75BBD00BF6FF0020024
:101E30000861012020778869800743D02046FFF79A
:101E4000AFFF45E06FF00400086102202077886949
:101E500010F4407F40D02046FFF7A2FF42E000BFD1
:101E60006FF00800086104202077C86980073DD022
:101E70002046FFF795FF3FE06FF010000861082053
:101E80002077C86910F4407F3AD02046FFF788FFDA
:101E90003CE000BF6FF001000861204600F0B2FA9C
:101EA0002168A5E76FF0800008612046FFF716FD66
:101EB0002168A4E76FF040000861204600F0CCFAEA
:101EC0002168A3E7204600F069F8204600F026FAD2
:101ED0002168002020776FE7204600F05FF8204659
:101EE00000F01CFA2168002020776CE7204600F003
:101EF00055F8204600F012FA21680020207769E7A3
:101F0000204600F04BF8204600F008FA2168002037
:101F1000207766E780B586B0006840F20041C4F2E1
:101F2000000188424FF00001CDE90411CDE9021112
:101F300016D0B0F1804F2ED141F21800C4F2020049
:101F4000016841F004010160006800F004000190A4
:101F500001980220029040F60000C4F2010014E053
:101F600041F21800C4F20200016841F0080101606A
:101F7000006800F00800019001980220029040F6ED
:101F80000000C4F2010000F5806002210391059178
:101F900002A9FEF797FE06B080BD00007047000062
:101FA0002DE9F04190F83C30012B04BF0220BDE840
:101FB000F0814FEAB202032A00F21381DFE802F057
:101FC00002468ED8036843F200461A6AC4F201063C
:101FD00022F001021A621D6A1A465C6852F818EF74
:101FE0008F68D1F800C025F00205B34245EA070525
:101FF00005D042F60047C4F20107BB4205D1CF68C5
:1020000025F00C0527F004073D43B34205D042F606
:102010000046C4F20106B34205D1D1E9056724F4B4
:10202000407434433C432EF0730747EA0C075C606E
:102030009F614F6809695F631D629F6947F00807E8
:102040009F619F6927F004079F61C7E0036843F21F
:1020500000481A6AC4F2010822F010021A621D6ACE
:102060001A465C6852F818EF8F68D1F800C025F066
:102070002005434545EA071505D042F60047C4F25E
:102080000107BB4207D1CF686FF0400625F0C005BD
:1020900006EA07163543434505D042F60046C4F22A
:1020A0000106B34207D1D1E9056724F4406444EA4C
:1020B000860444EA87042EF4E64747EA0C275C606E
:1020C0009F614F6809699F631D629F6947F40067BC
:1020D0009F619F6927F480679F617EE0036843F2F8
:1020E00000481A6AC4F2010822F480721A621D6A5A
:1020F0001A465C6852F81CCF8F68D1F800E025F4CE
:102100000075434545EA072505D042F60047C4F26D
:102110000107BB4208D1CF6840F2FF463F0225F4D9
:10212000406527EA06063543434505D042F600469A
:10213000C4F20106B34207D1D1E9056724F4405443
:1021400044EA061444EA07142CF0730747EA0E0722
:102150005C60DF614F680969DF631D62DF6947F01A
:102160000807DF61DF6927F00407DF6136E000BFA1
:10217000036843F200471A6AC4F2010722F480524E
:102180001A621A46D3F820C05D6852F81C4FD1F885
:1021900000E08E68BB4205D042F60047C4F201075A
:1021A000BB4204D14F6925F4804545EA87152CF4DC
:1021B000005747EA063724F4E64646EA0E265D60F5
:1021C000DE614E6809691E641F62DF6947F40067BB
:1021D000DF61DF6927F48067DF6109021368194353
:1021E0001160002180F83C100846BDE8F081000035
:1021F000002804BF0120704710B5044690F83D0048
:1022000028B9002084F83C00204600F085F8022020
:1022100084F83D00206840F6FF330268C4F20003F2
:1022200043F2004C9842C4F2010C21DCB0F1804F23
:102230002CD040F20041C4F20001884226D040F682
:102240000001C4F20001884220D0984224DCB0F1A1
:10225000804F2FD040F20041C4F20001884229D0C3
:1022600040F60001C4F20001884223D026E000BFFE
:1022700040F60041C4F20001884207D0604505D015
:1022800042F60041C4F201018842DED1A16822F089
:1022900070020A439842DADD40F60041C4F20001C0
:1022A000884207D0604505D042F60041C4F20101E2
:1022B000884203D1216922F440720A43A36922F0C3
:1022C0008001D4F804E0E268194360450160C2620D
:1022D000C0F828E005D042F60041C4F2010188426E
:1022E00001D16169016301214161002084F8461038
:1022F00084F83E1084F83F1084F8401084F84110B0
:1023000084F8421084F8431084F8441084F845108F
:1023100084F83D1010BD00007047000070470000B9
:1023200041B1082910D0042914BF00F1410200F185
:102330003F020BE090F83E20012A1CBF01207047AD
:10234000022280F83E2013E000F140021278012AB8
:102350001CBF012070470222082907D0042914BF9E
:1023600080F8412080F83F2002E000BF80F8402044
:10237000006801F01F010122036A02FA01F123EA59
:1023800001020262026A114340F6FF32C4F2000207
:10239000904201620EDCB0F1804F25D040F2004146
:1023A000C4F2000188421FD040F60001C4F20001CF
:1023B00018E000BF40F60041C4F20001884213D08B
:1023C00043F20042C4F2010242F600419042C4F2DC
:1023D000010101D088420ED1436C904243F4004386
:1023E000436401D0884206D1816801F007010629C3
:1023F00004BF00207047016841F001010160002026
:102400007047000010B5006842F60041C4F20101B7
:1024100040F2B0048842C2F200041AD040F6000133
:10242000C4F20001884218BF10BDD4E90501013192
:10243000A16103F039F849F69A1249F69913C9F6E1
:102440009912C3F6C97302F06BFA02F037FA6061B1
:1024500002340120207010BD70470000704700005A
:1024600070470000B0B582B0026805461068D168B8
:10247000546900F02F03202B01F0200306D12BB16B
:10248000284602B0BDE8B04000F056BB5FEA007CD1
:102490001EBF04F0010E01F4907414EB0E042DD154
:1024A0002B6B0840C10617D5012B15D100200190D8
:1024B000106801905068019001985069400625D439
:1024C000A88DE98DEB8D002B1CBF401A5FEA0041FF
:1024D00040F0CA8002B0B0BD010645D44006F9D52F
:1024E000D068202120F04000D060284685F83D10BB
:1024F00002B0BDE8B04000F0AFBA00BFC40718BFDB
:1025000011F4807442D1440746D44CE0A86B0168B2
:102510004B689CB2002CDDD0A98D8C42DAD2EB85C1
:102520008369202B17D0D16821F48071D160516963
:1025300021F001015161516921F0400151612021D7
:1025400085F83E1000212963D16821F01001D16087
:10255000FEF7B4FAA98DE88D081A81B2284602B0B8
:10256000BDE8B040FFF77ABF95F83D002128B1D112
:10257000A868B0F5805F03D12869002800F08C803E
:10258000286A411C2962007850608CE02C6C44F071
:1025900001042C64440706D5BEF1000F03D02C6C57
:1025A00044F002042C64840706D5BEF1000F03D06A
:1025B0002C6C44F004042C64BCF1000F06D553EAE3
:1025C0000E0303D02B6C43F008032B642B6C002B01
:1025D0003FF480AF0840800603D5284600F0ACFAEF
:1025E0002A685069296C00F0400001F00801401889
:1025F00032D0D06820F49070D060506920F0010093
:102600005061286B012803D1D06820F01000D06001
:10261000202085F83E00002028635069400615D52B
:10262000506920F040005061A86B78B142F62D311E
:10263000C0F600014163FEF765FA00283FF44AAF97
:10264000A86B416B02B0BDE8B0400847284602B015
:10265000BDE8B040FFF704BF2846FFF701FF0020A8
:10266000286402B0B0BD00BFD16821F49071D16080
:10267000516921F001015161202185F83E100021AE
:102680002963D16821F0100381B22846D36002B0DB
:10269000BDE8B040FFF7E2BE286A30F8021B6FF3D6
:1026A0005F2151602862E88C01380104E8847FF4DE
:1026B00011AFD06820F08000D060D06840F04000BA
:1026C000D06002B0B0BD0000002804BF01207047F8
:1026D00010B5044690F83D0028B9002084F83C006D
:1026E000204600F05FF8242084F83D002068D4E9FB
:1026F0000212C36823F40053C360036923F44053F8
:102700001A430261D4E904231143C268194341F218
:102710000C639A431143C1604169A26921F440717D
:10272000114343F60002C4F201029042416103D01A
:10273000FEF782FE02E000BFFEF792FE62681921FA
:1027400048439100B0FBF1F048F21F51C5F2EB1184
:10275000A0FB01235A096FF0630302FB030032233D
:1027600003EB0010A0FB0101F02303EA51132068E2
:1027700003EB0212C1F3431111448160016921F49A
:1027800090410161416921F02A014161C16841F430
:102790000051C16000202021206484F83D1084F89D
:1027A0003E1010BD70B586B040F60044C4F201047E
:1027B000006804F5305100268842049602D006B025
:1027C00070BD00BF41F21800C4F20200016802AD02
:1027D00041F480410160016801F480410191019957
:1027E000016841F0080101600068294600F0080016
:1027F0000190019840200290022003900320059050
:102800002046FEF75FFA8020CDE9020620462946E1
:102810000496FEF757FA0420C4F201000168002272
:1028200041F0E06141F00401016025200021FEF744
:10283000D1FB2520FEF7BEFB06B070BD2DE9F043AD
:1028400081B0044690F83E0020280BD10D460029A7
:102850004FF0010063D01746002A60D094F83C0086
:10286000012803D1022001B0BDE8F083012084F8E3
:102870003C004FF0000922201E46C4F8409084F826
:102880003E00C4F83090FEF727FBA785E785A168D6
:102890000746B1F5805F0BD1206900281CBF284690
:1028A0004D46A846054684F83C90E08D30B932E0AC
:1028B0004FF0000884F83C90E08D60B3701C3DD070
:1028C000002E69D0206800BF0168890606D4FEF793
:1028D00003FBC11B2068B142F6D975E055B1A16870
:1028E000B1F5805F0ED009B9216959B1406800F097
:1028F0007F0008E0406800256FF35F2028F8020B96
:1029000003E000BF406805F8010BE08D0138E08569
:10291000E08D0028D6D1202084F83E00002001B0B0
:10292000BDE8F083406800256FF35F2028F8020BB4
:10293000E08D0138E085E08D0028ECD0206801684A
:1029400089065FBF01685FEA816101685FEA8161B2
:1029500002D401688906F2D5002DE3D0A168B1F553
:10296000805F09D009B9216931B1406800F07F006A
:1029700005F8010BDCE700BF406805F8010BD7E75D
:10298000406800256FF35F2028F8020BE08D0138C6
:10299000E085E08D0028BED020680168890613D547
:1029A000002DEDD0A168B1F5805F09D009B921698A
:1029B00031B1406800F07F0005F8010BE6E700BF89
:1029C000406805F8010BE1E7C16821F4D071C160EE
:1029D000416921F001014161202084F83D0084F823
:1029E0003E00002084F83C00032001B0BDE8F083E5
:1029F000034690F83E0020280AD100294FF001003C
:102A000018BF002A00D1704793F83C00012801D17B
:102A10000220704700201863996222219A85DA8586
:102A2000186483F83E10196883F83C00CA6842F4C1
:102A30008072CA604A6942F001024A61CA6842F083
:102A40002002CA607047000040F2B000C2F20000ED
:102A5000012141707047000070470000FEE7000050
:102A6000FEE70000FEF73CFDFEE7000070470000B7
:102A700070470000FEF736BAB0B596B000240120CA
:102A8000CDE91144CDE90F440C9010904FF4802013
:102A90004FF48031022515900CA80B94CDE9094420
:102AA000CDE90744CDE90544CDE90344CDE901442E
:102AB000CDE90D14CDE91351FEF720FD20B1EFF360
:102AC000108072B6FEE700BF0F20CDE907054FF476
:102AD0008060CDE90A0407A800210994FEF7C6FB2F
:102AE00020B1EFF3108072B6FEE700BF0220019024
:102AF0000020039001A8FEF731FB28B1EFF310800E
:102B000072B600BFFEE700BFFEF790FC16B0B0BD86
:102B10007047000040F22420C2F20000FFF742B9E3
:102B200040F2FC20C2F20000FFF73CB9406A0021ED
:102B3000C185C184FFF794BC81B090F83E10222972
:102B400020D18368B3F5805F08D10169002941D0A5
:102B500000F128010A6803685B680AE0014651F841
:102B6000282F13B90369002BF5D003685B6803F0C5
:102B70007F0313700A6801320A60C18D01390A04AB
:102B8000C18501D001B070470168CA6822F02002F7
:102B9000CA60CA6822F48072CA604A6922F00102DF
:102BA0004A61202280F83E20026B012A1CD10022BB
:102BB0000263CB6823F01003CB600B68DB0605D5FE
:102BC00000920A680092496800910099818D01B0D5
:102BD000FFF744BC0168826A49686FF35F2122F8FD
:102BE000021B8262C9E700BF01B0FFF72DBF0000E2
:102BF00040F24430C2F20000FFF734BCFEE70000B0
:102C000098B040F2B00B40F60009C2F2000B00266B
:102C10001E207821C4F20109CBE90366CBE9140038
:102C2000CBE91611FEF76CF9FFF726FF41F2180009
:102C30000E96C4F202000168002241F020010160FA
:102C400001684FF4706801F0200114911499016833
:102C500041F010010160016801F010011491149914
:102C6000016841F004010160016801F00401149160
:102C70001499016841F00801016000684FF4706127
:102C800000F00800149014984846FEF71FF9202021
:102C900000240BAD0B90C1F2110448462946CDE942
:102CA0000C46FEF70FF88020CDE90B0402274846BA
:102CB00029460D97FEF706F84FF4A0700BA951C1F5
:102CC00009F500602946FDF7FDFF01200CA9C1C1EF
:102CD00048462946CDF82C80FDF7F4FF1720022145
:102CE0000022FEF777F91720FEF764F940F26C2016
:102CF000C2F200004FF0804140F2F3131796CDE985
:102D000015661396CDE91166CDE90F66CDE90D661E
:102D1000CDE90B66632280E84600C0E90336866190
:102D2000FEF72AFE20B1EFF3108072B6FEE700BF77
:102D30004FF48050149040F26C20C2F2000014A9AD
:102D4000FEF764FF20B1EFF3108072B6FEE700BF1C
:102D500040F26C20C2F20000FFF74AFA20B1EFF314
:102D6000108072B6FEE700BF40F26C200025C2F270
:102D7000000012A9CDE91255FEF7B4FD20B1EFF322
:102D8000108072B6FEE700BF6020CDE90B0540F26F
:102D90006C20C2F200000BA904220D950F95FFF7DD
:102DA000FFF828B1EFF3108072B600BFFEE700BF56
:102DB00040F26C20C2F20000FFF7ACF840F2B42001
:102DC0000021A9F58232C2F20000632340F2F3171A
:102DD0001791CDE915111391CDE91111CDE90F111D
:102DE000CDE90D11CDE90B11C0E90023C0E90217AF
:102DF00001618161FEF7C0FD20B1EFF3108072B672
:102E0000FEE700BF4FF48050149040F2B420C2F2AD
:102E1000000014A9FEF7FAFE20B1EFF3108072B69D
:102E2000FEE700BF40F2B420C2F20000FFF7E0F975
:102E300020B1EFF3108072B6FEE700BF40F2B4207D
:102E40000025C2F2000012A9CDE91255FEF74AFD95
:102E500020B1EFF3108072B6FEE700BF6020CDE92D
:102E60000B0540F2B420C2F200000BA90C220D9514
:102E70000F95FFF795F828B1EFF3108072B600BFF9
:102E8000FEE700BF40F2B420C2F20000FFF742F8B4
:102E900040F22420002109F51052C2F2000045F64C
:102EA000BF5309270E91CDE90C11CDE914114C4601
:102EB000C0E90023C0E90217C0E904118161FEF7EF
:102EC0005BFD18B1EFF3108072B6FEE74FF480504F
:102ED0000B9040F22420C2F200000BA9FEF796FEF0
:102EE00020B1EFF3108072B6FEE700BF40F224205D
:102EF0000026C2F2000014A9CDE91466FEF7F2FC28
:102F000020B1EFF3108072B6FEE700BF40F2A815C3
:102F1000C2F2000504F5E051284640F8101F4FF4B6
:102F2000807101274FF4602207730675C261C0E902
:102F300001610761FDF7E6FA20B1EFF3108072B688
:102F4000FEE700BF0320CDE90B0707200D9005F138
:102F500010000BA90A90FDF715FA18B1EFF31080D5
:102F600072B6FEE70A200B9002200C900A98002609
:102F70000BA90D96FDF706FA20B1EFF3108072B69B
:102F8000FEE700BF40F2443004F54051C2F20000B9
:102F90000C234FF4E13280E84600C0E90366C0E943
:102FA0000536C661FFF790FB20B1EFF3108072B6D3
:102FB000FEE700BF40F2FC200021A4F58032C2F2FF
:102FC000000045F6BF53C7270E91CDE90C11CDE99E
:102FD0001411C0E90023C0E9021701618161FEF705
:102FE000CBFC18B1EFF3108072B6FEE74FF48050BF
:102FF0000B9040F2FC20C2F200000BA9FEF706FE87
:1030000020B1EFF3108072B6FEE700BF40F2FC2063
:103010000027C2F2000014A9CDE91477FEF762FC84
:1030200020B1EFF3108072B6FEE700BF40F24438E3
:10303000C2F2000814A9404606224FF0FF33FFF702
:10304000FDFB40F26C20C2F200000421FFF768F99A
:1030500040F2B420C2F200000C21FFF761F940F207
:103060002420C2F20000FEF78DFD40F2FC20C2F2E7
:103070000000FEF787FD20464FF4807100222646AF
:10308000FDF724FF20464FF4007101224FF00109A3
:10309000FDF71CFF20464FF480610022FDF716FF6C
:1030A00020464FF400610122FDF710FF40F230107E
:1030B000C2F2000000F1480140460622FFF798FCEA
:1030C0000320CDE90B090A980BA90D9708E000BF72
:1030D00003200B9001200C9000200D900A980BA962
:1030E000FDF750F9002840F059850A9E3046FDF75B
:1030F0003FFC30460121FDF707FB3046FDF7FEF9A6
:10310000ABF806003046FDF799FCBBF8060001F06D
:103110009FFE46F266634FF06632C4F20A0301F086
:1031200023FF4FF600630022C4F2AF0301F0B4FCAA
:1031300001F0C4FBCBF860000A200B9001200C903A
:1031400000200D9030460BA9FDF71CF9002840F037
:1031500029850A9E3046FDF70BFC30460121FDF71C
:10316000D3FA3046FDF7CAF9ABF808003046FDF750
:1031700065FCBBF8080001F06BFE46F266634FF099
:103180006632C4F20A0301F0EFFE4FF6006300223C
:10319000C4F2AF0301F080FC01F090FB9BF800103B
:1031A000CBF86400002962D09BF8030090B1DBF8F3
:1031B000401041F2707747F6337301FB07F2CAF60D
:1031C000515382FB032301FB07314A1302EBD171F8
:1031D000CBF868109BF8041091B1DBF8482041F25D
:1031E000707647F6337702FB06F3CAF6515783FB36
:1031F000073702FB0672531303EBD272CBF86C2035
:10320000A0B9DBF844004EF69007CFF6FF7747F6FB
:10321000337300FB07F2CAF6515382FB032300FB12
:103220000730421302EBD070CBF86800A1B9DBF88D
:103230004C004EF69003CFF6FF7347F6337200FB57
:1032400003F1CAF6515281FB021200FB0320411325
:1032500001EBD070CBF86C000020CBF84400CBF829
:103260004C00CBF84000CBF848008BF800009BF8EE
:103270000100002800F0D08040F23011C2F20001BD
:1032800031F8480F0F46CBF8700001F0CAFD40F24C
:103290000008C4F259080022434601F0FDFB46F243
:1032A00066634FF06632CBF6F67301F039FB01F03E
:1032B00005FB798840F20002C2F2000290610846E4
:1032C00009971646CBF8741001F0ABFD0022434677
:1032D00001F0E2FB4CF6CD424CF6CC43CCF6CC42AE
:1032E000CBF6F07301F01CFB01F0E8FACBF82000FC
:1032F000BF88F069CBF8787002F0D6F806460890DF
:1033000038468846079102F065FA02F0CDF842F699
:10331000EA6AC5F2444A42F2FB135246CCF2090370
:1033200001F022FE48F200030022C4F2660301F01D
:10333000B3FB42F2FB13CDE905103046414652463D
:10334000C4F2090301F0ECFA42F2FB135246C4F254
:1033500019031F4601F018FA00220023064688468A
:1033600002F053F981463046414652463B4601F051
:10337000D7FA42F2FB135246CCF20903B9F1000F1F
:1033800004BF3046414601F0CBFA52463B46B946AF
:1033900001F0FAF9DDE9053201F0C2FA42F2FB135D
:1033A0005246C4F2090301F0BBFA52463B4601F013
:1033B000EBF90022002306460F4602F026F980466C
:1033C0003046394652464B4601F0AAFA0B4642F2C5
:1033D000FB1102465046C4F20901B8F1000F04BFC8
:1033E00032463B4601F072FF02460B46DDE907100C
:1033F00001F096FA01F062FA40F20001C2F2000117
:10340000C86140F244300999C2F200000622FFF779
:10341000EFFA00208BF80100DBF8140002F044F80A
:1034200001F064F943F23336C3F6D3764FF033320A
:10343000334601F099FD01F041FADBF81410CBF8A6
:103440003800084602F030F801F0E8F94FF0333266
:10345000334601F089FD01F031FADBF81410CBF8A6
:103460003C00084600F0A2FB0646CBF83400DBF82F
:10347000380040F23012C2F200024FF07E5111606B
:1034800002F012F807463046884602F00DF801F0C7
:103490002DF93A46434601F067FD8046DBF83C00D3
:1034A000DBF83470894601F0FFFF064638468A464D
:1034B00001F0FAFF01F0B2F93246534601F054FD33
:1034C00002460B464046494601F02AFA01F0F6F959
:1034D000DBE90D6140F23012C2F200025060084692
:1034E00001F0E2FF07463046884601F0DDFF01F0BB
:1034F00095F93A46434601F037FD8046DBF83C003B
:10350000DBF83470894601F0CFFF064638468A461C
:1035100001F0CAFF01F0EAF83246534601F024FDFB
:1035200002460B464046494601F0D0FE01F0C6F97E
:1035300040F23011C2F20001886040F20001C2F294
:103540000001D1E90607DBF8208001F0ADFF064657
:103550003846894601F0A8FF01F0C8F832464B46CC
:1035600001F002FD814640468A4601F09DFF064675
:1035700040F20000C2F20000C0690F4601F094FF63
:1035800001F04CF932463B4601F0EEFC02460B4698
:103590004846514601F0C4F901F090F940F230116B
:1035A000C2F20001C86040F20001C2F20001D1E99C
:1035B0000607DBF8208001F077FF0646384689468B
:1035C00001F072FF01F02AF932464B4601F0CCFCC3
:1035D000814640468A4601F067FF064640F20000F9
:1035E000C2F20000C0690F4601F05EFF01F07EF8F4
:1035F00032463B4601F0B8FC02460B46484651466F
:1036000001F064FE01F05AF940F23011C2F20001FB
:103610000861FDF761FCDBF83010401A332818D33D
:1036200040F20001C2F20001DBF83400C969D5E9BB
:10363000026702F0B3F901F037FF02460B4630464D
:10364000394601F06DF9C5E90201FDF745FCCBF8FB
:10365000300040F23018C2F20008D8E900A040F271
:1036600000020290D8E90270C2F200020390166BC9
:10367000DBF83400D2E90719536A926A049308927E
:1036800002F08CF90146304602F0BCF80146504683
:1036900001F036FFD8F810100990C8F81400384629
:1036A0004646079102F07AF98046B061484601F03B
:1036B000FBFE02460B4601F057FC064640460F460D
:1036C00001F0F2FE02460B4601F04EFC02460B46AC
:1036D0003046394601F0FAFD01F0F0F8014640F2BB
:1036E00030170898C2F20007F961059102F08AF8D4
:1036F00001464046CDF8188002F084F80146504655
:10370000CDF820A002F07EF80146029801F0F8FE04
:1037100003998246386202F041F9064678620498BD
:1037200001F0C2FE02460B4601F01EFC0746304681
:103730008946B04601F0B8FE02460B4601F014FC83
:1037400002460B463846494601F0C0FD01F0B6F886
:103750009BF80210814640F23010C2F20000C0F81F
:103760002890C9B1DBF82410504602F017F901F097
:103770009BFE49F69A1249F69913C9F69912C3F6B7
:10378000C97301F089F901F099F800218BF8021052
:10379000CBE909A002E000BFDBF8280001F084FEBD
:1037A000019140F20001C2F200014A6B8246C86AF0
:1037B00003928A6BC96B02920491494602F022F887
:1037C0000146404602F01EF801F06EFEDDF8208052
:1037D000064640460F4601F067FE02460B4601F0E2
:1037E000C3FB32463B4601F0BFFB019B524601F052
:1037F00097F80F4605990646484601F00DFF0299D5
:1038000002F000F80146069801F0FCFF0146404630
:1038100001F0F8FF01F048FE02460B4630463946FB
:1038200001F07EF801F04AF840F23018C2F20008C8
:10383000099F0646C8F82C000798394601F0E2FFB8
:1038400081460398314601F0DDFF0146484601F00C
:1038500057FE049906463846C8E90C6701F0D2FFC6
:103860003146804601F04CFE40F20001C2F20001F8
:103870000F6C394601F0D0FE01F090FF81463046D2
:10388000414602F08BF8394601F0C6FE01F086FF92
:103890000646484601F0C5FA49F69A1741F69918C6
:1038A000C9F69917C4F223083A46434601F05CFB77
:1038B00001F088FACBF85000304601F0B2FA3A46EF
:1038C000434601F051FB01F07DFACBF85400FDF7BF
:1038D00003FBDBF82C10401A1528C0F0E780DBE969
:1038E0001401DBF86820DBF86C3040F23016801AE7
:1038F000A1EB030AC2F20006C6E90E0A01F091FA32
:10390000D6E91823D6E914790990089101F0DEFC74
:1039100006468846384649463246434601F000F896
:1039200040F23012C2F20002C2E9140141F27B42BD
:1039300047F6E12330464146C4F2AE72C3F69473B3
:1039400001F0AAF840F23019C2F20009C9E91601E3
:10395000504601F066FAD5E9002380468A4601F018
:10396000B5FC0646D9E91A020F46114632463B46D7
:1039700000F0D6FF41F27B4247F6E123C9E91A0184
:1039800030463946C4F2AE72C3F6947301F084F83F
:10399000C9E91C01DDE90810C5E9008AC9E9180177
:1039A000FDF79AFACBF82C00D9E90E02D9E9147A7E
:1039B000089201F00FFF40F20002C2F2000201463D
:1039C000D2E90003D2E902620793099201F01AFFDB
:1039D00001F06AFD80463046894601F065FD0246E9
:1039E0000B463846514601F0BFFA42464B4600F0BE
:1039F00097FF804640F20000C2F2000000690F46C7
:103A000001F052FD40F2301AC2F2000A0246DAE931
:103A100016030E461946334601F0A6FA02460B4637
:103A20004046394600F07CFF01F0CCF98046CAF8E8
:103A30004000089801F0CEFE0146079801F0E2FE32
:103A400001F032FD07460998894601F02DFD024636
:103A5000DAE91A030E461946334601F085FA3A466A
:103A60004B4600F05DFF814640F20000C2F20000CC
:103A700040690F4601F018FD0246DAE91C030E46C4
:103A80001946334601F070FA02460B46484639465D
:103A900000F046FF01F096F9DBE90312CAF8440092
:103AA00001EB08071044CBE9037001E0DBF80C7070
:103AB000B7F5FA7F04DB40F2F317CBF80C700AE09D
:103AC00017F5FA7F04DC6FF4F977CBF80C7007E098
:103AD000B7F1FF3F04DD4FF00108002204E000BF12
:103AE0007F424FF00008012220464FF480612646B5
:103AF000FDF7ECF920464FF400614246FDF7E6F988
:103B000040F26C20C2F2000000688763DBF810709E
:103B1000B7F5FA7F04DB40F2F317CBF810700AE038
:103B200017F5FA7F04DC6FF4F977CBF8107007E033
:103B3000B7F1FF3F04DD4FF00108002204E000BFB1
:103B40007F424FF00008012220464FF48071264644
:103B5000FDF7BCF920464FF400714246FDF7B6F977
:103B600040F2B420C2F2000000680764DBF85000A5
:103B700030B9DBF80C0000281CBF0020CBF80C008B
:103B8000DBF8540000287FF4A3AADBF8100000281B
:103B90001CBF0020CBF81000FFF79ABAEFF310809B
:103BA00072B6FEE7EFF3108072B6FEE72DE9F04F34
:103BB00083B001F079FC04460D4600F097FD0646FF
:103BC0000F462046294600F029FE024681F00043B8
:103BD0003046394600F0BCFC00F070FE40F2B00107
:103BE000C2F20001496B0446084601F05DFC07463D
:103BF000029020460D46019101F056FC42F6EA661D
:103C0000C5F2444642F2FB1383460091C4F2090315
:103C10003846294632461D4600F082FE42F2FB1A23
:103C2000C4F2190A3246534600F0AEFD00220023CA
:103C30000446884601F0E9FC81462046414632466A
:103C4000534600F06DFE42F2FB13CCF209033246FC
:103C5000B9F1000F04BF2046414600F061FE324634
:103C6000534600F091FD009B5A4601F02FFB32466F
:103C70002B46A84600F054FE3246534600F084FD21
:103C80000022002304460D4601F0BFFC07462046F3
:103C900029463246534600F043FE02460B46304664
:103CA0004146002F04BF22462B4601F00FFB02467F
:103CB0000B46DDE9011000F033FE00F0FFFD03B01C
:103CC000BDE8F08F490050EAC12018BF04204A0D1A
:103CD00018BF40F0010040F2FF72B2EB515F08BF25
:103CE00040F00200012808BF052070472DE9F74F7A
:103CF000144694B00021C4E902111599079121F0EE
:103D00000045C9498D4206DC1599C4E9000117B088
:103D10000020BDE8F08FC549DFF814A3A9423CDDBF
:103D20000799C44E0029C44FC44A1599534619DD5A
:103D300001F0CCFA554506D0C14AC24B01F0C6FA93
:103D4000C4E900010AE04FF0D352BE4B01F0BEFAC5
:103D500032463B4601F0BAFAC4E9000117B001202F
:103D6000BDE8F08F00F0DCFD554506D0B44AB54BF8
:103D700000F0D6FDC4E900010AE04FF0D352B14B88
:103D800000F0CEFD32463B4600F0CAFDC4E900011A
:103D900017B04FF0FF30BDE8F08FAB49A94215993D
:103DA00078DB21F0004183468846A84AA84B01F001
:103DB000DBF80022A74B00F0B3FD01F003F80990F7
:103DC00001F02FF806460F469C4A534601F0CCF806
:103DD00043465A4601F06EFA80468A46984A994B05
:103DE0003046394601F0C0F82A0D01250B924246B3
:103DF000534601F05FFA032DC4E9000139D00B9856
:103E0000C1F30A51401A05EB45111139814230DAEC
:103E10009148C346784400EB0510CDF80CA00C90F7
:103E2000D0E900233046394601F09EF802460B46A1
:103E3000049106905846039901F048FA80468A4654
:103E400002460B465846039901F040FA049B069A35
:103E500001F03CFA83460C9803913946D0E90223DD
:103E6000304601F081F85A46039B01F02FFA6D1C91
:103E7000BDE707980028A2BF099817B0BDE8F08FEA
:103E8000616881F000416160099817B04042BDE867
:103E9000F08FFFE784461598C1F31301C0F30A5071
:103EA000A0F2F5304FEA601800F01F06C6F12000BE
:103EB000139000200690079041F4801E05206D4667
:103EC00076B1664A08EB00017A4452F8213002EBE1
:103ED0008101B3404A68139922FA01F1194305E0C0
:103EE0005F4908EB0002794451F82210A1FB0E272C
:103EF000A1FB0C131A449A4234BF0123002303EBA5
:103F0000070A05EB8003D3E901B70F448F4234BFA2
:103F10000121002193448B4411B1934502D903E060
:103F2000934501D2012100E00021C3E901B75144CA
:103F300045F82010011EA0F10100C1DC0298059F88
:103F400000F10050800F12900298DDE903568000C6
:103F500000F067FF834628460D9100F079FF6FF06F
:103F60001D0201F0C2FDCDE90E01304600F070FFE8
:103F70006FF03D0201F0B9FD80468A46384600F0F8
:103F800067FF6FF05D0201F0B0FD07464246534601
:103F9000119100F0C5FCDDE90E2300F0C1FC5A468A
:103FA0000D9B00F0BDFC00250E465A4628460D9B91
:103FB00001F08CF9DDE90E2301F088F94246534601
:103FC00001F084F93A46119B01F074F9DFF898A0EA
:103FD000244A534600F0C8FF07468846234A244B2C
:103FE0003146284600F0C0FF3A46434600F098FCB0
:103FF000074688464FF0A84253463146284600F00F
:10400000B3FF3A46434600F08BFC159A12F0004F7E
:1040100004D0129A81F0004152421292C4E9000188
:10402000129817B0BDE8F08FFB21E93F7CD9024020
:10403000FB21F93F7370032E8A19A33B0000405403
:104040003163621A61B4D03DFB21394183C8C96D27
:10405000305FE43F0000E03F301E0000AC1D000078
:104060008E1D0000182D4454FB21F93D3326A61166
:10407000460B113C2DE9FF4D21F0004807460C4648
:10408000B8F1795F08DA00F09DFE002801BF00203A
:10409000324904B0BDE8F08D3A4623461046194631
:1040A00000F062FF054602462D480E460B460621EB
:1040B000784400F05DF82A46334600F055FFDDE90C
:1040C000022382468B463846214600F04DFF0446C7
:1040D0000F4652465B462846314600F045FF2246D1
:1040E0003B4601F0F3F807468A464FF0FF32284678
:1040F000314601F0FAFC1B4A90450ADA3A4653462B
:1041000001F0E4F804B00022BDE8F04D134B01F0DB
:10411000D1B8154A4245A8BFA8F500154FF00004D4
:10412000B8BF124D22462B4601F0D0F8064688460D
:1041300022462B460020094901F0C8F804460D46E6
:104140003A4653463046414601F0C0F804B0224694
:104150002B46BDE8F04D01F0ADB800000000F03F87
:104160005C1B00003333D33F0000E93F0000D23F27
:104170002DE9F0414F1E00EBC7010446D1E90001D3
:1041800015461E4637F006020DD02A46334600F08B
:10419000EBFE7F1E04EBC703D3E9002300F0C0FB56
:1041A00037F00602F1D1022F25D0042F13D0062FAD
:1041B00018BFBDE8F0812A46334600F0D5FED4E9A9
:1041C0000A2300F0ADFB2A46334600F0CDFED4E9C9
:1041D000082300F0A5FB2A46334600F0C5FED4E9CB
:1041E000062300F09DFB2A46334600F0BDFED4E9CD
:1041F000042300F095FB2A46334600F0B5FED4E9CF
:10420000022300F08DFB2A46334600F0ADFED4E9D0
:104210000023BDE8F04100F083BB00002DE9FF4D15
:10422000054621F0004084B00C46B0F1795F0BDA0E
:104230002846FFF747FD042808BF00F071F828461C
:1042400008B02146BDE8F08D2A460B46104600F026
:104250008BFE06460F462A46234600F085FE804622
:1042600026488A4632463B4605217844FFF780FFC0
:1042700083461098029160B3214A224B4046514632
:1042800000F072FECDE900015A4640465146029BBD
:1042900000F06AFE82468846DDE906014FF0FF32F3
:1042A00001F023FC5246434601F010F832463B46EB
:1042B00000F05AFEDDE9062301F008F8DDE90023ED
:1042C00001F004F808B02A462346BDE8F04D00F09E
:1042D000F1BF0B465A463046394600F045FE084AC3
:1042E000084B00F01DFB4246534600F03DFE08B06F
:1042F0002A462346BDE8F04D00F012BBAA1A000082
:10430000495555555555C5BF012201F0EEBB00F08A
:1043100007BB002213461046114600F0BDBB00004B
:10432000024A0020110701F0E0BB000001FDFFFF81
:104330002DE9F84F04460D4621F0004000917349E5
:10434000814211DC7249884201DC06D12CB1204641
:104350002946BDE8F84FFFF7D7BF6E48002DCCBF08
:104360006D496E49BDE8F88F6D49814211DD6D4997
:104370008142D8BF4FF0FF366DDD20462946FFF75A
:10438000A1FC042808BFFFF7CBFF20462946BDE863
:10439000F88F6549654F25F00045814233DD64495A
:1043A000814219DD002632464FF0804320462946DF
:1043B00000F0B6FA80468A4601222046294601F0DE
:1043C00094FB00223B4600F081FF4246534600F03A
:1043D00063FB04460D463EE001260022BA463B46FA
:1043E0002046294600F09CFA80460F46002253469C
:1043F0002046294600F06AFF42463B4600F04CFB4F
:1044000004460D4627E04B4981421BDDDFF828A119
:104410000226002253462046294600F0A5FD002230
:104420003B4600F07DFA80460F4600225346204668
:10443000294600F04BFF42463B4600F02DFB044668
:104440000D4608E0032622462B4600203B4900F09B
:1044500023FB04460D4622462B461046194600F023
:1044600083FD8B46824602460B4600F07DFD0746E3
:104470000246334888460B4606217844FFF778FE0B
:1044800052465B4600F070FD82462E488B463A4607
:10449000434605217844FFF76BFE3A46434600F059
:1044A00063FD02460B46002E504659460CDA00F0DA
:1044B00037FA22462B4600F057FD01B022462B4624
:1044C000BDE8F04F00F0F6BE00F02AFA22462B4677
:1044D00000F04AFD1C4A7A4402EBC603D3E90023EC
:1044E00000F0F4FE22462B4600F0F0FE174A7A4414
:1044F00002EBC603D3E9002300F0DCFE009A002A99
:10450000B8BF81F00041BDE8F88F00000000104402
:104510000000F07F182D4454FB21F93FFB21F9BF27
:104520000000DC3F0000203E0000F33F0000F03FB1
:104530000000E63F008003400000F83F0000F0BFAD
:104540006217000020170000BE160000861600004B
:104550002DE9F04D9446CCF1000423F000464CEADE
:104560000404594F46EAD4749A46884621F0004222
:10457000BC4206D8454240EA050442EAD474BC4233
:1045800004D9BDE8F04D6246FFF7C1BEAAF140551F
:10459000A5F17F6555EA0C040BD0022404EAAA7445
:1045A0004A4DDFF82CE144EAD87452EA000B04D0FB
:1045B0000CE0BDE8F04DFFF7BBBE002C14BF012C92
:1045C000BDE8F08D022C30D0032C32D056EA0C0B13
:1045D0000AD0BE4220D1BA4209D126F0804622F04C
:1045E00080423346114617E000291ADB25E0DFF848
:1045F000E4B0FB44002C04BFDBE90001BDE8F08D12
:10460000012C02BFDBE9000181F00041BDE8F08D23
:10461000022C0AD0032C0CD0BA4212D1B8F1000FF0
:104620000BDA2A482C49BDE8F08D28462B49BDE815
:10463000F08D28467146BDE8F08D24482849BDE834
:10464000F08D921B12153C2AC4BF204F244E10DC63
:10465000BAF1000FBEBF12F13C0F00273E4608DB47
:10466000624600F019FA21F00041FFF761FE0746AB
:104670000E4694B1012C08BF86F000460DD0194AB1
:10468000194B022C3846314615D000F01FFE2A4641
:10469000BDE8F04D114B00F019BE0022134638461C
:1046A000314600F053FB04BF0220FBF7B7FD38464C
:1046B0003146BDE8F08D00F009FE2A46BDE8F04D18
:1046C000064B00F0F7BD00000000F07F182D4454A9
:1046D000FB2109C04A160000FB21F9BFFB2109405C
:1046E000FB21F93F075C143326A6A13C00B5244BFF
:1046F00021F0004287B09A42DCBF0022134629DD38
:10470000204B9A4208D140B94FF00100FBF786FDDB
:10471000FFF7FFFD07B000BD03DBFFF7F5FD07B0B6
:1047200000BD02AAFFF7E2FA10F0030104BF0DF189
:10473000080C9CE80F000DD0012001290ED00229A1
:1047400014D00DF1080C00909CE80F00FFF766FDF7
:1047500007B000BDFFF78EFC07B000BD0DF1080CDF
:1047600000909CE80F00FFF759FD05E00DF1080CE3
:104770009CE80F00FFF77EFC07B081F0004100BD10
:10478000FB21E93F0000F07F70B514461D460E4640
:10479000002814BF01210021314321F00041C1F163
:1047A0007F6101F1E041C90F16D1002C14BF012136
:1047B0000021294321F00041C1F17F6101F1E04175
:1047C000C90F09D11449B1EB460F08BF00281CD00E
:1047D000690008BF002C18D0314600F0BDFC02462D
:1047E00040F2FF7030EA11500DD0F017B0EBE17FCE
:1047F00009D0084665F31E0084460B4620466146F4
:1048000000F058FD0246104670BD0120FBF706FD82
:10481000BDE87040FFF77DBD0000E0FF00B5254B0F
:1048200021F0004287B09A4203DC00221346009236
:104830002BE0214B9A4208D140B94FF00100FBF721
:10484000EDFCFFF766FD07B000BD03DBFFF75CFD85
:1048500007B000BD02AAFFF749FA10F003014FF0BC
:1048600001000DD0012914D002291AD00DF1080C35
:104870009CE80F00FFF7FEFB07B081F0004100BD90
:104880000DF1080C00909CE80F00FFF7C7FC07B083
:1048900000BD0DF1080C9CE80F00FFF7EBFB07B023
:1048A00000BD0DF1080C00909CE80F00FFF7B6FC6E
:1048B000E2E70000FB21E93F0000F07F21F0004229
:1048C00001F00043A2F16052B2F5801F28BFD2F17F
:1048D0007F6C0BD95FEA001C43EAC20242EB5070C6
:1048E00018BF704728BF20F001007047B2F5801F45
:1048F000BCBF184670474FEA410C1CF5001F02D29E
:10490000084601F046B870B500F0D8FB00000089F9
:10491000FFF7F6BF4FF00040A0F5800070470000A1
:1049200010B591EA030F48BF83F0004300F1D6842D
:10493000841A71EB030C05D2121943EB0C03001B14
:1049400061EB0C014FEA1154A4EB135CDFF81CE19E
:104950001EEA430F18BF9EEA445F00F0748021EA0C
:10496000045123EA0E0343F48013DCF1200E32D30A
:1049700022FA0CFE10EB0E0023FA0CFE41EB0E01A6
:10498000CCF1200E03FA0EFE10EB0E00CCF1200E3F
:1049900051F10001B1F5801F32D201EB045112FA3E
:1049A0000EF2BDE8104058BF7047401C38BF5FEAA8
:1049B000420218BF7047002814BF20F0010041F1E7
:1049C00000014FEA410313F5001F38BF7047A1F102
:1049D000C04100F069BC012A43EB0302ACF1200C9A
:1049E000DCF11F0E32BF4FF0000E23FA0CF310EB78
:1049F000030041EB0451B4EB115FD0D0A1EB0451A3
:104A000001F58011490801EB04515FEA30000ED333
:104A100050F1000038BF12FA0EFE08D1BDE8104078
:104A2000C9E7401C38BF5FEA4202CAD1C3E7BDE80C
:104A300010404FEA410313F5001F38BF7047A1F142
:104A4000C04100F031BC9EEA445F08D011EA5E0F1D
:104A5000BDE8104004BF01F0004100207047BDE8F0
:104A6000104070B500F02AFB64FBBE3E0000E0FF82
:104A700002494FF0000001F006B800BF0000F87FC7
:104A8000491058BFC1F140415B1058BFC3F14043CA
:104A90008B42EFF3008070472DE9C04130B4DFF85E
:104AA000A4C23CEA111418BF3CEA131400F0ED80D4
:104AB0001CEA111481EA030544EAD57418BF1CEA04
:104AC000131500F0C880A4EB050404F17F7404F50D
:104AD00000344FF0004545EAC12145EAC32341EACD
:104AE000505143EA52534FEAC0204FEAC222994242
:104AF00008BF904200F09D804FEA13650FF2441604
:104B0000765D4FEA134506FB05F7C7F1807706FB94
:104B100007F74FEAD737A7FB03687642A7FB06CE15
:104B2000C8F5803838BFA8F1010807FB08E6A6FBE6
:104B3000028C4FF0000EE6FB03CEDCF1000CCEF150
:104B4000004E38BFAEF1010EA6FB0C584FF0000727
:104B5000E6FB0E87A1FB08C6A0FB07CE16EB0E06F0
:104B60004FF0000545F10005E1FB076515F1E04E4A
:104B70007EBFA4F580345FEA46066D4116F18007DA
:104B800045F100054FEA172747EA05674FEA152563
:104B90004FEA0666A6F1DE46B6F1805F20D93846B8
:104BA00005EBC47124F0010C01EB0C11BCF1FE6F9C
:104BB00002D8F0BCBDE8008124425CBF01F5801E34
:104BC0009EEAC47F02D4F0BCBDE80081244200F11B
:104BD0003980A1F1C041F0BCBDE8004100F064BBE8
:104BE0004FEAD02040EA41504FEAD1214FEAD22289
:104BF00042EA43524FEAD323A7FB028607FB036630
:104C000005FB02661EEA0E0F58BFA6EB0056B6EB78
:104C100000564FEA520E4EEAC37E18EB0E0E56EBCC
:104C2000530EBCD518EB02085E417F1C55F1000500
:104C3000B5E74FF480154FF000074FF000064FF036
:104C40000008ACE701F1C04101F000414FF0000065
:104C5000F0BCBDE800810CEA131511EA0C1F00D06E
:104C60000CE013EA0C1F00F026804FF0000081EAF0
:104C7000030101F00041F0BCBDE80081F0BCBDE8DB
:104C8000004181EA030100F00FBBF0BCBDE8004128
:104C900070B500F013FA00BF097EFC3E00F007B8C3
:104CA0004FF0000081EA030101F00041704781EA02
:104CB000030100F0F9BAF0BCBDE8004122494FF011
:104CC00000007047FFFDFBF9F7F5F4F2F0EEEDEBB5
:104CD000E9E8E6E4E3E1E0DEDDDBDAD8D7D5D4D3FA
:104CE000D1D0CFCDCCCBCAC8C7C6C5C4C2C1C0BF46
:104CF000BEBDBCBBBAB9B8B7B6B5B4B3B2B1B0AF4C
:104D0000AEADACABAAA9A8A8A7A6A5A4A3A3A2A12F
:104D1000A09F9F9E9D9C9C9B9A99999897979695EA
:104D200095949393929191908F8F8E8E8D8C8C8B86
:104D30008B8A89898888878786858584848383820E
:104D4000828181800000FF070000F87F51EA030C98
:104D500017D41CF5801F58BFBCF5801F00F10680DA
:104D6000994218BF704708BF9042704707D711F5A6
:104D7000801F58BF13F5801F19D49942704789428C
:104D800070471CF5801F08D5BCF5801FF7D58B42F6
:104D900018BF704708BF824270474FF4001C1CEBDD
:104DA000410F38BF1CEB430F01D28B42704770B5E7
:104DB00000F084F9922449004FF000514FF08053E5
:104DC000FFF75EBE4FEA41034FEA5353A3F58063FA
:104DD000D3F11E03C8BFD3F1210C0CDD4FF000420C
:104DE00042EAC12242EA505232FA03FC8CEAE17CE8
:104DF000ACEBE1707047102BC4BF0020704703F587
:104E0000787CBCF1FF3F04D06FF0004282EA2100C1
:104E1000704770B500F052F9499224800020704725
:104E2000F2E710F0004248BF4042B0FA80F310FAB7
:104E300003F10AD0C3F11D0303F5806302EB0352B3
:104E40004FEA415002EBD12170474FF0000070470C
:104E5000B0FA80F310FA03F10AD0C3F11D0303F591
:104E600080634FEA03524FEA415002EBD121704771
:104E70004FF000007047000051EA030C17D41CF5F6
:104E8000801F58BFBCF5801F00F10680994218BFF3
:104E9000704708BF9042704707D711F5801F58BF71
:104EA00013F5801F19D499427047894270471CF549
:104EB000801F08D5BCF5801FF7D58B4218BF7047FF
:104EC00008BF824270474FF4001C1CEB410F38BFF3
:104ED0001CEB430F01D28B42704770B500F0EEF827
:104EE000922449004FF080514FF00053FFF7C8BDA6
:104EF00051EA030C17D41CF5801F58BFBCF5801F66
:104F000000F10680994218BF704708BF9042704771
:104F100007D711F5801F58BF13F5801F19D4994288
:104F20007047894270471CF5801F08D5BCF5801F6B
:104F3000F7D58B4218BF704708BF824270474FF4C5
:104F4000001C1CEB410F38BF1CEB430F01D28B42FE
:104F5000704770B500F0B2F8922449004FF000514C
:104F60004FF08053FFF78CBD70B5DFF848C11CEAE5
:104F7000111E1EBF1CEA13159EEA0C0F95EA0C0FBA
:104F800000F06F8081EA03044EEAD47EAE4421EA49
:104F90004C1123EA4C1341F4801143F48013AEF119
:104FA0007F7EA1FB024CA0FB0365361955EB0C0577
:104FB000A1FB034C4CF10003A0FB021C16EB0C06FA
:104FC000654153F10003094218BF46F0010613F48E
:104FD000007F0BD14FEA03314FEA053041EA15510A
:104FE00040EA165034036FF003020AE04FEAC3218F
:104FF0004FEAC52041EA555140EA5650F4026FF09D
:10500000020202EB2E4201EB025585EACE710AD074
:105010005FEA440C18BF24F0004450F1000041F155
:10502000000120EAD47040F2FE7C624500D270BDDF
:10503000A84214BF4FF080444FF04044002E08BFF8
:105040000024BEF1806FA8BFA1F1C041BDE870404F
:1050500080F22A8101F1C04101F000414FF00000CF
:1050600070470CEA13159EEA0C0F18BF95EA0C0F57
:1050700006D081EA030E4FF000000EF0004170BD33
:1050800000F01CF88900013E00F007B800F009B8F4
:105090004FEA430C5FEA5C5C08D081EA030100F050
:1050A00003B94FEA410C5FEA5C5CF6D102494FF06C
:1050B000000070470000FF070000F87F0EF1020EAD
:1050C0002EF0030E5EF8046B364205D4012A43EB42
:1050D000030515F5001F12D8012841EB010C1CF542
:1050E000001F0CD80ED14FEAD17C0CEB4C0C0CF10C
:1050F000020C15F5001F08BF4CEBD37C04E04FF009
:10510000080C01E04FEAD37C0CEB4C0526FA05F6BF
:1051100006F00706B6F1040C06D20EEB860CBDE8CD
:1051200070404CF0010C6047DFE80CF0090B020204
:105130004FF00041A1F500214FF0000070BD19466D
:105140001046012851EB010418BFD4F5001484BFA8
:10515000002001F0004170BD70B5DFF844C13CEAA9
:10516000111418BF3CEA131500F08F8011F1004FA5
:105170000CEA11141CEA131568BF45F0050518BFA9
:1051800011EA0C1F00F0798021EA4C1123EA4C133C
:1051900041F4801143F480132E46A5F58035AC42CE
:1051A0003DDDA4F58036801A994109D54042C1F110
:1051B000000134BFB1F10101B1F1000185F0010539
:1051C00011F4F01F08D011F4801FE8D1400041EB2A
:1051D0000101A4F58034F6E721F00041B1FA81F62F
:1051E000202E04BFB0FA80FE0EF12006A6F10B06B9
:1051F000A4EB0644B6F1200E0CD2C6F1200E01FA43
:1052000006F120FA0EF641EA0601CEF1200600FA78
:1052100006F003E000FA0EF14FF00000BFE750EA9D
:10522000410E23D04FEA244EBEEB254F0FDB9942AF
:1052300008BF904204D00AD3520043EB0303B0E707
:105240004FEA1646B6EB144F08BF85F00105B4F5DA
:10525000803401EB041181EAC57100DB70BD01F1FE
:10526000C04101F000414FF0000070BD4FEA4571B0
:105270004FF0000001F0004170BD1CEA131F09D07F
:105280004FF0000001F0004170BDFFF717FF00BFB5
:10529000EDFFFF3EBDE8704002494FF0000070474F
:1052A0000000FF070000F87F0808A0F500114FEA92
:1052B0003101704710B591EA030F81F000413FF5CD
:1052C00037AB83F0004300F009B8000010B591EA55
:1052D000030F48BF83F000433FF52AAB841A71EBFC
:1052E000030C07D28CF0004C121943EB0C03001B8B
:1052F00061EB0C014FEA1154A4EB135CDFF8A4E15D
:105300001EEA430F18BF9EEA445F00F0B48021EA12
:10531000045123EA6E035242C3EB6E0338BF5B1E97
:10532000DCF1200E25D322FA0CFE10EB0E0043FA1E
:105330000CFE41EB0E01CCF1200E03FA0EFE10EB39
:105340000E00CCF1200E51F1000129D401EB0451E3
:1053500012FA0EF2BDE8104058BF7047401C1CBF47
:10536000B2F1004F704700280CBF491C20F001002B
:10537000704712EB020E43EB030218BF4FF0010E11
:105380004EEA4202ACF1200CDCF11E0E56D943FA73
:105390000CFE10EB0E00CCF11E0E51F1FF31D5D5F5
:1053A0000EF1010E12FA0EFE404141EB010101EB3C
:1053B000445C5FEA5C5C10D901EB045110EBDE70D9
:1053C00038BFBEF1004FBDE8104018BF704700283D
:1053D0000CBF491C20F00100704734D24FEAD42C96
:1053E00024F4006411F500111BD0B1FA81F20B3ADC
:1053F000A41AA41ED2F12003914030FA03F31943FA
:10540000904001EBCC7101EB0451002CBDE8104041
:10541000A8BF704701F1C04101F000414FF000000A
:105420007047B0FA80F310FA03F102D1BDE81040E2
:105430007047E41A173C4805C90AE2E701EB04513A
:10544000BDE81040704749104FEA300001EB0451AD
:10545000BDE8104002E04FF0000170474A0008BF6D
:105460000042F8D0B2F5001F28BF704701F000419C
:105470004FF0000070479EEA445F07D011EA5E0FCC
:10548000BDE8104004BF002100207047BDE8104077
:1054900070B5FFF713FE00BF40DFF63E104683F005
:1054A000004170470000E0FF43004FEAD30C4FEA91
:1054B0003C0C43401FBF40070CF1605113F0FE4FFE
:1054C00070471CF0006F03D10CF0004100207047C2
:1054D0000CF0004343EA507040EACC0010B500F0F5
:1054E00012FA00BF000000924FEA0001FFF7DCBE95
:1054F0004FF00041A1F500214FF00000704700007F
:1055000090EA010F48BF81F0004100F14E82421A3B
:105510003CBF801A89184FEAD052A2EBD1534FF00A
:105520007F4C1CEA410F18BF9CEA026F00F03B80E1
:105530004FF0004C4CEA00204CEA012121FA03FC18
:1055400010EB0C0C1ED202F1FF325FEA1C2040EB84
:10555000C25038BF70471CF07F0F4FEA400C18BF95
:10556000BCF17F4F38BF7047C3F12003994008BF9B
:1055700020F00100BCF17F4F38BF7047A0F1C04060
:1055800000F007BA4FEA3C00000A40EBC25028BFC7
:105590001CF0FF0F4FEA400CE6D018BFBCF17F4F64
:1055A00038BF7047EAE79CEA026F05D010EA5C0F4B
:1055B00008BF00F00040704710B500F0A4F900BF2C
:1055C00064FBBE3E10B5FFF7C1FB0CBF01200020FD
:1055D00010BD10B5FFF7BAFB14BF0120002010BDAD
:1055E00010B5FFF749FC8CBF0120002010BD10B59D
:1055F000FFF742FC2CBF0120002010BD10B5FFF7C3
:1056000077FC94BF0120002010BD10B5FFF770FC9F
:1056100034BF0120002010BD4FF47F0C1CEAD012D3
:105620001EBF1CEAD11392EA0C0F93EA0C0F00F094
:10563000858090EA010F48BF42F4807240F4000C6C
:1056400041F400002CF07F4120F07F4000B5A2EB38
:10565000030281420FF2081CACEB504E9EF800E0B2
:10566000C0F100004FEA4E0E00FB0EFC38BF4900AF
:105670004FEA2C1C0CFB0EF34FEACE1E0EEB635EC2
:105680004FEA112C0EFB0CFC4FEAC1214FEA1C53D0
:1056900000FB031102F5FA024FEA112C0EFB0CFC81
:1056A0004FEA01314FEADC4C00FB0C1142EB224285
:1056B000C14228BF09184CEB03335DF804EB10EB33
:1056C000410143EBC250B2F57C0F38BF704729D57A
:1056D00012F0F00F1CBF00F1C04000F00040704716
:1056E000008182838485868788898B8C8D8E8F91BB
:1056F0009293959697999A9C9D9FA0A2A3A5A7A8DF
:10570000AAACAEB0B2B3B5B7B9BCBEC0C2C5C7C90A
:10571000CCCED1D4D7D9DCDFE2E6E9ECF0F3F7FA6E
:10572000FE0000004FEA400C0CF1807CBCF17E4F83
:1057300028BF7047B0F1C04000F02BB90CEAD1137C
:1057400090EA010F48BF42F48072624538BF63455A
:1057500007D213F47F0F16D080EA010000F000405A
:10576000704710B500F0CFF8097EFC3E00F005B898
:1057700080EA010000F00040704780EA010000F07C
:10578000004000F006B912F47F0F04BF02487047D2
:1057900080EA010000F0FDB80000C07F41000B0E60
:1057A000D3F19E0208D950F400034FEA032323FAF1
:1057B00002F048BF4042704710B500F0A4F800BFA7
:1057C00049922480002070476FF0004282EA200056
:1057D0007047000010F0004148BF4042B0FA80F32B
:1057E00010FA03F2C3F19D030BD051EAC35101EB50
:1057F0001220530638BF704700F1010008BF20F0A7
:10580000010070474FF47F0C1CEAD0121EBF1CEA47
:10581000D11392EA0C0F93EA0C0F00F0478090EA44
:10582000010F48BF42F480724FF0004C4CEA002058
:105830004CEA012102EB0302A0FB0113A2F50002D6
:10584000002918BF43F001035B0028BF4FEA330370
:1058500042EB22425FEA132C4CEBC2502EBFBCEB52
:10586000436FB2F57C0F70474FEA036CBCF1004FF9
:1058700008BF20F00100B2F57C0F38BF70470BD590
:1058800082F0FF0212F5803FC8BF704700F1C040B0
:10589000D8BF00F00040704700F5000C5FEA4C0CE8
:1058A00048BF7047B0F1C04000F073B80CEAD113A4
:1058B00090EA010F48BF42F48072624538BF6345E9
:1058C00004D280EA010000F00040704710B500F0FB
:1058D0001AF800BF8900013E00F007B800F009B8CF
:1058E0005FEA410C5FEA1C6C08D080EA010000F01E
:1058F00050B85FEA400C5FEA1C6CF6D14FF00040F4
:10590000A0F5800070470EF1020E2EF0030E5EF837
:10591000044B244204D44FEA4102B2F17F4F11D824
:105920004FEA4003B3F17F4F0CD80ED14FEAD07C41
:105930000CEB4C0C0CF1020CB2F17F4F08BF4CEB9E
:10594000D17C04E04FF0080C01E04FEAD17C0CEB75
:105950004C0324FA03F404F00704B4F1040C06D257
:105960000EEB840CBDE810404CF0010C6047DFE802
:105970000CF0070802024FF00040A0F5800010BDB7
:105980000846420018BFD2F1807288BF00F0004084
:1059900010BDFF2141EAD050C005704790EA010FC9
:1059A00048BF81F000413FF5B2AD421A04D882F001
:1059B0000042A0EB020011444FEAD052A2EBD153B7
:1059C0004FF07F4C1CEA410F18BF9CEA026F4AD08F
:1059D0004FF0004C4CEA00204CEA012121FA03FC74
:1059E000B0EB0C0C0FD412F0FE0F36D05FEA4C0077
:1059F0001DD5001240EBC25038BF70471CF03F0F5E
:105A000018BF70470BE05FEA1C20A2F1010240EBD7
:105A1000C25038BF70471CF07F0F18BF7047C3F1EA
:105A20002003994014BF401E20F0010070474FEA48
:105A30001223800808BF7047B0FA80FCA2EB0C026A
:105A4000CCF1280C60FA0CF093EA122F04BF00EBA3
:105A5000C25070474FEAC3707047130A5FEADC1008
:105A600008BF7047F6E79CEA026F04D010EA5C0FAB
:105A700008BF0020704710B5FFF745FF40DFF63E36
:105A800081F0004070470CF00F03092B08BF08207D
:105A900000F059800A2B0BD0082B18BF704708BFA5
:105AA0001CF0400F0AD04FF000004FF0000170478B
:105AB0001CF0400F18BF4FF0004070471CF0100F53
:105AC00008D000F07F4220F0704342EAD3014FEA51
:105AD0004370704700F0604021F07F4242EA0002CC
