:020000040800F2
:1000000010090020CD010008A51E00089D1E000853
:10001000A11E0008D50200088D2000080000000085
:10002000000000000000000000000000B11E0008F9
:10003000D902000800000000AD1E0008B51E00082F
:10004000E7010008E7010008E7010008E7010008F0
:10005000E7010008E7010008E7010008DD020008E9
:10006000E7010008E7010008E7010008E7010008D0
:10007000E7010008E7010008E7010008E7010008C0
:10008000E7010008E7010008E7010008E7010008B0
:10009000E7010008E7010008E7010008E5020008A1
:1000A000E7010008BD1E0008E7010008E70100089D
:1000B000E7010008E7010008C91E0008E701000881
:1000C000E7010008E7010008E7010008E701000870
:1000D000E701000881200008E7010008E7010008A7
:1000E000E7010008E7010008E7010008E701000850
:1000F000E7010008E7010008E7010008E701000840
:10010000E7010008E7010008E7010008E70100082F
:10011000AD1F0008B91F0008E7010008E70100084B
:10012000E7010008E7010008E7010008E70100080F
:1001300000F002F800F03AF80AA090E8000C8244BF
:100140008344AAF10107DA4501D100F02FF8AFF29C
:10015000090EBAE80F0013F0010F18BFFB1A43F0A5
:100160000103184780390000A0390000103A24BF6D
:1001700078C878C1FAD8520724BF30C830C144BF0C
:1001800004680C607047000000230024002500264E
:10019000103A28BF78C1FBD8520728BF30C148BFEA
:1001A0000B6070471FB51FBD10B510BD00F05CF8A7
:1001B0001146FFF7F7FF01F06BFF00F07AF803B488
:1001C000FFF7F2FF03BC00F07DF80000094880470C
:1001D00009480047FEE7FEE7FEE7FEE7FEE7FEE729
:1001E000FEE7FEE7FEE7FEE704480549054A064B41
:1001F00070470000B91E00083101000810030020FC
:100200001009002010050020100500204FF000020A
:1002100000B5134694469646203922BFA0E80C50FC
:10022000A0E80C50B1F12001BFF4F7AF090728BFD7
:10023000A0E80C5048BF0CC05DF804EB890028BF53
:1002400040F8042B08BF704748BF20F8022B11F07C
:10025000804F18BF00F8012B7047704770477047F8
:1002600000487047280000207546FFF7F9FFAE46AA
:1002700005006946534620F00700854618B020B5B2
:10028000FFF7B2FFBDE820404FF000064FF0000737
:100290004FF000084FF0000BAC46ACE8C009ACE8EA
:1002A000C009ACE8C009ACE8C00921F007018D46DF
:1002B000704710B50446AFF300802046BDE81040FB
:1002C000FFF77DBF01491820ABBEFEE72600020004
:1002D00070470000FEE7000070470000022000F0B9
:1002E000E5B80000802000F0E1B80000014690F879
:1002F0002100022813D10868D1E90FC3026822F057
:100300000E020260026822F001020260012000FA7F
:1003100003F2CCF8042081F82100002002E0042040
:1003200088630120002281F82020704780B590F872
:100330002110022927D1026840F2040C1368C4F28C
:10034000020C23F00E03136013680CF17C018A4247
:1003500023F0010111601AD940F20841C4F20201F0
:100360008A4247D040F21C41C4F202018A4245D081
:1003700040F23041C4F202018A4243D14FF480730B
:10038000CCF8003457E004218163012080BD432173
:10039000C4F202018A420EDD6B21C4F202018A42DC
:1003A0001BDC4421C4F202018A4239D05821C4F234
:1003B00002018A4231E00821C4F202018A4232D0AD
:1003C0001C21C4F202018A4232D03021C4F202015F
:1003D0008A4222D14FF480722BE06C21C4F20201D8
:1003E0008A4222D08021C4F202018A4215D14FF004
:1003F00080721EE00123CCF800341CE01023CCF8FE
:10040000003418E00CF588614FF480338A4208BF4D
:100410004FF48053CCF800340DE04FF4803208E004
:100420004FF4805205E0012203E04FF4801200E017
:100430001022CCF80020416B4FF48072028401B18D
:100440008847002080BD000010B5022814D0802805
:1004500018BF10BD40F60040C4F2010000F58060F6
:10046000402100F021F940F2900140F29804C2F2DC
:100470000001C2F200040EE040F60040C4F20100A8
:10048000012100F011F940F28C0140F29404C2F213
:100490000001C2F20004002808BF0C4620684FF09B
:1004A0007E5102F0D3FF206010BD000040F21441E5
:1004B000C4F201010A68024214BF08607047FFF7E6
:1004C000C3BF00002DE9F04F82B00E68002E00F08F
:1004D000E880A0F1804241F60045A2F58432C4F2E2
:1004E000010506244FEAB227A84208BF052440F2BE
:1004F000004E052F38BF4FEAB224C4F2010E00941B
:1005000000244FF001080F234FF0000A4FF0000BBA
:1005100009E000BF0E680AF1010A36FA0AF204F196
:10052000040400F0BE8008FA0AFC16EA0C09F1D0B7
:100530004E684FF6FF72C1F21002964210DC122E86
:1005400050D8DFE806F0330A41454F4F4F4F4F4F29
:100550004F4F4F4F4F4F4F484C00D1F80CB041E038
:100560004FF6FF72C1F2210296420FDC0022C1F267
:10057000110296421AD00022C1F21202964215D000
:100580000022C1F22102964210D02BE00022C1F2DB
:10059000220296420AD00022C1F23102964205D0D0
:1005A0000022C1F2320296421CD100BF8A6842B1D9
:1005B000012A14BFC0F814C0C0F810C04FF0080BD7
:1005C00010E04FF0040B0DE0CA6802F1080B09E0DF
:1005D0004FF0000B06E0CA6802F1040B02E0CA68A3
:1005E00002F10C0B22460646B9F5807F24BF203A63
:1005F0000436376803FA02F5AF430BFA02F23A43C6
:100600003260CA79D2067FF585AF41F21807C4F28D
:1006100002073A684FF6084342F001023A603A682E
:10062000CFF6FF7302F001020192019A2AF0030251
:1006300072440F25D75804F00C06B540AF43009D17
:1006400005FA06F63743D7504E6840F20C45F203E0
:10065000DEF8002054BF22EA090242EA0902CEF87D
:100660000020DEF80420B70354BF22EA090242EA60
:100670000902CEF80420DEF80820C4F20105F702D2
:1006800054BF22EA090242EA0902CEF808200F23E9
:100690002A68B70254BF22EA090242EA09022A6024
:1006A00038E702B0BDE8F08F8068084018BF01202D
:1006B00070470000002A08BF09040161704700006C
:1006C00040F20830C2F2000000687047F0B581B017
:1006D000B0B3044690F83D0028B9002084F83C00EF
:1006E000204600F0BFF8242084F83D00206801680F
:1006F00021F001010160016841F4004101600168DD
:1007000021F40041016000F087FA48F28041C0F214
:100710001E0140F60012656888424FF00001C0F2E9
:100720003D0248F2A16C4FF0000338BF0121904216
:10073000C0F2010C38BF0123654538BF0B4613B129
:10074000012001B0F0BD4DF68361C4F21B31A0FB66
:10075000011221684FEA924E4B684FF4967623F0CF
:100760003F0343EA92434B6044F6D3530F6A0EFBB8
:1007700006F6C1F26203A6FB033627F03F03B70972
:10078000654538BF970C7A1C1A430A62CA6948F259
:10079000A0674CF6FF73C0F20107BD4222EA030CCA
:1007A0000AD801386A00B0FBF2F001306FF31F3055
:1007B000042898BF04202BE0A368A0F1010E9BB190
:1007C00019206843BEFBF0F00422013062F31F30B1
:1007D000000512D09BB119206843BEFBF0F0042243
:1007E000013062F31F3011E005EB4500BEFBF0F075
:1007F00001306FF31F300005ECD1012008E005EB5C
:100800004500BEFBF0F001306FF31F3040F40040B4
:1008100040EA0C00C8610868D4E9072320F0C00052
:10082000104318430860886848F2FF3204F10C074F
:1008300090438CCF18431043A6698860C86820F0A5
:10084000FF0038433043C860086840F0010008608A
:1008500000202021206484F83D10206384F83E00AD
:1008600001B0F0BD10B586B0016845F60000C4F2D5
:10087000000081424FF00001CDE90411CDE90211E1
:1008800001D006B010BD41F21804C4F20204216880
:1008900000F5344041F008012160216801F00801B1
:1008A000019101994FF440610291122103910321BA
:1008B000059102A9FFF706FE606840F480006060C1
:1008C000606800F480000190019806B010BD00003F
:1008D00040F21C0040F20831C2F20000C2F20001F6
:1008E00000780A68104408607047000080B542F242
:1008F0000000C4F20200016841F010010160032011
:1009000000F08EF80F2000F005F800F02BF8002022
:1009100080BD0000B0B540F21C02C2F2000240F2FD
:1009200000011278C2F200014FF47A730968B3FB38
:10093000F2F20446B1FBF2F1084600F03BFB0F2C4B
:100940004FF001050CD858B94FF0FF302146002276
:10095000002500F039F840F22000C2F200000460E7
:100960002846B0BD82B041F21800C4F2020001680E
:10097000022241F001010160016801F001010191D1
:100980000199416841F080514160406800F0805019
:10099000009000980420C4F20100016862F31A611B
:1009A000016002B070470000002848BF704700F0A7
:1009B0001F01012202FA01F14EF200124009CEF2AB
:1009C000000242F82010704710B54EF60C5CCEF2D3
:1009D000000CDCF80030C3F3022E8EF00704042C68
:1009E00028BF0424BEF103034FF0FF3E0EFA04F4C7
:1009F00038BF0023A14399400EFA03F39A431143F1
:100A000000F1604200F00F03090102F56442043B6B
:100A10006344002848BF03F10C02117010BD0000B0
:100A20004EF60C51CEF200010A684FF6FF031A4051
:100A300060F30A2242F0806040F0FD700860704769
:100A4000704700002DE9F04381B0002800F0878056
:100A500042F20008C4F202080446D8F800000D462D
:100A600000F0070088420CD2D8F8000020F0070000
:100A70002843C8F80000D8F8000000F00700A8429A
:100A80006DD1206841F204098107C4F2020917D52B
:100A9000410705D5D9F8001041F4E061C9F800100C
:100AA000010705D5D9F8001041F46051C9F80010CC
:100AB000D9F80010A26821F0F0011143C9F8001024
:100AC000C00743D1D8F8000000F00700A8420CD9B5
:100AD000D8F8000020F007002843C8F80000D8F834
:100AE000000000F00700A84239D12068410707D56F
:100AF000D9F80010E26821F4E0611143C9F8001050
:100B0000000708D5D9F80000216920F4605040EAB8
:100B1000C100C9F80000D9F8001042F2004001F00D
:100B20000C02042AC0F2F40055D0082A42D143F640
:100B3000D423C1F38342C0F600039A5CC9033ED4B8
:100B400040F60010C0F23D00504344E060680228C7
:100B500009D0012829D159F8041C890307D40120A0
:100B600001B0BDE8F08359F8041C8901F7D5D9F824
:100B7000001021F003010843C9F80000FFF7A0FDB1
:100B8000064641F2883700BFD9F80000616800F0DE
:100B90000C00B0EB810F95D0FFF792FD801BB8429F
:100BA000F2D9032001B0BDE8F08359F8041C89078D
:100BB000D5D5DCE741F20020C0F27A000BE0D9F88D
:100BC000001043F6BA23C1F34041C0F60003595C5C
:100BD0005043B0FBF1F0D9F8001043F6BC22C1F34A
:100BE0000311C0F60002515C40F2000220FA01F14C
:100BF00040F22000C2F200000068C2F20002116060
:100C0000FFF788FE002001B0BDE8F0834C20C4F25D
:100C1000422001210160704740F2000041F20401CE
:100C2000C2F20000C4F202010068096843F6CC2257
:100C3000C1F30221C0F60002515CC84070470000B9
:100C400040F2000041F20401C2F20000C4F20201CD
:100C50000068096843F6CC22C1F3C221C0F6000245
:100C6000515CC8407047000010B541F20804C4F25E
:100C700002042068000658BF10BDFFF7E1FE802087
:100C8000A07010BD2DE9F04182B0002800F0D7809F
:100C90000446007841F20006C007C4F2020644D0C0
:100CA000706800F00C00042817D0706800F00C0089
:100CB000082802D17068C0030FD465682DB1B5F55E
:100CC000A02F10D0B5F5803F11D0306820F48030CF
:100CD0003060306820F480200CE03068800324D538
:100CE000606810BBABE0306840F480203060306852
:100CF00040F480303060FFF7E3FC002D054611D052
:100D00003068800311D4FFF7DBFC401B6428F7D95F
:100D100016E100BFFFF7D4FC401B64284FF003002E
:100D200000F28A8030688003F4D42078800718D5D8
:100D3000706810F00C0F07D0706800F00C000828E5
:100D400027D17068C00324D43068800702D5206999
:100D5000012874D13068616920F0F80040EAC100D0
:100D60003060207800074FD5A06940B30020C4F25E
:100D700042200121C0F88014FFF7A2FC054600BF05
:100D8000706A80072DD4FFF79BFC401B0228F7D91F
:100D9000D6E02069002840F20000C4F2422000F0B2
:100DA000A68001210160FFF78BFC054630688007B3
:100DB000D0D4FFF785FC401B0228F7D9C0E0002003
:100DC000C4F242200021C0F88014FFF779FC0546E8
:100DD000706A800718D5FFF773FC401B0228F7D90B
:100DE000AEE040F20000C2F20000006844F6D351C9
:100DF000C1F26201A0FB0101480A019000BF019805
:100E0000411E00280191F9D1207840071BD4E569E3
:100E10008DB1706800F00C00082846D1012D0ED06D
:100E20007068216A00F480328A4208D1616A00F455
:100E30007010884203D1002002B0BDE8F08101208B
:100E400002B0BDE8F081F06910F0805808D1F06977
:100E500040F08050F061F06900F080500090009800
:100E600047F20007C4F200073868C0050FD438689D
:100E700040F480703860FFF723FC05463868C005F1
:100E800005D4FFF71DFC401B6428F7D958E0E5683E
:100E90001DB1052D3CD0012D3ED0306A20F001005F
:100EA0003062306A20F0040039E00027C4F24227A3
:100EB00000203866FFF704FC022D05460CD100BF68
:100EC0003068800154D5FFF7FBFB401B02284FF030
:100ED0000300F5D9B0E700BF30688001ABD5FFF75C
:100EE000EFFB401B02284FF00300F5D9A4E70021D7
:100EF0000160FFF7E5FB0546306880077FF531AFFD
:100F0000FFF7DEFB401B02284FF00300F4D993E704
:100F1000306A40F004003062306A40F00100306214
:100F2000FFF7CEFB002D054641F2883714D000BFF5
:100F3000306A800713D4FFF7C3FB401BB842F7D9D0
:100F4000032002B0BDE8F081FFF7BAFB401BB842B6
:100F50004FF003003FF670AF306A8007F4D4B8F169
:100F6000000F7FF454AFF06920F08050F0614EE73D
:100F7000206AB0F5803F05D17168A26821F4003184
:100F8000114371607168626A21F47411114308435E
:100F9000706001203866FFF793FB044630688001DB
:100FA0003FF549AFFFF78CFB001B02284FF0030011
:100FB000F4D941E7411E0020B0EB116F1CBF0120A6
:100FC00070474EF21002CEF2000251604EF62351ED
:100FD000CEF20001F0230B70072190601160704782
:100FE000704700007047000010B590F83C20012ABF
:100FF0004FF0020241D0012380F83C3080F83D20C0
:101000000268D2F804E0D2F808C00C682EF0700331
:10101000234340F6FF34C4F20004A24253600FDCC5
:10102000B2F1804F1ED040F20043C4F200039A4256
:1010300018D040F60003C4F200039A4212D016E022
:1010400040F60043C4F200039A420BD043F200433F
:10105000C4F201039A4205D042F60043C4F20103F0
:101060009A4204D149682CF0800319439160012110
:10107000002280F83D1080F83C20104610BD000092
:10108000002804BF0120704710B5044690F83D00C9
:1010900028B9002084F83C00204600F01FF8022008
:1010A00084F83D002068211D00F014FF012084F821
:1010B000460084F83E0084F83F0084F8400084F83D
:1010C000410084F8420084F8430084F8440084F826
:1010D000450084F83D00002010BD000010B582B02E
:1010E000006840F60001C4F20001884219D042F6BF
:1010F0000041C4F2010188422CD141F21800C4F22F
:1011000002000168002241F40061016000680021D2
:1011100000F400600190019819201924FFF754FC95
:1011200012E041F21800C4F202004168002241F0CE
:10113000040141604068012100F004000090009823
:101140001E201E24FFF740FC204602B0BDE81040E0
:10115000FFF72ABC02B010BD90F83D1001291CBF5A
:1011600001207047022180F83D10006840F6FF32F0
:10117000C168C4F20002904241F00101C1600FDC7D
:10118000B0F1804F1ED040F20041C4F2000188420D
:1011900018D040F60001C4F20001884212D018E0D5
:1011A00040F60041C4F2000188420BD043F20041F6
:1011B000C4F20101884205D042F60041C4F20101A7
:1011C000884206D1816801F00701062904BF00208A
:1011D0007047016841F00101016000207047000084
:1011E00080B590F83C20012A4FF0020200F0C08048
:1011F000012380F83C3080F83D20D0F800C04FF645
:101200007772DCF8083023EA0202CCF808200B6879
:101210003F2B1CDD5F2B20DD602B4FD0B3F5005F33
:101220006CD0702B40F09E80D1E901E3C968DCF8F6
:10123000082043EA0E0322F47F4243EA01211143CE
:10124000CCF80810DCF8081041F0770188E01F2B7B
:1012500028DC5BB3102B29D084E0402B61D0502BCD
:1012600040F08080D1F804E0C968DCF82030DCF878
:10127000202022F00102CCF82020DCF8182022F0F7
:10128000F00242EA011123F00A0242EA0E02CCF80F
:101290001810CCF82020DCF8081041F0570121F09C
:1012A00020015DE0202B01D0302B5BD1DCF8081051
:1012B00021F07001194341F0070151E0D1F804E039
:1012C000C968DCF8203023F01003CCF82030DCF8BB
:1012D0001830DCF8202023F4704322F0A00243EA07
:1012E000013142EA0E12CCF81810CCF82020DCF8BC
:1012F000081041F0670121F0100131E0D1E901E36C
:10130000C968DCF8082043EA0E0322F47F4243EA6E
:1013100001211143CCF80810DCF8081041F4804199
:101320001EE0D1F804E0C968DCF82030DCF82020A9
:1013300022F00102CCF82020DCF8182022F0F00284
:1013400042EA011123F00A0242EA0E02CCF8181018
:10135000CCF82020DCF8081041F0470121F03001E2
:10136000CCF808100121002280F83D1080F83C20C4
:10137000104680BD7047000010B504460068016942
:10138000890744BFC1685FEA81713FD42068016961
:10139000490744BFC1685FEA417143D420680169CD
:1013A000090744BFC1685FEA017148D42068016938
:1013B000C90644BFC1685FEAC1614CD420680169B5
:1013C000C9071CBFC1685FEAC17151D120680169BA
:1013D000090644BFC1685FEA016150D42068016911
:1013E000490644BFC1685FEA41614FD4216808697A
:1013F000800646BFC8685FEA806010BD6FF02002BB
:1014000020460A61BDE81040FFF7ECBD6FF0020115
:10141000016101212177806980073ED02046FFF7D6
:10142000A9FF40E06FF0040101610221217780698A
:1014300010F4407F3AD02046FFF79CFF3CE06FF06D
:101440000801016104212177C069800737D0204657
:10145000FFF790FF39E06FF010010161082121775B
:10146000C06910F4407F33D02046FFF783FF35E09A
:101470006FF001010161204600F068FAA6E76FF005
:10148000800101612046FFF7ABFDA7E76FF0400147
:101490000161204600F06AFAA8E7204600F068F8EB
:1014A000204600F0DBF9002020776FE7204600F0AF
:1014B0005FF8204600F0D2F9002020776EE7204642
:1014C00000F056F8204600F0C9F9002020776DE7BB
:1014D000204600F04DF8204600F0C0F900202077AB
:1014E0006CE7000080B586B0006840F60041C4F2A9
:1014F000000188424FF00001CDE90411CDE902114D
:101500001BD040F60001C4F2000188422ED141F206
:101510001800C4F20200016841F00801016000688F
:101520004FF4407100F008000190019840F600006F
:10153000C4F2010000F5806011E041F21800C4F22D
:101540000200016841F00401016000680E2100F012
:1015500004000190019840F60000C4F201000291DD
:1015600002210391059102A9FEF7ACFF06B080BDF0
:10157000704700002DE9F04190F83C30012B04BF8A
:101580000220BDE8F0814FEAB2020123032A80F86D
:101590003C3000F21481DFE802F002468FD9036884
:1015A00043F200461A6AC4F2010622F001021A62EE
:1015B0001D6A1A465C6852F818EF8F68D1F800C0AF
:1015C00025F00205B34245EA070505D042F600477B
:1015D000C4F20107BB4205D1CF6825F00C0527F006
:1015E00004073D43B34205D042F60046C4F201066B
:1015F000B34205D1D1E9056724F4407434433C4338
:101600002EF0730747EA0C075C609F614F68096919
:101610005F631D629F6947F008079F619F6927F01C
:1016200004079F61C8E0036843F200461A6AC4F2E7
:10163000010622F010021A621D6A1A46D3F804C08D
:1016400052F8188F8F68D1F800E025F02005B342DA
:1016500045EA071505D042F60047C4F20107BB4230
:1016600007D1CF686FF0400425F0C00504EA0714E5
:101670002543B34205D042F60044C4F20104A3421C
:1016800006D1D1E905462CF44067264347EA860C8B
:1016900028F4E64444EA0E27C3F804C09F614F686B
:1016A00009699F631D629F6947F400679F619F6995
:1016B00027F480679F617EE0036843F200461A6A60
:1016C000C4F2010622F480721A621D6A1A46D3F827
:1016D00004C052F81CEF8F68D1F8008025F4007523
:1016E000B34245EA072505D042F60047C4F2010798
:1016F000BB4208D1CF6840F2FF443F0225F4406569
:1017000027EA04042543B34205D042F60044C4F25C
:101710000104A34206D1D1E905462CF440572643E3
:1017200047EA061C2EF0730747EA0807C3F804C00F
:10173000DF614F680969DF631D62DF6947F00807F1
:10174000DF61DF6927F00407DF6135E0036843F2FA
:1017500000471A6AC4F2010722F480521A621A463C
:10176000D3F820C05D6852F81C4FD1F800E08E68B5
:10177000BB4205D042F60047C4F20107BB4204D188
:101780004F6925F4804545EA87152CF4005747EA50
:10179000063724F4E64646EA0E265D60DE614E68B2
:1017A00009691E641F62DF6947F40067DF61DF6952
:1017B00027F48067DF610902136819431160002173
:1017C00080F83C100846BDE8F0810000002804BF06
:1017D0000120704710B5044690F83D0028B900205C
:1017E00084F83C00204600F01FF8022084F83D00F9
:1017F0002068211D00F06EFB012084F8460084F86B
:101800003E0084F83F0084F8400084F8410084F8EA
:10181000420084F8430084F8440084F8450084F8CA
:101820003D00002010BD000081B0006840F600417E
:10183000C4F20001884201D001B0704741F21C009F
:10184000C4F20200016841F008010160006800F084
:1018500008000090009801B0704700007047000039
:1018600041B1082909D0042914BF00F1410200F157
:101870003F0204E000F13E0201E000F14002127874
:10188000012A1CBF01207047022241B1082909D05A
:10189000042914BF80F8412080F83F2004E080F83C
:1018A0003E2001E080F84020006801F01F01012285
:1018B000036A02FA01F123EA01020262026A0A43A0
:1018C00040F6FF31C4F200018842026217DD40F6A3
:1018D0000042C4F20002904220D043F2004CC4F215
:1018E000010C604505D042F60043C4F20103984262
:1018F0001BD1436C884243F4004343641BDCB0F1CA
:10190000804F0BD040F20041C4F20001884205D064
:1019100040F60001C4F20001884206D1816801F05E
:101920000701062904BF00207047016841F001014A
:101930000160002070479042F0D06045EED042F642
:101940000041C4F201018842E8D0EEE7006842F6A7
:101950000041C4F20101884218BF704740F20430D0
:10196000C2F20000012101707047000070470000C2
:101970007047000070470000B0B582B002680546AD
:101980001068D368546900F02F01202903F020016A
:1019900006D129B1284602B0BDE8B04000F018BB1E
:1019A0005FEA007C1EBF04F0010E03F4907414EB98
:1019B0000E0453D1296B012905D110F0100118BF75
:1019C00013F0100136D1010622D513F080011FD08B
:1019D00095F83D0021283FD1A868B0F5805F03D17C
:1019E0002869002800F0F680286A411C29620078E6
:1019F0005060E88C01380104E8842DD1D06820F0D3
:101A00008000D060D06840F04000D06002B0B0BD2F
:101A1000400621D513F040001ED0D068202120F0D0
:101A20004000D060284685F83D1002B0BDE8B040C7
:101A300000F032BA002001901068019050680190C7
:101A400001985069400611D4A88DE98DEB8D002BCB
:101A500018BF884240F0A58002B0B0BDC20718BFD1
:101A600013F480722CD1420730D436E0A86B0168A1
:101A700049688BB2002BEFD0AC8DA342ECD2E98544
:101A80008169202916D0D16821F48071D160516913
:101A900021F001015161516921F040015161202182
:101AA00085F83E1000212963D16821F01001D16032
:101AB000FEF71CFCA88DE98D401A81B2284684E00F
:101AC0002A6C42F001022A64420706D5BEF1000FDB
:101AD00003D02A6C42F002022A64820706D5BEF1C6
:101AE000000F03D02A6C42F004022A64BCF1000FFC
:101AF00009D541EA0E02B2FA82F2520903D12A6CE8
:101B000042F008022A642A6C002AA5D010F02000B6
:101B100018BF002902D0284600F05AFA2868416907
:101B20002A6C01F0400102F0080289182CD0C1682B
:101B300021F49071C160416921F001014161296B7B
:101B4000012903D1C16821F01001C160202185F86D
:101B50003E1000212963416949061CD5416921F0E5
:101B600040014161A86BB0B141F6C571C0F60001FA
:101B70004163FEF7DBFB00283FF46EAFA86B416BBF
:101B800002B0BDE8B04008472846FFF7F3FE00204A
:101B9000286402B0B0BD284602B0BDE8B040FFF7EF
:101BA000E9BED368401A23F49073D360536981B2BD
:101BB00023F001035361202385F83E3000232B637B
:101BC000D368284623F01003D36002B0BDE8B040CC
:101BD000FFF7CEBE286A30F8021B6FF35F21516019
:101BE000286206E7002804BF0120704710B50446AC
:101BF00090F83D0028B9002084F83C00204600F011
:101C000061F8242084F83D002068D4E90212C368FA
:101C100023F40053C360036923F440531A43026161
:101C2000D4E904231143C268194341F20C639A4377
:101C30001143C1604169A26921F44071114343F627
:101C40000002C4F201029042416102D0FEF7E4FFBB
:101C500001E0FEF7F5FF6268192148439100B0FBEF
:101C6000F1F048F21F51C5F2EB11A0FB01235A0914
:101C70004FF69C73C0F6FF7302FB0300322303EBA5
:101C80000010A0FB0101F02303EA5113206803EBCD
:101C90000212C1F3431111448160016921F49041A2
:101CA0000161416921F02A014161C16841F400519B
:101CB000C16000202021206484F83D1084F83E108B
:101CC00010BD0000B0B586B0006843F60001C4F254
:101CD000010188424FF00001CDE90411CDE9021164
:101CE00036D045F20001C4F2000188425CD044F6CF
:101CF0000041C4F20001884240F0988041F218008F
:101D0000C4F20200416841F2000441F40021416044
:101D10004168C4F2010401F40021019101990168B4
:101D200041F010010160006802A900F0100001906C
:101D300001984FF4806002900220039003200590E8
:101D40002046FEF7BFFB4FF40060029034255EE0B2
:101D500041F21800C4F20200016841F480410160C0
:101D6000016801F4804101910199016841F0040189
:101D70000160006802A900F00400019001984FF48E
:101D800000700290022003900320059041F20000B1
:101D9000C4F20100A0F500642046FEF793FB4FF467
:101DA00080602525029032E041F21800C4F2020062
:101DB000416841F2000441F4801141604168C4F27D
:101DC000010401F4801101910199016841F01001B1
:101DD0000160016801F0100101910199016841F071
:101DE00020010160006802A900F020000190019824
:101DF0004FF480500290022003900320059020466B
:101E0000FEF760FB0420029004F580643525002075
:101E1000CDE9030002A92046FEF754FB2846002125
:101E20000022FEF7D1FD2846FEF7BEFD06B0B0BD8C
:101E3000034690F83E0020280AD100294FF0010007
:101E400018BF002A00D1704793F83C00012801D147
:101E50000220704700201863996222219A85DA8552
:101E6000186483F83E10196883F83C00CA6842F48D
:101E70008072CA604A6942F001024A61CA6842F04F
:101E80002002CA607047000040F2E820C2F2000061
:101E9000012101707047000070470000FEE700005C
:101EA000FEE70000FEF7E0FEFEE7000070470000DE
:101EB00070470000FEF70CBD7047000040F218109C
:101EC000C2F20000FFF758BA40F26010C2F2000000
:101ED000FFF752BA10B540F6FF3E0368C4F2000E99
:101EE00043F2004C7045C4F2010C20DCB0F1804F8D
:101EF0002BD040F20042C4F20002904225D040F6BE
:101F00000002C4F2000290421FD0704523DCB0F101
:101F1000804F2ED040F20042C4F20002904228D0FE
:101F200040F60002C4F20002904222D025E040F6C2
:101F30000042C4F20002904207D0604505D042F64C
:101F40000042C4F201029042DFD14A6823F07003DC
:101F500013437045DBDD40F60042C4F200029042BC
:101F600007D0604505D042F60042C4F2010290421B
:101F700003D1CA6823F44073134323F080024B69F2
:101F8000D1F800E08C681A4360450260C462C0F872
:101F900028E005D042F60042C4F20102904201D18D
:101FA000096901630121416110BD000040F2342044
:101FB000C2F20000FFF7E0BC40F27820C2F200005D
:101FC000FFF7DABC406A0021C185C184FFF7D2BCAB
:101FD00081B090F83E1022291DD18268B2F5805F51
:101FE00002D1016900293ED0816AB2F5805F07D035
:101FF0000AB9026922B10268526802F07F0201E068
:10200000026852680A70816A01318162C18D0139AA
:102010000A04C18501D001B070470168CA6822F086
:102020002002CA60CA6822F48072CA604A6922F03B
:1020300001024A61202280F83E20026B012A1BD156
:1020400000220263CB6823F01003CB600B68DB0631
:1020500005D500920A680092496800910099818D27
:1020600001B0FFF785BC0168826A49686FF35F21A0
:1020700022F8021B8262C9E701B0FFF705BF00002A
:1020800040F2F010C2F20000FFF776BCFEE700005D
:1020900092B0FEF72BFC06AC20462821FEF7B6F8DE
:1020A000012006900A904FF4802000254FF48031E3
:1020B0004FF4003202260F9020460495CDE90255D8
:1020C000CDE9005507910892CDE90D61FEF7DAFDE3
:1020D00018B1EFF3108072B6FEE70F20CDE90006CD
:1020E0004FF48060CDE90305684600210295FEF7B4
:1020F000A9FC20B1EFF3108072B600BFFEE740F6F6
:10210000004BC4F2010BFEF781FD002741F21800DD
:10211000CDE90877CDE90677C4F202000168002214
:1021200041F020010160016801F020010091009957
:10213000016841F004010160016801F004010091AF
:102140000099016841F008010160016801F008018F
:1021500000910099016841F010010160006843F2AC
:10216000F00100F01000009000985846FEF7A2FA27
:1021700006AD4FF0010858462946CDE90687089775
:10218000FEF7A0F940F200090224C1F211095846F5
:1021900029460694CDE90794FEF794F94FF4405090
:1021A000CDE9060858462946CDE90884FEF78AF9A4
:1021B00040200BF58066CDE9060730462946089792
:1021C000FEF780F98020CDE90609304629460894BB
:1021D000FEF778F9F020CDE9060858462946CDE902
:1021E0000874FEF76FF9072000210022FEF7ECFBD0
:1021F0000720FEF7D9FB172000210022FEF7E4FBA1
:102200001720FEF7D1FB40F218100BF50051C2F277
:1022100000003B23CDE90877CDE90677CDE90077CB
:1022200045F6BF5280E88600C0E90337C0E905776C
:10223000FEF726FF18B1EFF3108072B6FEE74FF4F9
:102240008050069040F21810C2F2000006A9FEF776
:10225000C7FF20B1EFF3108072B600BFFEE740F277
:1022600018100024C2F200006946CDE90044FEF7D0
:10227000BBFE20B1EFF3108072B600BFFEE740F264
:10228000F0100BF53051C2F200000C234FF4E13294
:1022900080E81600C0E90344C0E90534C461FFF7D3
:1022A000A1FC20B1EFF3108072B600BFFEE740F64C
:1022B0003846C4F2000640F260100021A6F587629D
:1022C000C2F20000312340F2E737CDE90211CDE937
:1022D0000011CDE910110C91CDE90A11CDE90811D9
:1022E000CDE90611C0E90023C0E90217016181614F
:1022F000FEF7C6FE18B1EFF3108072B6FEE74FF49A
:102300008050009040F26010C2F200006946FEF773
:1023100067FF20B1EFF3108072B600BFFEE740F216
:102320006010C2F20000FFF751FA20B1EFF3108005
:1023300072B600BFFEE740F260100024C2F2000057
:1023400010A9CDE91044FEF74FFE20B1EFF3108045
:1023500072B600BFFEE76020CDE9060440F26010CF
:10236000C2F2000006A9082208940A94FFF702F9B5
:1023700018B1EFF3108072B6FEE740F26010C2F2BF
:10238000000006A90C22FFF7F5F818B1EFF3108052
:1023900072B6FEE740F26010C2F20000FFF7A2F84A
:1023A00040F2C400ABF53441C2F2000048F2A06232
:1023B00000244FF48043C0F2010280E81600C0E917
:1023C0000343C0E90544C0E90744FEF77FF918B1AB
:1023D000EFF3108072B6FEE740F23420ABF54041D7
:1023E000C2F200004FF4E1370C25C0E90017C0E944
:1023F0000244C0E90445C0E90644FFF7F3FB18B105
:10240000EFF3108072B6FEE740F27820ABF53C4166
:10241000C2F200000024C0E90017C0E90244C0E98C
:102420000445C0E90644FFF7DDFB18B1EFF3108067
:1024300072B6FEE740F2A810A6F13801C2F2000021
:102440004FF6FF72CDE900440C94CDE90A44CDE982
:102450000844CDE90644C0E90014C0E90242046121
:102460008461FFF7B3F918B1EFF3108072B6FEE79D
:1024700040F2A8100024C2F200006946CDE90044F1
:10248000FEF7B2FD18B1EFF3108072B6FEE76020E0
:10249000CDE9060440F2A810C2F2000006A9042209
:1024A00008940A94FFF766F818B1EFF3108072B63B
:1024B000FEE740F2A810C2F2000006A90822FFF7CA
:1024C00059F818B1EFF3108072B6FEE740F2A81089
:1024D000C2F2000006A90C22FFF74CF818B1EFF386
:1024E000108072B6FEE740F2A815C2F2000540F671
:1024F0003C472846C4F20007FEF7F4FF40F26014A0
:10250000C2F2000420460821FFF7AAF920460C2158
:10251000FFF7A6F928460421FFF7A2F9284608216B
:10252000FFF79EF928460C21FFF79AF940F21810A0
:10253000C2F20000FEF710FE584610210022FEF7FE
:10254000B9F8584620210122FEF7B4F858468021F8
:102550000122FEF7AFF8584640210022FEF7AAF804
:1025600040F2782040F28801C2F20000C2F200017D
:102570000422FFF75DFC58464FF480510122FEF71C
:1025800099F858464FF400510122FEF793F86FF086
:1025900009004FF6FF714FF6F5724FF6FF730A30E0
:1025A00033609042A3F10A0339607960F7D34FF6A4
:1025B000FF7030603860786016E040F2C00000259F
:1025C000C2F2000076420122057058461021FEF743
:1025D00071F8584620212A46FEF76CF840F2601048
:1025E000C2F200000068066440F20430C2F200004B
:1025F0000078002800F0948040F2C100C2F2000090
:102600000578D5B140F29800C2F20000006846F2A9
:102610000001C4F26A7101F00FF90021C4F27021C7
:1026200000F0ACFF41F20001C4F23D6100F0A6FFF2
:1026300040F2FC21C2F20001086040F2C000C2F288
:1026400000000678D6B140F29400C2F200000068A3
:1026500046F20001C4F26A7101F0EEF80021C4F202
:10266000702100F08BFF41F20001C4F23D6100F0E7
:1026700085FF40F2F421C2F200010860D5B940F2B2
:102680009000C2F20000006846F20001C4F26A71D4
:1026900001F0D2F80021CCF2702100F06FFF41F27E
:1026A0000001C4F23D6100F069FF40F2FC21C2F27A
:1026B00000010860D6B940F28C00C2F20000006848
:1026C00046F20001C4F26A7101F0B6F80021CCF2C2
:1026D000702100F053FF41F20001C4F23D6100F0AF
:1026E0004DFF40F2F421C2F20001086040F2900078
:1026F0000021C2F20000016040F28C00C2F2000032
:10270000016040F29800C2F20000016040F29400C3
:10271000C2F20000016040F20430C2F20000017019
:1027200040F2E820C2F200000078D0B358464FF4DF
:1027300080510122FDF7BEFF40F28805C2F200057C
:10274000288842F22834001B00F051FC0026C4F215
:1027500059060022334600F0C1FA00F0E5F9698815
:1027600040F2F822C2F200021060081B00F03FFCA9
:102770000022334600F0B2FA00F0D6F940F2003100
:10278000C2F20001086040F27820C2F2000029463F
:102790000422FFF74DFB40F2E820C2F200000021C6
:1027A000017040F20030C2F2000000250068C4F25F
:1027B000B425294600F0C8FE0246002858464FF4CA
:1027C000005118BF0122FDF775FF40F2F820C2F258
:1027D00000000068294600F0B7FE0246002858466F
:1027E0004FF4805118BF0122FDF764FFFDF768FF29
:1027F00040F2EC21C2F200010968401A0628C0F03C
:10280000048140F2003040F2FC21C2F20000C2F22A
:1028100000010068096801F0DBF8054640F2F82085
:1028200040F2F421C2F20000C2F20001006809681F
:1028300040F2BC04C2F20004256001F0C9F807466A
:1028400040F2B800C2F200000760284600F0D2FD56
:1028500040F2E024C2F20004D4E9002381468A4613
:1028600000F0DAFC40F2C824C2F200040546D4E9C4
:102870000002884611462A46434600F087F9C4E91B
:10288000000140F2B000C2F20000C0E90058384632
:1028900000F0B0FD804640F2D820C2F20000D0E93E
:1028A000002340460F4600F0B7FC40F2C024C2F2BD
:1028B00000040646D4E900020D46114632462B4676
:1028C00000F064F9C4E9000140F2A800C2F200007F
:1028D000C0E9006540F2D820C2F20000C0E90087DC
:1028E00040F2E020C2F20000C0E9009AFDF7E8FEE5
:1028F00040F21801C2F200010A6840F2BC01C2F2C3
:10290000000140F2EC230968C2F20003186010468F
:1029100000F092FF00F06EFD054640F21000C2F29A
:10292000000000680E4600F065FD40F2C822C2F2C9
:1029300000020CCA00F072FB2A46334600F026F96A
:10294000054640F20800C2F2000000680E4600F0A2
:1029500051FD40F2B002C2F200020CCA00F05EFB70
:102960002A46334600F012F900F012FB814640F28D
:10297000140040F2B801C2F20000C2F20001006887
:10298000096840F2A002C2F20002C2F8009000F012
:1029900053FF00F02FFD054640F20C00C2F200008C
:1029A00000680E4600F026FDD4E9002300F036FB57
:1029B0002A46334600F0EAF8054640F20400C2F227
:1029C000000000680E4600F015FD40F2A802C2F2B9
:1029D00000020CCA00F022FB2A46334600F0D6F86B
:1029E00000F0D6FA40F2F02340F29C0240F2D027E9
:1029F000C2F20003C2F20002C2F2000719681060BE
:102A00003A68494410441960386040F2F020C2F23C
:102A100000000068B0F57A7F02DB40F2E73006E0A4
:102A200010F57A7F4FF61940CFF6FF7004DC40F2C4
:102A3000F021C2F20001086040F20030C2F2000052
:102A40000068002100F064FD58B140F2F020C2F2AD
:102A50000000006828B140F2F020C2F2000000211E
:102A6000016040F2F020C2F200000668002E07D498
:102A700040F2C1000125C2F200000570002207E00B
:102A800040F2C1000025C2F200007642012205702A
:102A900058468021FDF70EFE584640212A46FDF794
:102AA00009FE40F26010C2F200000068C66340F206
:102AB000D020C2F200000068B0F57A7F02DB40F25D
:102AC000E73006E010F57A7F4FF61940CFF6FF7039
:102AD00004DC40F2D021C2F20001086040F2F8208C
:102AE000C2F200000068002100F012FD58B140F26F
:102AF000D020C2F20000006828B140F2D020C2F21B
:102B000000000021016040F2D020C2F200000668FF
:102B1000002E3FF552AD40F2C0000125C2F2000088
:102B20000570002251E5000021F0004201F0004351
:102B3000A2F16052B2F5801F28BFD2F17F6C0BD991
:102B40005FEA001C43EAC20242EB507018BF7047B4
:102B500028BF20F001007047B2F5801FBCBF1846A7
:102B600070474FEA410C1CF5001F02D2084600F0E6
:102B70002ABF70B500F0FCFA00000089FFF7F6BF2D
:102B80004FF00040A0F580007047000010B591EABA
:102B9000030F48BF83F0004300F14683841A71EBB2
:102BA000030C05D2121943EB0C03001B61EB0C0163
:102BB0004FEA1154A4EB135CDFF81CE11EEA430F4B
:102BC00018BF9EEA445F00F0748021EA045123EAB2
:102BD0000E0343F48013DCF1200E32D322FA0CFEF4
:102BE00010EB0E0023FA0CFE41EB0E01CCF1200E8F
:102BF00003FA0EFE10EB0E00CCF1200E51F1000195
:102C0000B1F5801F32D201EB045112FA0EF2BDE889
:102C1000104058BF7047401C38BF5FEA420218BFDF
:102C20007047002814BF20F0010041F100014FEA75
:102C3000410313F5001F38BF7047A1F1C04100F0F8
:102C4000E5BA012A43EB0302ACF1200CDCF11F0EC4
:102C500032BF4FF0000E23FA0CF310EB030041EBF0
:102C60000451B4EB115FD0D0A1EB045101F58011F8
:102C7000490801EB04515FEA30000ED350F1000027
:102C800038BF12FA0EFE08D1BDE81040C9E7401C5B
:102C900038BF5FEA4202CAD1C3E7BDE810404FEA3D
:102CA000410313F5001F38BF7047A1F1C04100F088
:102CB000ADBA9EEA445F08D011EA5E0FBDE810404D
:102CC00004BF01F0004100207047BDE8104070B51E
:102CD00000F04EFA64FBBE3E0000E0FF2DE9C0416B
:102CE00030B4DFF8A4C23CEA111418BF3CEA131454
:102CF00000F0ED801CEA111481EA030544EAD57462
:102D000018BF1CEA131500F0C880A4EB050404F1F9
:102D10007F7404F500344FF0004545EAC12145EACF
:102D2000C32341EA505143EA52534FEAC0204FEACD
:102D3000C222994208BF904200F09D804FEA13657D
:102D40000FF24416765D4FEA134506FB05F7C7F10F
:102D5000807706FB07F74FEAD737A7FB0368764271
:102D6000A7FB06CEC8F5803838BFA8F1010807FBDD
:102D700008E6A6FB028C4FF0000EE6FB03CEDCF16A
:102D8000000CCEF1004E38BFAEF1010EA6FB0C5880
:102D90004FF00007E6FB0E87A1FB08C6A0FB07CE9D
:102DA00016EB0E064FF0000545F10005E1FB076547
:102DB00015F1E04E7EBFA4F580345FEA46066D4112
:102DC00016F1800745F100054FEA172747EA056726
:102DD0004FEA15254FEA0666A6F1DE46B6F1805F9A
:102DE00020D9384605EBC47124F0010C01EB0C111D
:102DF000BCF1FE6F02D8F0BCBDE8008124425CBF8C
:102E000001F5801E9EEAC47F02D4F0BCBDE80081BB
:102E1000244200F13980A1F1C041F0BCBDE800417D
:102E200000F0F4B94FEAD02040EA41504FEAD121F6
:102E30004FEAD22242EA43524FEAD323A7FB02864B
:102E400007FB036605FB02661EEA0E0F58BFA6EBE2
:102E50000056B6EB00564FEA520E4EEAC37E18EB10
:102E60000E0E56EB530EBCD518EB02085E417F1CCC
:102E700055F10005B5E74FF480154FF000074FF00E
:102E800000064FF00008ACE701F1C04101F000413D
:102E90004FF00000F0BCBDE800810CEA131511EA08
:102EA0000C1F00D00CE013EA0C1F00F026804FF03E
:102EB000000081EA030101F00041F0BCBDE800819F
:102EC000F0BCBDE8004181EA030100F09FB9F0BC0D
:102ED000BDE8004170B500F04BF900BF097EFC3E33
:102EE00000F007B84FF0000081EA030101F0004153
:102EF000704781EA030100F089B9F0BCBDE80041E8
:102F000022494FF000007047FFFDFBF9F7F5F4F29E
:102F1000F0EEEDEBE9E8E6E4E3E1E0DEDDDBDAD874
:102F2000D7D5D4D3D1D0CFCDCCCBCAC8C7C6C5C4D2
:102F3000C2C1C0BFBEBDBCBBBAB9B8B7B6B5B4B3E9
:102F4000B2B1B0AFAEADACABAAA9A8A8A7A6A5A4D4
:102F5000A3A3A2A1A09F9F9E9D9C9C9B9A99999898
:102F60009797969595949393929191908F8F8E8E3B
:102F70008D8C8C8B8B8A89898888878786858584C8
:102F800084838382828181800000FF070000F87FB4
:102F90004FEA41034FEA5353A3F58063D3F11E0375
:102FA000C8BFD3F1210C0CDD4FF0004242EAC12230
:102FB00042EA505232FA03FC8CEAE17CACEBE1705D
:102FC0007047102BC4BF0020704703F5787CBCF11C
:102FD000FF3F04D06FF0004282EA2100704770B5D5
:102FE00000F0C6F84992248000207047F2E710F004
:102FF000004248BF4042B0FA80F310FA03F10AD011
:10300000C3F11D0303F5806302EB03524FEA415005
:1030100002EBD12170474FF00000704770B5DFF828
:1030200048C11CEA111E1EBF1CEA13159EEA0C0FB4
:1030300095EA0C0F00F06F8081EA03044EEAD47E1B
:10304000AE4421EA4C1123EA4C1341F4801143F4BD
:103050008013AEF17F7EA1FB024CA0FB0365361905
:1030600055EB0C05A1FB034C4CF10003A0FB021C2B
:1030700016EB0C06654153F10003094218BF46F0F8
:10308000010613F4007F0BD14FEA03314FEA0530FC
:1030900041EA155140EA165034036FF003020AE08A
:1030A0004FEAC3214FEAC52041EA555140EA565044
:1030B000F4026FF0020202EB2E4201EB025585EAA8
:1030C000CE710AD05FEA440C18BF24F0004450F1DE
:1030D000000041F1000120EAD47040F2FE7C62451C
:1030E00000D270BDA84214BF4FF080444FF040445E
:1030F000002E08BF0024BEF1806FA8BFA1F1C0411F
:10310000BDE8704080F2828001F1C04101F00041D1
:103110004FF0000070470CEA13159EEA0C0F18BF21
:1031200095EA0C0F06D081EA030E4FF000000EF076
:10313000004170BD00F01CF88900013E00F007B8A6
:1031400000F009B84FEA430C5FEA5C5C08D081EA02
:10315000030100F05BB84FEA410C5FEA5C5CF6D11A
:1031600002494FF0000070470000FF070000F87FA1
:103170000EF1020E2EF0030E5EF8046B364205D4FB
:10318000012A43EB030515F5001F12D8012841EB76
:10319000010C1CF5001F0CD80ED14FEAD17C0CEBB2
:1031A0004C0C0CF1020C15F5001F08BF4CEBD37C46
:1031B00004E04FF0080C01E04FEAD37C0CEB4C0527
:1031C00026FA05F606F00706B6F1040C06D20EEB59
:1031D000860CBDE870404CF0010C6047DFE80CF055
:1031E000090B02024FF00041A1F500214FF0000051
:1031F00070BD19461046012851EB010418BFD4F5E3
:10320000001484BF002001F0004170BD0808A0F543
:1032100000114FEA3101704710B591EA030F48BF22
:1032200083F000433FF5BAAC841A71EB030C07D26C
:103230008CF0004C121943EB0C03001B61EB0C01EA
:103240004FEA1154A4EB135CDFF8A4E11EEA430F2C
:1032500018BF9EEA445F00F0B48021EA045123EADB
:103260006E035242C3EB6E0338BF5B1EDCF1200ECF
:1032700025D322FA0CFE10EB0E0043FA0CFE41EBB4
:103280000E01CCF1200E03FA0EFE10EB0E00CCF175
:10329000200E51F1000129D401EB045112FA0EF273
:1032A000BDE8104058BF7047401C1CBFB2F1004F32
:1032B000704700280CBF491C20F00100704712EB3A
:1032C000020E43EB030218BF4FF0010E4EEA42021A
:1032D000ACF1200CDCF11E0E56D943FA0CFE10EBBB
:1032E0000E00CCF11E0E51F1FF31D5D50EF1010EBD
:1032F00012FA0EFE404141EB010101EB445C5FEA32
:103300005C5C10D901EB045110EBDE7038BFBEF1EC
:10331000004FBDE8104018BF704700280CBF491C83
:1033200020F00100704734D24FEAD42C24F400641A
:1033300011F500111BD0B1FA81F20B3AA41AA41EA8
:10334000D2F12003914030FA03F31943904001EB8E
:10335000CC7101EB0451002CBDE81040A8BF7047B0
:1033600001F1C04101F000414FF000007047B0FA98
:1033700080F310FA03F102D1BDE810407047E41A5F
:10338000173C4805C90AE2E701EB0451BDE81040CB
:10339000704749104FEA300001EB0451BDE810407E
:1033A00002E04FF0000170474A0008BF0042F8D029
:1033B000B2F5001F28BF704701F000414FF0000038
:1033C00070479EEA445F07D011EA5E0FBDE81040E7
:1033D00004BF002100207047BDE8104070B5FFF722
:1033E000C7FE00BF40DFF63E104683F00041704745
:1033F0000000E0FF43004FEAD30C4FEA3C0C43408F
:103400001FBF40070CF1605113F0FE4F70471CF0D6
:10341000006F03D10CF00041002070470CF0004316
:1034200043EA507040EACC0010B500F086FA00BFC5
:10343000000000924FEA0001FFF7E8BE4FF00041A4
:10344000A1F500214FF000007047000090EA010F45
:1034500048BF81F0004100F1C282421A3CBF801A8D
:1034600089184FEAD052A2EBD1534FF07F4C1CEA9F
:10347000410F18BF9CEA026F00F03B804FF0004CF8
:103480004CEA00204CEA012121FA03FC10EB0C0C61
:103490001ED202F1FF325FEA1C2040EBC25038BF5F
:1034A00070471CF07F0F4FEA400C18BFBCF17F4FF4
:1034B00038BF7047C3F12003994008BF20F00100D6
:1034C000BCF17F4F38BF7047A0F1C04000F07BBA1D
:1034D0004FEA3C00000A40EBC25028BF1CF0FF0F2F
:1034E0004FEA400CE6D018BFBCF17F4F38BF7047A1
:1034F000EAE79CEA026F05D010EA5C0F08BF00F013
:103500000040704710B500F018FA00BF64FBBE3EE3
:1035100010B500F0F5F80CBF0120002010BD10B56B
:1035200000F0EEF814BF0120002010BD10B500F02F
:103530001BF98CBF0120002010BD10B500F014F95C
:103540002CBF0120002010BD10B500F041F994BF40
:103550000120002010BD10B500F03AF934BF012061
:10356000002010BD401058BFC0F14040491058BF66
:10357000C1F140418142EFF3008070474FF47F0C6E
:103580001CEAD0121EBF1CEAD11392EA0C0F93EA78
:103590000C0F00F0858090EA010F48BF42F4807262
:1035A00040F4000C41F400002CF07F4120F07F40FB
:1035B00000B5A2EB030281420FF2081CACEB504EA7
:1035C0009EF800E0C0F100004FEA4E0E00FB0EFC3A
:1035D00038BF49004FEA2C1C0CFB0EF34FEACE1EFD
:1035E0000EEB635E4FEA112C0EFB0CFC4FEAC1217F
:1035F0004FEA1C5300FB031102F5FA024FEA112CAB
:103600000EFB0CFC4FEA01314FEADC4C00FB0C11C5
:1036100042EB2242C14228BF09184CEB03335DF84C
:1036200004EB10EB410143EBC250B2F57C0F38BF05
:10363000704729D512F0F00F1CBF00F1C04000F018
:1036400000407047008182838485868788898B8CBF
:103650008D8E8F919293959697999A9C9D9FA0A2FB
:10366000A3A5A7A8AAACAEB0B2B3B5B7B9BCBEC04B
:10367000C2C5C7C9CCCED1D4D7D9DCDFE2E6E9ECEC
:10368000F0F3F7FAFE0000004FEA400C0CF1807CEA
:10369000BCF17E4F28BF7047B0F1C04000F093B935
:1036A0000CEAD11390EA010F48BF42F480726245E0
:1036B00038BF634507D213F47F0F16D080EA0100AC
:1036C00000F00040704710B500F037F9097EFC3E6D
:1036D00000F005B880EA010000F00040704780EA81
:1036E000010000F0004000F06EB912F47F0F04BF3B
:1036F0000248704780EA010000F065B90000C07F11
:1037000050EA010C00F113801CF5000F58BFBCF506
:10371000000F01D48842704707D710F5000F58BF3B
:1037200011F5000F15D488427047894270471CF587
:10373000000F04D5BCF5000FF7D5814270474FF05C
:10374000807C1CEB400F38BF1CEB410F01D2814243
:10375000704710B500F0F1F8922449004FF0005086
:103760004FF08051FFF7FEBE50EA010C00F11380CC
:103770001CF5000F58BFBCF5000F01D488427047FC
:1037800007D710F5000F58BF11F5000F15D4884268
:103790007047894270471CF5000F04D5BCF5000F37
:1037A000F7D5814270474FF0807C1CEB400F38BF4B
:1037B0001CEB410F01D28142704710B500F0BDF8FB
:1037C000922449004FF080504FF00051FFF7CABEDD
:1037D00050EA010C00F113801CF5000F58BFBCF536
:1037E000000F01D48842704707D710F5000F58BF6B
:1037F00011F5000F15D488427047894270471CF5B7
:10380000000F04D5BCF5000FF7D5814270474FF08B
:10381000807C1CEB400F38BF1CEB410F01D2814272
:10382000704710B500F089F8922449004FF000501D
:103830004FF08051FFF796BE4FF47F0C1CEAD01278
:103840001EBF1CEAD11392EA0C0F93EA0C0F00F092
:10385000478090EA010F48BF42F480724FF0004C5D
:103860004CEA00204CEA012102EB0302A0FB011309
:10387000A2F50002002918BF43F001035B0028BF36
:103880004FEA330342EB22425FEA132C4CEBC25067
:103890002EBFBCEB436FB2F57C0F70474FEA036C51
:1038A000BCF1004F08BF20F00100B2F57C0F38BF1B
:1038B00070470BD582F0FF0212F5803FC8BF7047FA
:1038C00000F1C040D8BF00F00040704700F5000C88
:1038D0005FEA4C0C48BF7047B0F1C04000F073B8CD
:1038E0000CEAD11390EA010F48BF42F4807262459E
:1038F00038BF634504D280EA010000F00040704701
:1039000010B500F01AF800BF8900013E00F007B8BA
:1039100000F009B85FEA410C5FEA1C6C08D080EA4D
:10392000010000F050B85FEA400C5FEA1C6CF6D171
:103930004FF00040A0F5800070470EF1020E2EF00F
:10394000030E5EF8044B244204D44FEA4102B2F164
:103950007F4F11D84FEA4003B3F17F4F0CD80ED1FF
:103960004FEAD07C0CEB4C0C0CF1020CB2F17F4F07
:1039700008BF4CEBD17C04E04FF0080C01E04FEAAB
:10398000D17C0CEB4C0324FA03F404F00704B4F1EB
:10399000040C06D20EEB840CBDE810404CF0010C78
:1039A0006047DFE80CF0070802024FF00040A0F586
:1039B000800010BD0846420018BFD2F1807288BF57
:1039C00000F0004010BDFF2141EAD050C005704713
:1039D00090EA010F48BF81F000413FF53EAD421A29
:1039E00004D882F00042A0EB020011444FEAD0520A
:1039F000A2EBD1534FF07F4C1CEA410F18BF9CEA59
:103A0000026F4AD04FF0004C4CEA00204CEA0121F2
:103A100021FA03FCB0EB0C0C0FD412F0FE0F36D0E1
:103A20005FEA4C001DD5001240EBC25038BF704712
:103A30001CF03F0F18BF70470BE05FEA1C20A2F19B
:103A4000010240EBC25038BF70471CF07F0F18BF17
:103A50007047C3F12003994014BF401E20F00100BD
:103A600070474FEA1223800808BF7047B0FA80FC05
:103A7000A2EB0C02CCF1280C60FA0CF093EA122FA6
:103A800004BF00EBC25070474FEAC3707047130A7F
:103A90005FEADC1008BF7047F6E79CEA026F04D0CB
:103AA00010EA5C0F08BF0020704710B5FFF745FF14
:103AB00040DFF63E81F00040704701020000000048
:103AC00000000000010203040607080900000000CE
:103AD0000102030402030405060708090A0B0C0D82
:103AE0000E0F1010083B0008000000202800000006
:103AF0006C010008303B000828000020E8080000A6
:103B000088010008000000000024F4000000B0401C
:103B10000000B0400AD7233C0AD7233C9A99193FAA
:103B20009A99193F010000001000000000000000F9
:0400000508000131BD
:00000001FF
