:020000040800F2
:1000000060080020CD010008512A0008492A000894
:100010004D2A000841030008E92B000800000000F9
:100020000000000000000000000000005D2A000841
:100030004503000800000000592A0008612A000852
:10004000E7010008E7010008E7010008E7010008F0
:10005000E7010008E7010008E7010008E7010008E0
:10006000E7010008E7010008E7010008E7010008D0
:10007000E7010008E7010008E7010008E7010008C0
:10008000E7010008E7010008E7010008E7010008B0
:10009000E7010008E7010008E7010008490300083C
:1000A000E7010008012B0008E7010008E70100084C
:1000B000E7010008E70100080D2B0008E701000830
:1000C000E7010008E7010008E7010008E701000870
:1000D000E7010008DD2B0008E7010008E701000840
:1000E000E7010008E7010008E7010008E701000850
:1000F000E7010008E7010008E7010008E701000840
:10010000E7010008E7010008E7010008E70100082F
:10011000E7010008E7010008E7010008E70100081F
:10012000E7010008E7010008E7010008E70100080F
:1001300000F002F800F03AF80AA090E8000C8244BF
:100140008344AAF10107DA4501D100F02FF8AFF29C
:10015000090EBAE80F0013F0010F18BFFB1A43F0A5
:10016000010318474C4300006C430000103A24BFC1
:1001700078C878C1FAD8520724BF30C830C144BF0C
:1001800004680C607047000000230024002500264E
:10019000103A28BF78C1FBD8520728BF30C148BFEA
:1001A0000B6070471FB51FBD10B510BD00F036F8CD
:1001B0001146FFF7F7FF02F019FD00F054F803B401
:1001C000FFF7F2FF03BC00F057F800000948804732
:1001D00009480047FEE7FEE7FEE7FEE7FEE7FEE729
:1001E000FEE7FEE7FEE7FEE704480549054A064B41
:1001F00070470000FD2A000831010008600200205D
:1002000060080020600400206004002070477047F0
:100210007047000000487047180000207546FFF73F
:10022000F9FFAE4605006946534620F007008546B3
:1002300018B020B5FFF7D8FFBDE820404FF000060A
:100240004FF000074FF000084FF0000BAC46ACE851
:10025000C009ACE8C009ACE8C009ACE8C00921F0AD
:1002600007018D46704710B50446AFF30080204665
:10027000BDE81040FFF7A3BF01491820ABBEFEE761
:100280002600020070470000B0B582B0044600208E
:10029000019021688A68D2074FD1886840F0010038
:1002A000886040F21000C2F2000000684DF68361E1
:1002B000C4F21B31A0FB0101880C01900198A0B190
:1002C000019801380190019878B1019801380190A6
:1002D000019850B1019801380190019828B1019816
:1002E0000138019001980028EAD100F0EFFD216863
:1002F0008968C9071CD1054603E000BF8068C007B4
:100300001AD100F0E3FD411B20680329F6D3816870
:10031000C907F3D1A06A40F01000A062E06A40F083
:100320000100E062002084F82400012002B0B0BD8A
:10033000002002B0B0BD00BF002002B0B0BD000080
:10034000FEE700007047000080B5202000F0A8FC08
:10035000402000F0A5FC802000F0A2FC4FF480704B
:10036000BDE8804000F09CBCB0B581B00022009296
:1003700090F82420012A03D10221084601B0B0BD23
:100380004B680122062B80F8242023D8D0F800C027
:1003900003EB830362465D1F1F2352F834EF03FA19
:1003A00005F40B682EEA040E03FA05F444EA0E0580
:1003B000092B15602DD8DCF8102003EB430307252B
:1003C00089689D40AA4399401143CCF81010002140
:1003D0003FE000BFD0F800C00C2B624606D852F8B0
:1003E00030EF03EB8303A3F1230405E052F82CEF75
:1003F00003EB8303A3F141041F2303FA04F50B6805
:100400002EEA050E03FA04F444EA0E05092B1560E2
:10041000D1D903EB4305DCF80C201E3D0724896885
:10042000AC40A243A940114323F00102102ACCF8AA
:100430000C100DD142F20841C4F20101A1F10802F1
:1004400094450DD0816A41F020018162012100E0D4
:100450000021002280F82420084601B0B0BD00BF72
:100460000A68120230D40A68102B42F400020A60B3
:100470002CD140F21001C2F2000109684DF68362EE
:10048000C4F21B32A1FB0212910C01EB8101490065
:1004900000910099E1B10099013900910099C9B129
:1004A0000099013900910099B1B100990139009189
:1004B000009999B1009901390091009900294FF0F4
:1004C0000001E8D1C5E700BF0021C2E70021C0E775
:1004D0000021BEE70021BCE70021BAE70021B8E710
:1004E0000068C06C70470000002804BF01207047FE
:1004F00070B50646044656F8280F28B1216888686A
:10050000C0070CD115E000BF0020E06284F8240091
:10051000204600F0A7F821688868C00709D08868DD
:1005200020F00100886000F0D1FC21688A68D207C1
:1005300030D13068C00644D4A06A41F20212904320
:100540000230A062E36981F0804080F49E3083F441
:100550004022104308BF4FF40023D4E9010243EACC
:10056000000C531EB3FA83F35D091346B2F5807F86
:1005700018BF2B02207D257B01284CEA450030D195
:1005800035B3A56A45F02005A562E56A45F0010589
:10059000E56226E0054602E08868C007C9D000F0A1
:1005A00095FC401B21680328F6D38868C007F3D068
:1005B000A06A40F01000A062E06A40F00100E06232
:1005C000A06A306840F010010120316070BD00BFAA
:1005D000D4F818C04EF60005CFF6FF7505EB4C3584
:1005E0002B434D68B2F5807F25F4694543EA050346
:1005F0004B608B684FF2FD75CFF6E17503EA05039A
:1006000043EA00038B6001D0012A07D1226900234D
:10061000CFF6F07303EB025201E000BF0022CB6A79
:1006200023F470031A43CA62896840F6FE62CFF66B
:100630001F721140814207D10020E062A16A0122AD
:1006400062F30101316070BDA06A40F0100020F03B
:100650000200A06254F82C0F40F001010120264650
:10066000316070BD70B586B040F60004C4F201047C
:10067000006804F5E05188424FF00000CDE9040025
:1006800002D006B070BD00BF41F21800C4F20200F3
:10069000016802AD41F4007101600168032601F4B4
:1006A000007101910199016841F010010160016838
:1006B00001F0100101910199016841F0040101600C
:1006C0000068294600F00400019001980120029082
:1006D00004F50060039600F0EFFA0820CDE9020669
:1006E0002046294600F0E8FA06B070BDF0B581B0AA
:1006F00000270D460446009700F0E8FB21688A6851
:10070000D20543D406464868C00503D4C86A10F42D
:10071000700F45D040F21000C2F2000007680220BE
:1007200000F08EFC216844F624130A69B7FBF0F050
:10073000C2F292431A4206D1CA6844F62413C0F2A8
:1007400092031A425ED00A6942F29243C1F24923EF
:100750001A4207D1CA6842F29243C0F249031A42D0
:1007600000F0C0800A6949F24923C0F224031A420A
:100770004FF0FC0257D1CF681F4208BF5422009BA4
:1007800002FB00F7BB4253D3C3E000BFA06A40F0B6
:100790002000A06284F82470012001B0F0BD00BFE9
:1007A0000868800700F1B580681C00F0A880FDB9DA
:1007B0000868800772D50868800700F1AA80086879
:1007C00080076BD50868800700F1A3800868800760
:1007D00064D50868800700F19C80086880075DD5B3
:1007E00008688007E4D594E00868800700F19180EC
:1007F00000F06CFB801B2168A842F5D908688007CF
:10080000F2D44BE00A6942F29243C1F249231A4200
:100810004FF0290207D1CB6842F29247C0F2490754
:100820003B4208BF1422009B02FB00F7BB4270D280
:10083000681C4FD055BB0098B8422FD300980130A8
:1008400000900098B84264D20098B84226D300982D
:10085000013000900098B8425BD20098B8421DD396
:100860000098013000900098B84252D20098B842E7
:1008700014D30098013000900098B842DBD348E0D0
:100880000098013000900098B84233D200F01EFB6F
:10089000801BA842F4D90098B842F1D2A06A40F077
:1008A0000400A062002084F82400032001B0F0BD01
:1008B0000098013000900098B8422AD20098013088
:1008C00000900098B84224D200980130009000981F
:1008D000B8421ED20098013000900098B842E7D389
:1008E00017E000BF5422009B02FB00F7BB429FD3DE
:1008F0000FE000BF21680CE00868800709D4086891
:10090000800706D4086880075CBF08685FEA8070CB
:10091000F2D56FF012000860A06A40F40070A06287
:10092000886800F46020B0F5602F01D1207B18B1F9
:10093000002001B0F0BD00BFA06A20F48070A0626A
:10094000A06AC004F4D4A06A40F00100A0620020B4
:1009500001B0F0BD10B5044690F82400012804BF92
:10096000022010BD012084F824002046FFF78CFCF3
:1009700020B1002184F8241010BD00BF42F2044CC5
:100980002068A16AC4F2010C40F2013291430CF5D7
:100990007F7201F580719042A16233D0A16A21F487
:1009A0008011A1624168490504D5A16A012363F35E
:1009B0000D31A162A16A0023C9044FF0000144BFB8
:1009C000E16A21F00601E1626FF0020184F824304F
:1009D0000160816801F46021B1F5602F06D1904279
:1009E0000AD1DCF8001011F4702F05D0816841F4B1
:1009F00080118160002010BD816841F4A0018160F8
:100A0000002010BDDCF8001011F4702FC6D0A16AD0
:100A100041F48011A162DCF800104905C5D4C9E792
:100A2000B0B5044690F82400012804BF0220B0BDF0
:100A30000121206884F824108168C90709D08168E1
:100A400021F00101816000F041FA21688968C9073D
:100A50000ED1214651F8280F41F2011220EA02027C
:100A6000002042F001020A60002184F82410B0BD89
:100A7000054602E08068C007EBD000F027FA411B72
:100A800020680329F6D38168C907F3D0A06A2146FC
:100A900040F01000A06251F82C2F0120E1E7000087
:100AA000014690F82100022816D10868D1E90FC349
:100AB000026822F00E020260026822F00102026067
:100AC000012000FA03F2CCF8042081F82100002074
:100AD000002281F820207047042088630120002232
:100AE00081F820207047000080B590F8211002297D
:100AF00028D1026840F2040C1368C4F2020C23F0FF
:100B00000E03136013680CF17C018A4223F001018B
:100B100011601BD940F20841C4F202018A4249D057
:100B200040F21C41C4F202018A4247D040F23041F7
:100B3000C4F202018A4245D14FF48073CCF80034EC
:100B40005DE000BF04218163012080BD4321C4F228
:100B500002018A420EDD6B21C4F202018A421BDCD3
:100B60004421C4F202018A423CD05821C4F202015D
:100B70008A4233E00821C4F202018A4236D01C21A5
:100B8000C4F202018A4237D03021C4F202018A4203
:100B900024D14FF4807230E06C21C4F202018A4209
:100BA00026D08021C4F202018A4217D14FF0807210
:100BB00023E000BF0123CCF8003420E01023CCF860
:100BC00000341CE00CF588614FF480338A4208BF82
:100BD0004FF48053CCF8003411E000BF4FF4803262
:100BE0000BE000BF4FF4805207E000BF012204E099
:100BF0004FF4801201E000BF1022CCF80020416BBE
:100C00004FF48072028401B18847002080BD00004B
:100C100010B580281AD0402818BF10BD40F600003B
:100C2000C4F2010000F50060802100F043F940F2B9
:100C30007804C2F20004F8B1A0694FF07E5103F0CD
:100C4000CFF8A0610120E07010BD00BF40F60000A9
:100C5000C4F20100402100F02DF940F27804C2F204
:100C6000000498B1206A4FF07E5103F0B9F8206279
:100C70000120207110BD00BFE0694FF07E5103F0EC
:100C8000AFF8E0610020E07010BD00BF606A4FF077
:100C90007E5103F0A5F860620020207110BD0000B5
:100CA00040F21441C4F201010A68024214BF086014
:100CB0007047FFF7ADBF00002DE9F04F82B0D1F8CB
:100CC00000C0BCF1000F00F0F180A0F1804241F6BD
:100CD0000045A2F58432C4F2010540F2004E4FEA0D
:100CE000B2240627A842C4F2010E08BF0527052C2E
:100CF0004FF000044FF001084FF00F034FF0000ACF
:100D00004FF0000B38BF4FEAB22700970AE000BF50
:100D1000D1F800C00AF1010A3CFA0AF204F1040415
:100D200000F0C48008FA0AF91CEA090FF0D04E68F6
:100D30004FF6FF72C1F21002964211DC122E55D806
:100D4000DFE806F0340A444854545454545454547C
:100D500054545454544C5000D1F80CB046E000BFE9
:100D60004FF6FF72C1F2210296420FDC0022C1F25F
:100D7000110296421AD00022C1F21202964215D0F8
:100D80000022C1F22102964210D02FE00022C1F2CF
:100D9000220296420AD00022C1F23102964205D0C8
:100DA0000022C1F23202964220D100BF8A684AB1C5
:100DB000012A14BFC0F81490C0F810904FF0080B2F
:100DC00014E000BF4FF0040B10E000BFCA6802F14E
:100DD000080B0BE04FF0000B08E000BFCA6802F1FF
:100DE000040B03E0CA6802F10C0B00BF2246064662
:100DF000BAF1080F24BF203A0436376803FA02F527
:100E0000AF430BFA02F23A433260CA79D2067FF559
:100E10007FAF41F21807C4F202073A684FF6084361
:100E200042F001023A603A68CFF6FF7302F0010225
:100E30000192019A2AF0030272440F25D75804F058
:100E40000C06B540AF43009D05FA06F63743D75070
:100E50004E680F23F203DEF8002054BF22EA090295
:100E600042EA0902CEF80020DEF80420B70354BF9E
:100E700022EA090242EA0902CEF80420F702DEF86B
:100E8000082054BF22EA090242EA0902B70240F2EE
:100E90000C47CEF80820C4F201073A6854BF22EA92
:100EA000090242EA09023A6032E700BF02B0BDE837
:100EB000F08F00008068084018BF012070470000D4
:100EC000002A08BF090401617047000040F2582061
:100ED000C2F200000068704740F2080040F258215A
:100EE000C2F20000C2F2000100780A6810440860F3
:100EF0007047000080B542F20000C4F202000168B1
:100F000041F010010160032000F08AF80F2000F08A
:100F100005F800F027F8002080BD000070B540F211
:100F20000806C2F2000640F210013278C2F2000157
:100F30004FF47A730968B3FBF2F20446B1FBF2F1A5
:100F4000084600F0AFFC0F2C4FF0010508D838B967
:100F50004FF0FF3021460022002500F035F8746084
:100F6000284670BD82B041F21800C4F20200016848
:100F7000022241F001010160016801F001010191CB
:100F80000199416841F080514160406800F0805013
:100F9000009000980420C4F20100016862F31A6115
:100FA000016002B070470000002848BF704700F0A1
:100FB0001F01012202FA01F14EF200124009CEF2A5
:100FC000000242F82010704710B54EF60C5CCEF2CD
:100FD000000CDCF80030C3F3022E8EF00704042C62
:100FE00028BF0424BEF103034FF0FF3E0EFA04F4C1
:100FF00038BF0023A14399400EFA03F39A4300F04F
:101000000F03043B1143634409010C3300F16042B8
:10101000B0F1FF3FC8BF02F56443197010BD000076
:101020004EF60C51CEF200010A684FF6FF031A404B
:1010300060F30A2242F0806040F0FD700860704763
:1010400080B5411E0F294FF0000039D8DFE801F0CC
:101050000C2A380838383808383838383838383AA8
:10106000BDE8804000F00ABA41F20400C4F2020078
:10107000C16940F202320A40B2F5817F04BF4FF4E9
:10108000004080BD01F44071B1F5407F4CD0B1F516
:10109000007F51D1006A49F64041800701EAE070C3
:1010A00080BD00BF00F0D6F941F20401C4F2020194
:1010B00009680222C1F3813102EB4101B0FBF1F07A
:1010C00080BD00BF41F20401C4F202010A6851F878
:1010D000040CC0015CBF002080BDC2F3834017A395
:1010E000185CD20306D440F60012C0F23D02504311
:1010F0000CE000BF0A6815A3C2F340429A5C41F2BB
:101100000023C0F27A03B3FBF2F2504309684902AC
:1011100048BF80BD4AF6AB214000CAF6AA21A0FB19
:101120000101480880BD00BF50F8040C4FF2244173
:10113000800301EAE07080BD002080BD0203040549
:10114000060708090A0B0C0D0E0F10100102000013
:101150002DE9F04182B00446007841F21C06C00738
:10116000C4F202064AD0306810F0805808D13068C6
:1011700040F080503060306800F08050019001985D
:1011800047F20007C4F200073868C00512D4386877
:1011900040F480703860FFF799FE05463868C00556
:1011A00008D4FFF793FE401B6428F7D9032002B050
:1011B000BDE8F081706810F4407012D0616801F4ED
:1011C000407188420DD0706840F24042C4F2422221
:1011D000012320F4407113600023C0071360716085
:1011E0002AD17068616820F440700843B8F1000F9C
:1011F000706003D1306820F0805030602068810733
:1012000007D556F8181CA26821F44041114346F84E
:10121000181CC00604D4002002B0BDE8F08100BF55
:1012200056F8180C616920F48000084346F8180C41
:10123000002002B0BDE8F081FFF748FE054641F20C
:10124000883700BF70688007CBD4FFF73FFE401B94
:10125000B8424FF00300F5D9EBE7000070470000FB
:101260002DE9F04381B0002800F0858042F20008AB
:10127000C4F202080446D8F800000D4600F007004A
:1012800088420CD2D8F8000020F007002843C8F8A4
:101290000000D8F8000000F00700A8426BD12068D9
:1012A00041F204098107C4F2020917D5410705D5A7
:1012B000D9F8001041F4E061C9F80010010705D524
:1012C000D9F8001041F46051C9F80010D9F80010A5
:1012D000A26821F0F0011143C9F80010C00741D104
:1012E000D8F8000000F00700A8420CD9D8F8000098
:1012F00020F007002843C8F80000D8F8000000F0EC
:101300000700A84237D12068410707D5D9F8001057
:10131000E26821F4E0611143C9F80010000708D524
:10132000D9F80000216920F4605040EAC100C9F8F2
:101330000000D9F8002002F00C00082841F200203B
:10134000C0F27A0050D144F2A043C2F38341C0F608
:101350000003595CD2033BD440F60010C0F23D00BC
:10136000484341E0606802280AD001282AD159F890
:10137000041C890308D4012001B0BDE8F08300BF3C
:1013800059F8041C8901F6D5D9F8001021F00301A1
:101390000843C9F80000FFF799FD064641F2883777
:1013A000D9F80000616800F00C00B0EB810F97D015
:1013B000FFF78CFD801BB842F2D9032001B0BDE8D5
:1013C000F08300BF59F8041C8907D4D5DCE700BFBF
:1013D000D9F8002044F28643C2F34042C0F600032D
:1013E0009A5C4843B0FBF2F0D9F8001044F288420E
:1013F000C1F30311C0F60002515C40F2100220FA62
:1014000001F140F20C00C2F200000068C2F20002DA
:101410001160FFF783FD002001B0BDE8F0830000FC
:101420004C20C4F2422001210160704740F21000BC
:1014300041F20401C2F20000C4F20201006809682E
:1014400044F29842C1F30221C0F60002515CC84048
:101450007047000040F2100041F20401C2F20000A7
:10146000C4F202010068096844F29842C1F3C22143
:10147000C0F60002515CC8407047000041F2040C05
:10148000C4F2020CDCF8003003F00C00082841F232
:101490000020C0F27A0018BF704744F2A041C3F3A5
:1014A0008342C0F600018A5CD90305D440F60010DF
:1014B000C0F23D0050437047DCF8001044F2864310
:1014C000C1F34041C0F60003595C5043B0FBF1F05A
:1014D0007047000010B541F20804C4F2020420680D
:1014E000000658BF10BDFFF7B9FE8020A07010BDE8
:1014F0002DE9F04182B0002868D00446007841F21E
:101500000006C007C4F2020625D0706800F00C0087
:1015100004281BD0706800F00C00082802D1706805
:10152000C00313D46068002800F06881B0F5A02FD4
:1015300000F07C81B0F5803F00F07C81306820F4C1
:1015400080303060306820F4802076E1306880039D
:1015500001D56068D0B32078800718D5706810F086
:101560000C0F07D0706800F00C0008286ED170686E
:10157000C0036BD43068800702D52069012825D1CB
:101580003068616920F0F80040EAC10030602078DE
:1015900000071FD42078400732D4E56995B1706800
:1015A00000F00C00082840F08F80012D0ED07068EC
:1015B000216A00F480328A4208D1616A00F4701016
:1015C000884203D1002002B0BDE8F081012002B0C2
:1015D000BDE8F081A069002862D00020C4F242205A
:1015E0000121C0F88014FFF771FC0546706A80077E
:1015F00000F18C80FFF76AFC401B0228F6D92AE133
:10160000F06910F0805808D1F06940F08050F06126
:10161000F06900F080500090009847F20007C4F293
:1016200000073868C00529D4386840F480703860F5
:10163000FFF74CFC054600BF3868C0051ED4FFF715
:1016400045FC401B6428F7D905E100BF206900284C
:1016500040F20000C4F2422000F0828001210160CB
:10166000FFF734FC054600BF306880073FF588AFC0
:10167000FFF72CFC401B0228F6D9ECE0E0680028BC
:1016800000F08080052800F09780012800F0988005
:10169000306A20F001003062306A20F0040092E0ED
:1016A0000020C4F242200021C0F88014FFF70EFC95
:1016B000054600BF706A80077FF56CAFFFF706FC38
:1016C000401B0228F6D9C6E00027C4F242270020BA
:1016D0003866FFF7FBFB022D05460BD13068800111
:1016E00040F1BE80FFF7F2FB401B02284FF00300E1
:1016F000F4D968E7306880017FF564AFFFF7E6FB57
:10170000401B02284FF00300F4D95CE740F21000C0
:10171000C2F20000006844F6D351C1F26201A0FB9E
:101720000101480A019000BF00BF0198411E002836
:1017300001913FF42FAF00BF0198411E0028019195
:101740003FF428AF00BF0198411E002801913FF4EB
:1017500021AF00BF0198411E00280191E4D119E793
:1017600000210160FFF7B2FB054600BF306880072B
:101770007FF50DAFFFF7AAFB401B02284FF00300D7
:10178000F4D920E7306A20F001003062306A20F09E
:1017900004003062FFF79AFB054641F2883700BF2C
:1017A000306A800720D5FFF791FB401BB8424FF00D
:1017B0000300F5D907E700BF306A40F0040030624B
:1017C000306A40F001003062FFF780FB054641F2CD
:1017D000883700BF306A800706D4FFF777FB401BCD
:1017E000B842F7D937E000BFB8F1000F7FF4D5AEAB
:1017F000F06920F08050F061CFE600BF306820F43F
:1018000080303060306820F480203060FFF75EFB6D
:10181000054600BF306880037FF59DAEFFF756FB9D
:10182000401B64284FF00300F4D9CCE6306840F444
:1018300080203060306840F480303060FFF746FB35
:10184000054600BF306880033FF585AEFFF73EFBDD
:10185000401B6428F6D9032002B0BDE8F08100BF28
:10186000206AB0F5803F05D17168A26821F400318B
:10187000114371607168626A21F474111043084366
:10188000706001203866FFF721FB04463068800154
:101890003FF598AEFFF71AFB001B02284FF003003C
:1018A000F4D990E6411E0020B0EB116F1CBF01205F
:1018B00070474EF21002CEF2000251604EF62351F4
:1018C000CEF20001F0230B70072190601160704789
:1018D000704700007047000010B590F83C20012AC6
:1018E0004FF002023FD080F83D200268D2F804E0B9
:1018F000D2F808C00C682EF07003234340F6FF3482
:10190000C4F20004A242536010DCB2F1804F1FD039
:1019100040F20043C4F200039A4219D040F600039B
:10192000C4F200039A4213D017E000BF40F6004310
:10193000C4F200039A420BD043F20043C4F2010305
:101940009A4205D042F60043C4F201039A4204D100
:1019500049682CF08003194391600121002280F82E
:101960003D1080F83C20104610BD0000002804BF48
:101970000120704710B5044690F83D0028B90020BA
:1019800084F83C00204600F085F8022084F83D00F1
:10199000206840F6FF330268C4F2000343F2004CB3
:1019A0009842C4F2010C21DCB0F1804F2CD040F2FF
:1019B0000041C4F20001884226D040F60001C4F282
:1019C0000001884220D0984224DCB0F1804F2FD013
:1019D00040F20041C4F20001884229D040F60001E3
:1019E000C4F20001884223D026E000BF40F6004147
:1019F000C4F20001884207D0604505D042F600419C
:101A0000C4F201018842DED1A16822F070020A43CB
:101A10009842DADD40F60041C4F20001884207D066
:101A2000604505D042F60041C4F20101884203D16D
:101A3000216922F440720A43A36922F08001D4F89C
:101A400004E0E268194360450160C262C0F828E022
:101A500005D042F60041C4F20101884201D161691A
:101A6000016301214161002084F8461084F83E1092
:101A700084F83F1084F8401084F8411084F8421034
:101A800084F8431084F8441084F8451084F83D101D
:101A900010BD000080B582B0006840F2FF71C4F252
:101AA0000001884218DCB0F1804F3DD040F2004187
:101AB000C4F20001884244D141F21C00C4F2020089
:101AC000016841F002010160006800F0020001902D
:101AD000019802B080BD00BF40F60001C4F20001D1
:101AE000884231D042F60041C4F20101884228D137
:101AF00041F21C00C4F2020050F8041C002241F420
:101B0000006140F8041C50F8040C002100F400604F
:101B1000019001981920FFF757FA192002B0BDE88B
:101B20008040FFF741BA00BF41F21C00C4F202003E
:101B3000016841F001010160006800F001000190BE
:101B4000019802B080BD00BF41F21C00C4F2020047
:101B50000168002241F0040101600068012100F0E9
:101B60000400019001981E20FFF72EFA1E2002B0FB
:101B7000BDE88040FFF718BA90F83D1001291CBF5E
:101B800001207047022180F83D10006840F6FF32C6
:101B9000C168C4F20002904241F00101C1600FDC53
:101BA000B0F1804F1ED040F20041C4F200018842E3
:101BB00018D040F60001C4F20001884212D018E0AB
:101BC00040F60041C4F2000188420BD043F20041CC
:101BD000C4F20101884205D042F60041C4F201017D
:101BE000884206D1816801F00701062904BF002060
:101BF0007047016841F0010101600020704700005A
:101C000080B590F83C20012A4FF0020200F0BF801E
:101C100080F83D20D0F800C04FF67772DCF808302D
:101C200023EA0202CCF808200B683F2B1CDD5F2B57
:101C300020DD602B50D0B3F5005F6DD0702B40F0ED
:101C4000A080D1E901E3C968DCF8082043EA0E036B
:101C500022F47F4243EA01211143CCF80810DCF85A
:101C6000081041F077018AE01F2B29DC63B3102BA9
:101C70002AD086E0402B63D0502B40F08280D1F8F0
:101C800004E0C968DCF82030DCF8202022F00102F2
:101C9000CCF82020DCF8182022F0F00242EA0111F2
:101CA00023F00A0242EA0E02CCF81810CCF82020E9
:101CB000DCF8081041F0570121F020015FE000BF7F
:101CC000202B01D0302B5CD1DCF8081021F0700102
:101CD000194341F0070152E0D1F804E0C968DCF88B
:101CE000203023F01003CCF82030DCF81830DCF87A
:101CF000202023F4704322F0A00243EA013142EA9B
:101D00000E12CCF81810CCF82020DCF8081041F0A6
:101D1000670121F0100132E0D1E901E3C968DCF884
:101D2000082043EA0E0322F47F4243EA01211143D3
:101D3000CCF80810DCF8081041F480411FE000BF27
:101D4000D1F804E0C968DCF82030DCF8202022F06B
:101D50000102CCF82020DCF8182022F0F00242EA40
:101D6000011123F00A0242EA0E02CCF81810CCF856
:101D70002020DCF8081041F0470121F03001CCF8B8
:101D800008100121002280F83D1080F83C20104608
:101D900080BD00007047000010B501680446086966
:101DA000800744BFC8685FEA807039D4086940077B
:101DB00044BFC8685FEA40703ED40869000744BF6A
:101DC000C8685FEA007045D40869C00644BFC868A7
:101DD0005FEAC0604AD40869C0071CBFC8685FEAF0
:101DE000C07051D10869000644BFC8685FEA00604E
:101DF00052D40869400644BFC8685FEA406053D4C3
:101E00000869800646BFC8685FEA806010BD6FF051
:101E1000200220460A61BDE81040FFF75BBD00BF0D
:101E20006FF002000861012020778869800743D0A5
:101E30002046FFF7AFFF45E06FF004000861022085
:101E40002077886910F4407F40D02046FFF7A2FF3A
:101E500042E000BF6FF00800086104202077C869E5
:101E600080073DD02046FFF795FF3FE06FF0100060
:101E7000086108202077C86910F4407F3AD02046D6
:101E8000FFF788FF3CE000BF6FF0010008612046CB
:101E900000F0B2FA2168A5E76FF0800008612046E3
:101EA000FFF716FD2168A4E76FF0400008612046A7
:101EB00000F0CAFA2168A3E7204600F069F820463E
:101EC00000F026FA2168002020776FE7204600F016
:101ED0005FF8204600F01CFA2168002020776CE7AC
:101EE000204600F055F8204600F012FA2168002044
:101EF000207769E7204600F04BF8204600F008FA0A
:101F000021680020207766E780B586B0006840F23F
:101F10000041C4F2000188424FF00001CDE90411F4
:101F2000CDE9021116D0B0F1804F2ED141F2180048
:101F3000C4F20200016841F004010160006800F091
:101F40000400019001980220029040F60000C4F2C3
:101F5000010014E041F21800C4F20200016841F0EF
:101F600008010160006800F008000190019802205B
:101F7000029040F60000C4F2010000F580600221EA
:101F80000391059102A9FEF797FE06B080BD0000FF
:101F9000704700002DE9F04190F83C30012B04BF60
:101FA0000220BDE8F0814FEAB202032A00F2138159
:101FB000DFE802F002468ED8036843F200461A6A50
:101FC000C4F2010622F001021A621D6A1A465C6818
:101FD00052F818EF8F68D1F800C025F00205B3421F
:101FE00045EA070505D042F60047C4F20107BB42A7
:101FF00005D1CF6825F00C0527F004073D43B34217
:1020000005D042F60046C4F20106B34205D1D1E93B
:10201000056724F4407434433C432EF0730747EAC9
:102020000C075C609F614F6809695F631D629F696F
:1020300047F008079F619F6927F004079F61C7E089
:10204000036843F200481A6AC4F2010822F0100241
:102050001A621D6A1A465C6852F818EF8F68D1F848
:1020600000C025F02005434545EA071505D042F696
:102070000047C4F20107BB4207D1CF686FF04006AA
:1020800025F0C00506EA07163543434505D042F65C
:102090000046C4F20106B34207D1D1E9056724F432
:1020A000406444EA860444EA87042EF4E64747EA9B
:1020B0000C275C609F614F6809699F631D629F697F
:1020C00047F400679F619F6927F480679F617EE006
:1020D000036843F200481A6AC4F2010822F48072CD
:1020E0001A621D6A1A465C6852F81CCF8F68D1F8D4
:1020F00000E025F40075434545EA072505D042F682
:102100000047C4F20107BB4208D1CF6840F2FF4646
:102110003F0225F4406527EA06063543434505D0CE
:1021200042F60046C4F20106B34207D1D1E9056781
:1021300024F4405444EA061444EA07142CF07307CC
:1021400047EA0E075C60DF614F680969DF631D6263
:10215000DF6947F00807DF61DF6927F00407DF6107
:1021600036E000BF036843F200471A6AC4F2010771
:1021700022F480521A621A46D3F820C05D6852F8E1
:102180001C4FD1F800E08E68BB4205D042F60047F4
:10219000C4F20107BB4204D14F6925F4804545EAEA
:1021A00087152CF4005747EA063724F4E64646EA3A
:1021B0000E265D60DE614E6809691E641F62DF697C
:1021C00047F40067DF61DF6927F48067DF61090298
:1021D000136819431160002180F83C100846BDE8DF
:1021E000F0810000002804BF0120704710B50446AC
:1021F00090F83D0028B9002084F83C00204600F00B
:1022000085F8022084F83D00206840F6FF3302681C
:10221000C4F2000343F2004C9842C4F2010C21DCEA
:10222000B0F1804F2CD040F20041C4F2000188424E
:1022300026D040F60001C4F20001884220D0984226
:1022400024DCB0F1804F2FD040F20041C4F20001F5
:10225000884229D040F60001C4F20001884223D010
:1022600026E000BF40F60041C4F20001884207D0DA
:10227000604505D042F60041C4F201018842DED13A
:10228000A16822F070020A439842DADD40F600416C
:10229000C4F20001884207D0604505D042F60041F3
:1022A000C4F20101884203D1216922F440720A4339
:1022B000A36922F08001D4F804E0E2681943604584
:1022C0000160C262C0F828E005D042F60041C4F2C5
:1022D0000101884201D1616901630121416100204E
:1022E00084F8461084F83E1084F83F1084F84010BB
:1022F00084F8411084F8421084F8431084F84410A4
:1023000084F8451084F83D1010BD000070470000AF
:102310007047000041B1082910D0042914BF00F112
:10232000410200F13F020BE090F83E20012A1CBF61
:1023300001207047022280F83E2013E000F14002A5
:102340001278012A1CBF012070470222082907D0F9
:10235000042914BF80F8412080F83F2002E000BF2C
:1023600080F84020006801F01F010122036A02FA90
:1023700001F123EA01020262026A114340F6FF32D0
:10238000C4F20002904201620EDCB0F1804F25D011
:1023900040F20041C4F2000188421FD040F6000123
:1023A000C4F2000118E000BF40F60041C4F2000191
:1023B000884213D043F20042C4F2010242F60041C7
:1023C0009042C4F2010101D088420ED1436C904288
:1023D00043F40043436401D0884206D1816801F090
:1023E0000701062904BF00207047016841F0010180
:1023F000016000207047000010B5006842F60041FF
:10240000C4F2010140F278048842C2F2000417D0FD
:1024100040F60001C4F20001884218BF10BD606997
:1024200001F0B2FC49F69A1249F69913C9F69912CD
:10243000C3F6C97301F060F801F02CF86061023452
:102440000120207010BD00007047000070470000A0
:1024500070470000B0B582B0026805461068D168C8
:10246000546900F02F03202B01F0200306D12BB17B
:10247000284602B0BDE8B04000F054BB5FEA007CE3
:102480001EBF04F0010E01F4907414EB0E042DD164
:102490002B6B0840C10617D5012B15D100200190E8
:1024A000106801905068019001985069400625D449
:1024B000A88DE98DEB8D002B1CBF401A5FEA00410F
:1024C00040F0CA8002B0B0BD010645D44006F9D53F
:1024D000D068202120F04000D060284685F83D10CB
:1024E00002B0BDE8B04000F0ADBA00BFC40718BFED
:1024F00011F4807442D1440746D44CE0A86B0168C3
:102500004B689CB2002CDDD0A98D8C42DAD2EB85D1
:102510008369202B17D0D16821F48071D160516973
:1025200021F001015161516921F0400151612021E7
:1025300085F83E1000212963D16821F01001D16097
:10254000FEF7AEFAA98DE88D081A81B2284602B0CE
:10255000BDE8B040FFF77ABF95F83D002128B1D122
:10256000A868B0F5805F03D12869002800F08C804E
:10257000286A411C2962007850608CE02C6C44F081
:1025800001042C64440706D5BEF1000F03D02C6C67
:1025900044F002042C64840706D5BEF1000F03D07A
:1025A0002C6C44F004042C64BCF1000F06D553EAF3
:1025B0000E0303D02B6C43F008032B642B6C002B11
:1025C0003FF480AF0840800603D5284600F0AAFA01
:1025D0002A685069296C00F0400001F00801401899
:1025E00032D0D06820F49070D060506920F00100A3
:1025F0005061286B012803D1D06820F01000D06012
:10260000202085F83E00002028635069400615D53B
:10261000506920F040005061A86B78B142F6193142
:10262000C0F600014163FEF75FFA00283FF44AAFAD
:10263000A86B416B02B0BDE8B0400847284602B025
:10264000BDE8B040FFF704BF2846FFF701FF0020B8
:10265000286402B0B0BD00BFD16821F49071D16090
:10266000516921F001015161202185F83E100021BE
:102670002963D16821F0100381B22846D36002B0EB
:10268000BDE8B040FFF7E2BE286A30F8021B6FF3E6
:102690005F2151602862E88C01380104E8847FF4EE
:1026A00011AFD06820F08000D060D06840F04000CA
:1026B000D06002B0B0BD0000002804BF0120704708
:1026C00010B5044690F83D0028B9002084F83C007D
:1026D000204600F05FF8242084F83D002068D4E90B
:1026E0000212C36823F40053C360036923F4405308
:1026F0001A430261D4E904231143C268194341F229
:102700000C639A431143C1604169A26921F440718D
:10271000114343F60002C4F201029042416103D02A
:10272000FEF784FE02E000BFFEF794FE6268192106
:1027300048439100B0FBF1F048F21F51C5F2EB1194
:10274000A0FB01235A096FF0630302FB030032234D
:1027500003EB0010A0FB0101F02303EA51132068F2
:1027600003EB0212C1F3431111448160016921F4AA
:1027700090410161416921F02A014161C16841F440
:102780000051C16000202021206484F83D1084F8AD
:102790003E1010BD70B586B040F60044C4F201048E
:1027A000006804F5305100268842049602D006B035
:1027B00070BD00BF41F21800C4F20200016802AD12
:1027C00041F480410160016801F480410191019967
:1027D000016841F0080101600068294600F0080026
:1027E0000190019840200290022003900320059060
:1027F0002046FEF761FA8020CDE9020620462946F0
:102800000496FEF759FA0420C4F201000168002280
:1028100041F0E06141F00401016025200021FEF754
:10282000D3FB2520FEF7C0FB06B070BD034690F831
:102830003E0020280AD100294FF0010018BF002ACD
:1028400000D1704793F83C00012801D10220704765
:1028500000201863996222219A85DA85186483F82A
:102860003E10196883F83C00CA6842F48072CA605E
:102870004A6942F001024A61CA6842F02002CA6015
:102880007047000040F27800C2F200000121417060
:10289000704700002DE9F04381B0044690F83D00F8
:1028A00020280DD10F4600294FF0010000F0928042
:1028B0001646002A00F08E8094F83C00012803D1CF
:1028C000022001B0BDE8F083012084F83C004FF005
:1028D000000921201D46C4F8409084F83D00FEF711
:1028E000F5FAA684E684A1688046B1F5805F25D11B
:1028F000206900281CBF38464F463E46074684F8EC
:102900003C90E08C00B3681C20D0002D66D120687C
:102910000BE000BF36F8021B00276FF35F21416018
:10292000E18C0139E184E18C81B30168090675D538
:10293000002FEFD017F8011BF1E700BF002684F845
:102940003C90E08C0028DED120681FE0206802E087
:102950000168090609D4016809065FBF01685FEADA
:10296000016101685FEA0161F2D51FB117F8011B2F
:1029700005E000BF36F8021B00276FF35F214160BE
:10298000E18C0139E184E18C0029E4D10168490638
:102990001CD4002D42D0691C0ED10168490615D403
:1029A000016849065CBF01685FEA41610ED40168B5
:1029B0004906F2D50AE000BFFEF788FAA0EB08014D
:1029C0002068A9422AD800684006F5D5202084F85E
:1029D0003D00002001B0BDE8F08300BF206800BFCB
:1029E0000168090608D4FEF771FAA0EB0801206817
:1029F000A942F5D912E000BF17B117F8011B04E096
:102A000036F8021B00276FF35F214160E18C01392A
:102A1000E184E18C0029E3D1B8E700BFC16821F46B
:102A2000D071C160416921F001014161202084F829
:102A30003D0084F83E00002084F83C00032001B0F3
:102A4000BDE8F08370470000FEE70000FEE70000ED
:102A5000FEF740FDFEE700007047000070470000F1
:102A6000FEF73ABAB0B596B000240120CDE9114482
:102A7000CDE90F440C9010904FF480204FF480313A
:102A8000022515900CA80B94CDE90944CDE9074423
:102A9000CDE90544CDE90344CDE90144CDE90D1468
:102AA000CDE91351FEF724FD20B1EFF3108072B68B
:102AB000FEE700BF0F20CDE907054FF48060CDE9A8
:102AC0000A0407A800210994FEF7CAFB20B1EFF31E
:102AD000108072B6FEE700BF022001900020039034
:102AE00001A8FEF735FB28B1EFF3108072B600BFE6
:102AF000FEE700BFFEF794FC16B0B0BD70470000C3
:102B000040F2F400C2F20000FFF746B940F2CC10E8
:102B1000C2F20000FFF740B9406A0021C185C184BC
:102B2000FFF796BC81B090F83E10222920D183682F
:102B3000B3F5805F08D10169002941D000F1280177
:102B40000A6803685B680AE0014651F8282F13B948
:102B50000369002BF5D003685B6803F07F031370F3
:102B60000A6801320A60C18D01390A04C18501D0A9
:102B700001B070470168CA6822F02002CA60CA68C2
:102B800022F48072CA604A6922F001024A6120225E
:102B900080F83E20026B012A1CD100220263CB6820
:102BA00023F01003CB600B68DB0605D500920A68A2
:102BB0000092496800910099818D01B0FFF746BCF1
:102BC0000168826A49686FF35F2122F8021B826202
:102BD000C9E700BF01B0FFF755BE000040F2142066
:102BE000C2F20000FFF736BCFEE7000094B040F6EA
:102BF000000AC4F2010AFEF77DF9FFF733FF002651
:102C000041F218000A96C4F202000168002241F065
:102C10002001016001684FF4706801F020011091FB
:102C20001099016841F010010160016801F0100184
:102C300010911099016841F004010160016801F0F0
:102C4000040110911099016841F0080101600068C9
:102C50004FF4706100F00800109010985046FEF795
:102C60002FF92020002407AD0790C1F2110450462F
:102C70002946CDE90846FEF71FF88020CDE9070474
:102C80000227504629460997FEF716F84FF4A07020
:102C900007A951C10AF500602946FEF70DF8012089
:102CA00008A9C1C150462946CDF81C80FEF704F89A
:102CB000172002210022FEF787F91720FEF774F98A
:102CC00040F23C10C2F200004FF0804140F2E73386
:102CD0001396CDE911660F96CDE90D66CDE90B6629
:102CE000CDE90966CDE90766632280E84600C0E9C0
:102CF00003368661FEF73AFE20B1EFF3108072B61C
:102D0000FEE700BF4FF48050109040F23C10C2F23A
:102D1000000010A9FEF774FF20B1EFF3108072B627
:102D2000FEE700BF40F23C10C2F20000FFF75AFA83
:102D300020B1EFF3108072B6FEE700BF40F23C1006
:102D40000025C2F200000EA9CDE90E55FEF7C4FD24
:102D500020B1EFF3108072B6FEE700BF6020CDE92E
:102D6000070540F23C10C2F2000007A904220995B1
:102D70000B95FFF70FF928B1EFF3108072B600BF83
:102D8000FEE700BF40F23C10C2F20000FFF7BCF8C3
:102D900040F284100021AAF58232C2F200006323BF
:102DA00040F2E7371391CDE911110F91CDE90D11E3
:102DB000CDE90B11CDE90911CDE90711C0E90023D7
:102DC000C0E9021701618161FEF7D0FD20B1EFF388
:102DD000108072B6FEE700BF4FF48050109040F2B2
:102DE0008410C2F2000010A9FEF70AFF20B1EFF331
:102DF000108072B6FEE700BF40F28410C2F20000FD
:102E0000FFF7F0F920B1EFF3108072B6FEE700BFD4
:102E100040F284100025C2F200000EA9CDE90E5543
:102E2000FEF75AFD20B1EFF3108072B6FEE700BF47
:102E30006020CDE9070540F28410C2F2000007A926
:102E40000C2209950B95FFF7A5F828B1EFF3108038
:102E500072B600BFFEE700BF40F28410C2F200006D
:102E6000FFF752F840F2F40000210AF51052C2F2C6
:102E7000000045F6BF533B270A91CDE90811CDE983
:102E80001011C0E90023C0E90217C0E904118161F3
:102E9000FEF76CFD20B1EFF3108072B6FEE700BFC5
:102EA0004FF48050079040F2F400C2F2000007A9EE
:102EB000FEF7A6FE20B1EFF3108072B6FEE700BF6A
:102EC00040F2F4000025C2F2000010A9CDE910552F
:102ED000FEF702FD20B1EFF3108072B6FEE700BFEF
:102EE00040F27809C2F200090AF5E051484640F87C
:102EF0004C1F4FF4807101264FF460220673057554
:102F0000C261C0E901510661FDF7EEFA20B1EFF3AD
:102F1000108072B6FEE700BF0320CDE90706072048
:102F200009F14C05099007A92846FDF71DFA18B1CB
:102F3000EFF3108072B6FEE70A2007900220089097
:102F4000002607A928460996FDF70EFA20B1EFF3EF
:102F5000108072B6FEE700BF40F214200AF540511F
:102F6000C2F200000C234FF4E13280E84600C0E9D1
:102F70000366C0E90536C661FFF79EFB20B1EFF39B
:102F8000108072B6FEE700BF40F2CC100021AAF517
:102F90008032C2F2000045F6BF53C7270A91CDE93F
:102FA0000811CDE91011C0E90023C0E90217016141
:102FB0008161FEF7DBFC18B1EFF3108072B6FEE71B
:102FC0004FF48050079040F2CC10C2F2000007A9E5
:102FD000FEF716FE20B1EFF3108072B6FEE700BFD9
:102FE00040F2CC100027C2F2000010A9CDE9107702
:102FF000FEF772FC20B1EFF3108072B6FEE700BF5F
:103000004FF44070079002200AF5806601240A9070
:1030100007A93046CDE90847FDF74EFE30464FF48C
:1030200080710022FDF74CFF30464FF40071002202
:10303000FDF746FF40F23C10C2F200000421FFF70A
:1030400069F940F28410C2F200000C21FFF762F926
:1030500040F2F400C2F20000FEF78EFD40F2CC1008
:10306000C2F20000FEF788FD50464FF48071002246
:10307000FDF726FF50464FF400710122FDF720FFB7
:1030800050464FF480610022FDF71AFF50464FF47E
:1030900000610122FDF714FF40F2142009F1400104
:1030A000C2F200000622FFF7C1FB032010A991C164
:1030B00010A9284608E000BF0320109001201190BD
:1030C00000201290284610A9FDF74EF9002840F084
:1030D000D9812846FDF73EFC28460121FDF706FB75
:1030E0002846FDF7FDF9A9F806002846FDF798FCEB
:1030F000B9F8060000F048FC46F266634FF066320D
:10310000C4F20A0300F054FC4FF600630022C4F23C
:10311000AF0300F099FA00F0BDF9C9F828000A20C1
:1031200010900120119000201290284610A9FDF760
:103130001BF9002840F0AA812846FDF70BFC284621
:103140000121FDF7D3FA2846FDF7CAF9A9F80800CE
:103150002846FDF765FCB9F8080000F015FC46F2BA
:1031600066634FF06632C4F20A0300F021FC4FF6AA
:1031700000630022C4F2AF0300F066FA00F08AF99F
:1031800099F80010C9F82C00002962D099F8036062
:10319000A6B1D9F8180046F20001C4F26A7101F034
:1031A00031F80021C4F2702100F0B2FE41F20001BA
:1031B000C4F23D6100F0ACFEC9F8300099F804702B
:1031C000A7B1D9F8200046F20001C4F26A7101F0FB
:1031D00019F80021C4F2702100F09AFE41F20001BA
:1031E000C4F23D6100F094FEC9F83400A6B9D9F8E4
:1031F0001C0046F20001C4F26A7101F003F80021DC
:10320000CCF2702100F084FE41F20001C4F23D6175
:1032100000F07EFEC9F83000A7B9D9F8240046F2C4
:103220000001C4F26A7100F0EDFF0021CCF27021C0
:1032300000F06EFE41F20001C4F23D6100F068FE54
:10324000C9F834000020C9E90600C9E9080089F876
:10325000000099F8010000283FF42EAFB9F84100B2
:1032600000F07BFB0024C4F259040022234600F046
:10327000EBF90026C4F238060022334600F0E4F9E8
:1032800044F20008C4F28F080022434600F090FB8D
:1032900000F034FB0746B9F84400C9F80C7000F0A0
:1032A0005CFB0022234600F0CFF90022334600F0F9
:1032B000CBF90022434600F07BFB00F01FFB99F89E
:1032C0004010C9F81000012904BF7F42C9F80C70F2
:1032D00099F84310B846012904BF4042C9F81000CC
:1032E000FA0F012450464FF48061002F48BFC7F108
:1032F000000884EAD776FDF7E3FD50464FF40061FD
:103300003246FDF7DDFD40F23C10C2F200000068DD
:103310004FF48071C0F83880D9F810705046FA0F19
:10332000002F84EAD77648BF7F42FDF7C9FD50469B
:103330004FF400713246FDF7C3FD40F28410C2F233
:1033400000000068076440F20000C2F2000001685B
:103350004068069100F018FD8046D9E90C060191FD
:1033600000F012FD41F6991B49F69A12C4F2230BA4
:10337000C9F699125B4600F067F90746059030469A
:103380000C46049100F000FD49F69A12C9F6991214
:103390005B4600F059F9024603900B46029138460D
:1033A000214600F003FC019C4246234600F000FB4E
:1033B000064606980F46014600F012FD00F0E4FCB8
:1033C00002460B463046394600F03EF900F062F8FE
:1033D0000021074600F089FD002818BF0120CB46D8
:1033E0000BF8460FDDE90410DDE902324BF80E7CE4
:1033F00000F082F84246234600F0DAFA0023002269
:10340000C3F6E07300F0D4FA00F044F80021064659
:103410004BF80A0C00F069FD0024002818BF0120B9
:10342000C4F2C8248BF803003846214600F0EAFEB7
:1034300020F0004000F062FE8BF80100000A8BF8DB
:1034400002003046214600F0DDFE20F0004000F092
:1034500055FE40F214248BF80400000AC2F2000466
:103460008BF805002046594606226423FFF712FA1E
:10347000ABF1060120460622FFF7D8F900200BF831
:10348000450C19E6EFF3108072B6FEE7EFF31080FB
:1034900072B6FEE721F0004201F00043A2F1605253
:1034A000B2F5801F28BFD2F17F6C0BD95FEA001CF8
:1034B00043EAC20242EB507018BF704728BF20F0A9
:1034C00001007047B2F5801FBCBF184670474FEA35
:1034D000410C1CF5001F02D2084600F05ABF70B51F
:1034E00000F010FB00000089FFF7F6BF4FF000402E
:1034F000A0F580007047000010B591EA030F48BFA7
:1035000083F0004300F15A83841A71EB030C05D257
:10351000121943EB0C03001B61EB0C014FEA115431
:10352000A4EB135CDFF81CE11EEA430F18BF9EEA10
:10353000445F00F0748021EA045123EA0E0343F44F
:103540008013DCF1200E32D322FA0CFE10EB0E00B9
:1035500023FA0CFE41EB0E01CCF1200E03FA0EFE15
:1035600010EB0E00CCF1200E51F10001B1F5801FDF
:1035700032D201EB045112FA0EF2BDE8104058BFEE
:103580007047401C38BF5FEA420218BF70470028EE
:1035900014BF20F0010041F100014FEA410313F58F
:1035A000001F38BF7047A1F1C04100F0F9BA012AED
:1035B00043EB0302ACF1200CDCF11F0E32BF4FF0E5
:1035C000000E23FA0CF310EB030041EB0451B4EBB3
:1035D000115FD0D0A1EB045101F58011490801EB36
:1035E00004515FEA30000ED350F1000038BF12FAE8
:1035F0000EFE08D1BDE81040C9E7401C38BF5FEAA5
:103600004202CAD1C3E7BDE810404FEA410313F5B7
:10361000001F38BF7047A1F1C04100F0C1BA9EEA57
:10362000445F08D011EA5E0FBDE8104004BF01F00E
:10363000004100207047BDE8104070B500F062FA0C
:1036400064FBBE3E0000E0FF2DE9C04130B4DFF86E
:10365000A4C23CEA111418BF3CEA131400F0ED8038
:103660001CEA111481EA030544EAD57418BF1CEA68
:10367000131500F0C880A4EB050404F17F7404F571
:1036800000344FF0004545EAC12145EAC32341EA31
:10369000505143EA52534FEAC0204FEAC2229942A6
:1036A00008BF904200F09D804FEA13650FF2441668
:1036B000765D4FEA134506FB05F7C7F1807706FBF9
:1036C00007F74FEAD737A7FB03687642A7FB06CE7A
:1036D000C8F5803838BFA8F1010807FB08E6A6FB4B
:1036E000028C4FF0000EE6FB03CEDCF1000CCEF1B5
:1036F000004E38BFAEF1010EA6FB0C584FF000078C
:10370000E6FB0E87A1FB08C6A0FB07CE16EB0E0654
:103710004FF0000545F10005E1FB076515F1E04EAE
:103720007EBFA4F580345FEA46066D4116F180073E
:1037300045F100054FEA172747EA05674FEA1525C7
:103740004FEA0666A6F1DE46B6F1805F20D938461C
:1037500005EBC47124F0010C01EB0C11BCF1FE6F00
:1037600002D8F0BCBDE8008124425CBF01F5801E98
:103770009EEAC47F02D4F0BCBDE80081244200F17F
:103780003980A1F1C041F0BCBDE8004100F008BAA9
:103790004FEAD02040EA41504FEAD1214FEAD222ED
:1037A00042EA43524FEAD323A7FB028607FB036694
:1037B00005FB02661EEA0E0F58BFA6EB0056B6EBDD
:1037C00000564FEA520E4EEAC37E18EB0E0E56EB31
:1037D000530EBCD518EB02085E417F1C55F1000565
:1037E000B5E74FF480154FF000074FF000064FF09B
:1037F0000008ACE701F1C04101F000414FF00000CA
:10380000F0BCBDE800810CEA131511EA0C1F00D0D2
:103810000CE013EA0C1F00F026804FF0000081EA54
:10382000030101F00041F0BCBDE80081F0BCBDE83F
:10383000004181EA030100F0B3B9F0BCBDE80041EA
:1038400070B500F05FF900BF097EFC3E00F007B8DC
:103850004FF0000081EA030101F00041704781EA66
:10386000030100F09DB9F0BCBDE8004122494FF0D2
:1038700000007047FFFDFBF9F7F5F4F2F0EEEDEB19
:10388000E9E8E6E4E3E1E0DEDDDBDAD8D7D5D4D35E
:10389000D1D0CFCDCCCBCAC8C7C6C5C4C2C1C0BFAA
:1038A000BEBDBCBBBAB9B8B7B6B5B4B3B2B1B0AFB0
:1038B000AEADACABAAA9A8A8A7A6A5A4A3A3A2A194
:1038C000A09F9F9E9D9C9C9B9A999998979796954F
:1038D00095949393929191908F8F8E8E8D8C8C8BEB
:1038E0008B8A898988888787868585848483838273
:1038F000828181800000FF070000F87F4FEA4103CA
:103900004FEA5353A3F58063D3F11E03C8BFD3F12D
:10391000210C0CDD4FF0004242EAC12242EA505233
:1039200032FA03FC8CEAE17CACEBE1707047102BBF
:10393000C4BF0020704703F5787CBCF1FF3F04D082
:103940006FF0004282EA2100704770B500F0DAF8AB
:103950004992248000207047F2E710F0004248BFEF
:103960004042B0FA80F310FA03F10AD0C3F11D030C
:1039700003F5806302EB03524FEA415002EBD12181
:1039800070474FF000007047B0FA80F310FA03F16F
:103990000AD0C3F11D0303F580634FEA03524FEAD7
:1039A000415002EBD12170474FF0000070470000FA
:1039B00070B5DFF848C11CEA111E1EBF1CEA1315C2
:1039C0009EEA0C0F95EA0C0F00F06F8081EA030469
:1039D0004EEAD47EAE4421EA4C1123EA4C1341F462
:1039E000801143F48013AEF17F7EA1FB024CA0FB5B
:1039F0000365361955EB0C05A1FB034C4CF1000394
:103A0000A0FB021C16EB0C06654153F100030942B2
:103A100018BF46F0010613F4007F0BD14FEA0331C3
:103A20004FEA053041EA155140EA165034036FF071
:103A300003020AE04FEAC3214FEAC52041EA55518B
:103A400040EA5650F4026FF0020202EB2E4201EB04
:103A5000025585EACE710AD05FEA440C18BF24F003
:103A6000004450F1000041F1000120EAD47040F21E
:103A7000FE7C624500D270BDA84214BF4FF0804466
:103A80004FF04044002E08BF0024BEF1806FA8BF55
:103A9000A1F1C041BDE8704080F2828001F1C041D7
:103AA00001F000414FF0000070470CEA13159EEA48
:103AB0000C0F18BF95EA0C0F06D081EA030E4FF0E9
:103AC00000000EF0004170BD00F01CF88900013EBE
:103AD00000F007B800F009B84FEA430C5FEA5C5CFD
:103AE00008D081EA030100F05BB84FEA410C5FEABD
:103AF0005C5CF6D102494FF0000070470000FF0700
:103B00000000F87F0EF1020E2EF0030E5EF8046B3B
:103B1000364205D4012A43EB030515F5001F12D8E0
:103B2000012841EB010C1CF5001F0CD80ED14FEA07
:103B3000D17C0CEB4C0C0CF1020C15F5001F08BFEE
:103B40004CEBD37C04E04FF0080C01E04FEAD37C4F
:103B50000CEB4C0526FA05F606F00706B6F1040C48
:103B600006D20EEB860CBDE870404CF0010C6047AD
:103B7000DFE80CF0090B02024FF00041A1F5002133
:103B80004FF0000070BD19461046012851EB0104AA
:103B900018BFD4F5001484BF002001F0004170BDAF
:103BA0000808A0F500114FEA3101704710B591EAFD
:103BB000030F48BF83F000433FF5A6AC841A71EBB6
:103BC000030C07D28CF0004C121943EB0C03001BC2
:103BD00061EB0C014FEA1154A4EB135CDFF8A4E194
:103BE0001EEA430F18BF9EEA445F00F0B48021EA4A
:103BF000045123EA6E035242C3EB6E0338BF5B1ECF
:103C0000DCF1200E25D322FA0CFE10EB0E0043FA55
:103C10000CFE41EB0E01CCF1200E03FA0EFE10EB70
:103C20000E00CCF1200E51F1000129D401EB04511A
:103C300012FA0EF2BDE8104058BF7047401C1CBF7E
:103C4000B2F1004F704700280CBF491C20F0010062
:103C5000704712EB020E43EB030218BF4FF0010E48
:103C60004EEA4202ACF1200CDCF11E0E56D943FAAA
:103C70000CFE10EB0E00CCF11E0E51F1FF31D5D52C
:103C80000EF1010E12FA0EFE404141EB010101EB73
:103C9000445C5FEA5C5C10D901EB045110EBDE7010
:103CA00038BFBEF1004FBDE8104018BF7047002874
:103CB0000CBF491C20F00100704734D24FEAD42CCD
:103CC00024F4006411F500111BD0B1FA81F20B3A13
:103CD000A41AA41ED2F12003914030FA03F3194331
:103CE000904001EBCC7101EB0451002CBDE8104079
:103CF000A8BF704701F1C04101F000414FF0000042
:103D00007047B0FA80F310FA03F102D1BDE8104019
:103D10007047E41A173C4805C90AE2E701EB045171
:103D2000BDE81040704749104FEA300001EB0451E4
:103D3000BDE8104002E04FF0000170474A0008BFA4
:103D40000042F8D0B2F5001F28BF704701F00041D3
:103D50004FF0000070479EEA445F07D011EA5E0F03
:103D6000BDE8104004BF002100207047BDE81040AE
:103D700070B5FFF7C7FE00BF40DFF63E104683F088
:103D8000004170470000E0FF43004FEAD30C4FEAC8
:103D90003C0C43401FBF40070CF1605113F0FE4F35
:103DA00070471CF0006F03D10CF0004100207047F9
:103DB0000CF0004343EA507040EACC0010B500F02C
:103DC000A2FA00BF000000924FEA0001FFF7E8BE30
:103DD0004FF00041A1F500214FF0000070470000B6
:103DE00090EA010F48BF81F0004100F1DE82421AE3
:103DF0003CBF801A89184FEAD052A2EBD1534FF042
:103E00007F4C1CEA410F18BF9CEA026F00F03B8018
:103E10004FF0004C4CEA00204CEA012121FA03FC4F
:103E200010EB0C0C1ED202F1FF325FEA1C2040EBBB
:103E3000C25038BF70471CF07F0F4FEA400C18BFCC
:103E4000BCF17F4F38BF7047C3F12003994008BFD2
:103E500020F00100BCF17F4F38BF7047A0F1C04097
:103E600000F097BA4FEA3C00000A40EBC25028BF6E
:103E70001CF0FF0F4FEA400CE6D018BFBCF17F4F9B
:103E800038BF7047EAE79CEA026F05D010EA5C0F82
:103E900008BF00F00040704710B500F034FA00BFD2
:103EA00064FBBE3E10B500F0F5F80CBF0120002009
:103EB00010BD10B500F0EEF814BF0120002010BDB9
:103EC00010B500F037F98CBF0120002010BD10B5EF
:103ED00000F030F92CBF0120002010BD10B500F01B
:103EE0005DF994BF0120002010BD10B500F056F917
:103EF00034BF0120002010BD401058BFC0F1404029
:103F0000491058BFC1F140418142EFF30080704732
:103F10004FF47F0C1CEAD0121EBF1CEAD11392EAA8
:103F20000C0F93EA0C0F00F0858090EA010F48BF58
:103F300042F4807240F4000C41F400002CF07F4108
:103F400020F07F4000B5A2EB030281420FF2081C73
:103F5000ACEB504E9EF800E0C0F100004FEA4E0E70
:103F600000FB0EFC38BF49004FEA2C1C0CFB0EF383
:103F70004FEACE1E0EEB635E4FEA112C0EFB0CFCDB
:103F80004FEAC1214FEA1C5300FB031102F5FA026C
:103F90004FEA112C0EFB0CFC4FEA01314FEADC4CCE
:103FA00000FB0C1142EB2242C14228BF09184CEB26
:103FB00003335DF804EB10EB410143EBC250B2F563
:103FC0007C0F38BF704729D512F0F00F1CBF00F1ED
:103FD000C04000F00040704700818283848586875E
:103FE00088898B8C8D8E8F919293959697999A9CB8
:103FF0009D9FA0A2A3A5A7A8AAACAEB0B2B3B5B727
:10400000B9BCBEC0C2C5C7C9CCCED1D4D7D9DCDFFC
:10401000E2E6E9ECF0F3F7FAFE0000004FEA400CAC
:104020000CF1807CBCF17E4F28BF7047B0F1C040DE
:1040300000F0AFB90CEAD11390EA010F48BF42F487
:104040008072624538BF634507D213F47F0F16D0E4
:1040500080EA010000F00040704710B500F053F90D
:10406000097EFC3E00F005B880EA010000F0004047
:10407000704780EA010000F0004000F08AB912F4B5
:104080007F0F04BF0248704780EA010000F081B949
:104090000000C07F50EA010C00F113801CF5000FF6
:1040A00058BFBCF5000F01D48842704707D710F500
:1040B000000F58BF11F5000F15D488427047894290
:1040C00070471CF5000F04D5BCF5000FF7D58142F1
:1040D00070474FF0807C1CEB400F38BF1CEB410F4A
:1040E00001D28142704710B500F00DF992244900C9
:1040F0004FF000504FF08051FFF7FEBE41000B0E15
:10410000D3F19E0208D950F400034FEA032323FAA7
:1041100002F048BF4042704710B500F0F4F800BF0D
:1041200049922480002070476FF0004282EA20000C
:104130007047000050EA010C00F113801CF5000FDD
:1041400058BFBCF5000F01D48842704707D710F55F
:10415000000F58BF11F5000F15D4884270478942EF
:1041600070471CF5000F04D5BCF5000FF7D5814250
:1041700070474FF0807C1CEB400F38BF1CEB410FA9
:1041800001D28142704710B500F0BDF89224490079
:104190004FF080504FF00051FFF7AEBE50EA010CD7
:1041A00000F113801CF5000F58BFBCF5000F01D4BF
:1041B0008842704707D710F5000F58BF11F5000F60
:1041C00015D488427047894270471CF5000F04D50A
:1041D000BCF5000FF7D5814270474FF0807C1CEB97
:1041E000400F38BF1CEB410F01D28142704710B520
:1041F00000F089F8922449004FF000504FF08051B0
:10420000FFF77ABE4FF47F0C1CEAD0121EBF1CEAE7
:10421000D11392EA0C0F93EA0C0F00F0478090EA5A
:10422000010F48BF42F480724FF0004C4CEA00206E
:104230004CEA012102EB0302A0FB0113A2F50002EC
:10424000002918BF43F001035B0028BF4FEA330386
:1042500042EB22425FEA132C4CEBC2502EBFBCEB68
:10426000436FB2F57C0F70474FEA036CBCF1004F0F
:1042700008BF20F00100B2F57C0F38BF70470BD5A6
:1042800082F0FF0212F5803FC8BF704700F1C040C6
:10429000D8BF00F00040704700F5000C5FEA4C0CFE
:1042A00048BF7047B0F1C04000F073B80CEAD113BA
:1042B00090EA010F48BF42F48072624538BF6345FF
:1042C00004D280EA010000F00040704710B500F011
:1042D0001AF800BF8900013E00F007B800F009B8E5
:1042E0005FEA410C5FEA1C6C08D080EA010000F034
:1042F00050B85FEA400C5FEA1C6CF6D14FF000400A
:10430000A0F5800070470EF1020E2EF0030E5EF84D
:10431000044B244204D44FEA4102B2F17F4F11D83A
:104320004FEA4003B3F17F4F0CD80ED14FEAD07C57
:104330000CEB4C0C0CF1020CB2F17F4F08BF4CEBB4
:10434000D17C04E04FF0080C01E04FEAD17C0CEB8B
:104350004C0324FA03F404F00704B4F1040C06D26D
:104360000EEB840CBDE810404CF0010C6047DFE818
:104370000CF0070802024FF00040A0F5800010BDCD
:104380000846420018BFD2F1807288BF00F000409A
:1043900010BDFF2141EAD050C005704790EA010FDF
:1043A00048BF81F000413FF522AD421A04D882F0A7
:1043B0000042A0EB020011444FEAD052A2EBD153CD
:1043C0004FF07F4C1CEA410F18BF9CEA026F4AD0A5
:1043D0004FF0004C4CEA00204CEA012121FA03FC8A
:1043E000B0EB0C0C0FD412F0FE0F36D05FEA4C008D
:1043F0001DD5001240EBC25038BF70471CF03F0F74
:1044000018BF70470BE05FEA1C20A2F1010240EBED
:10441000C25038BF70471CF07F0F18BF7047C3F100
:104420002003994014BF401E20F0010070474FEA5E
:104430001223800808BF7047B0FA80FCA2EB0C0280
:10444000CCF1280C60FA0CF093EA122F04BF00EBB9
:10445000C25070474FEAC3707047130A5FEADC101E
:1044600008BF7047F6E79CEA026F04D010EA5C0FC1
:1044700008BF0020704710B5FFF745FF40DFF63E4C
:1044800081F00040704701020000000000000000C1
:1044900001020304060708090000000001020304EA
:1044A00002030405060708090A0B0C0D0E0F101075
:1044B000D044000800000020180000006C01000833
:1044C000E84400081800002048080000880100089F
:1044D0000000003E8FC2753D01000000100000008A
:0844E0000024F40000000000BC
:0400000508000131BD
:00000001FF
