:020000040800F2
:1000000020080020CD010008F51F0008ED1F0008A2
:10001000F11F00084D030008B12000080000000097
:1000200000000000000000000000000001200008A7
:100030005103000800000000FD1F00080520000813
:10004000E7010008E7010008E7010008E7010008F0
:10005000E7010008E7010008E7010008E7010008E0
:10006000E7010008E7010008E7010008E7010008D0
:10007000E7010008E7010008E7010008E7010008C0
:10008000E7010008E701000889020008E70100080D
:10009000E7010008E7010008E70100085503000830
:1000A000E701000899200008E7010008E7010008BF
:1000B000E7010008E7010008A5200008E7010008A3
:1000C000E7010008E7010008E7010008E701000870
:1000D000E7010008E7010008E7010008E701000860
:1000E000E7010008E7010008E7010008E701000850
:1000F000E7010008E7010008E7010008E701000840
:10010000E7010008E7010008E7010008E70100082F
:10011000E7010008E7010008E7010008E70100081F
:10012000E7010008E7010008E7010008E70100080F
:1001300000F002F800F03AF80AA090E8000C8244BF
:100140008344AAF10107DA4501D100F02FF8AFF29C
:10015000090EBAE80F0013F0010F18BFFB1A43F0A5
:10016000010318470C3200002C320000103A24BF63
:1001700078C878C1FAD8520724BF30C830C144BF0C
:1001800004680C607047000000230024002500264E
:10019000103A28BF78C1FBD8520728BF30C148BFEA
:1001A0000B6070471FB51FBD10B510BD00F031F8D2
:1001B0001146FFF7F7FF01F07DFF00F04FF803B4A1
:1001C000FFF7F2FF03BC00F057F800000948804732
:1001D00009480047FEE7FEE7FEE7FEE7FEE7FEE729
:1001E000FEE7FEE7FEE7FEE704480549054A064B41
:1001F000704700009520000831010008200200200F
:1002000020080020200400202004002070477047B0
:100210007047754600F02CF8AE4605006946534617
:1002200020F00700854618B020B5FFF7DDFFBDE8D8
:1002300020404FF000064FF000074FF000084FF04D
:10024000000BAC46ACE8C009ACE8C009ACE8C0099A
:10025000ACE8C00921F007018D46704710B504468F
:10026000AFF300802046BDE81040FFF7A8BF0000B4
:10027000004870471800002001491820ABBEFEE777
:10028000260002007047000040F2CC00C2F20000DD
:1002900000F04CB9B0B582B004460020019021684E
:1002A0008A68D2074FD1886840F00100886040F228
:1002B0001000C2F2000000684DF68361C4F21B31E9
:1002C000A0FB0101880C01900198A0B101980138B0
:1002D0000190019878B1019801380190019850B1CE
:1002E000019801380190019828B1019801380190D6
:1002F00001980028EAD100F073FC21688968C907D9
:100300001CD1054603E000BF8068C0071AD100F089
:1003100067FC411B20680329F6D38168C907F3D124
:10032000A06A40F01000A062E06A40F00100E062C4
:10033000002084F82400012002B0B0BD002002B0EB
:10034000B0BD00BF002002B0B0BD0000FEE700005D
:100350007047000080B5202000F02CFB402000F00A
:1003600029FB802000F026FB4FF48070BDE8804020
:1003700000F020BB7047000010B581B00022009251
:1003800090F82420012A03D10221084601B010BDB3
:100390004B680122062B80F8242017D8D0F800C023
:1003A00003EB83035A1F1F23DCF834E003FA02F443
:1003B0000B682EEA040403FA02F22243CCF834203C
:1003C000092B03EB430219D936E000BFD0F800C077
:1003D0000C2B03EB83021DD8233A1F23DCF830E0FB
:1003E00003FA02F40B682EEA040403FA02F2224331
:1003F000CCF83020092B03EB43021DD8DCF8103079
:10040000072489689440A34391401943CCF8101005
:10041000002130E0413A1F23DCF82CE003FA02F41B
:100420000B682EEA040403FA02F22243CCF82C20D3
:10043000092B03EB4302E1D9DCF80CE01E3A072458
:10044000896894402EEA0404914023F0010221437C
:10045000102ACCF80C100DD142F20841C4F201016F
:10046000A1F1080294450DD0816A41F0200181621A
:10047000012100E00021002280F82420084601B07C
:1004800010BD00BF0A68120230D40A68102B42F473
:1004900000020A602CD140F21001C2F2000109688A
:1004A0004DF68362C4F21B32A1FB0212910C01EBE8
:1004B0008101490000910099E1B100990139009151
:1004C0000099C9B10099013900910099B1B1009921
:1004D00001390091009999B1009901390091009971
:1004E00000294FF00001E8D1C5E700BF0021C2E7B5
:1004F0000021C0E70021BEE70021BCE70021BAE7E8
:100500000021B8E780B540F2CC00C2F2000000F054
:1005100009F840F27801C2F2000188800120487099
:1005200080BD00000068C06C7047000010B5044634
:1005300000684168890644BF01685FEA81710BD495
:100540004168090644BF01685FEA41712AD44168E5
:1005500049065BD410BD00BFA16AC90603D4A16AD5
:1005600041F40071A162816801F46021B1F5602F4E
:1005700010D1217B71B9416821F020014160A06A4E
:1005800020F48070A062A06AC00403D4A06A40F086
:100590000100A0622046FFF7B5FF20686FF012014E
:1005A0000160CDE7A16AC90603D4A16A41F40051F4
:1005B000A162816801F4E041B1F5E04F10D14168DA
:1005C00021F080014160A06A20F48050A062A06AFE
:1005D000C00511D4A06A40F00100A0620CE000BF89
:1005E0004168490508D4816801F46021B1F5602FA4
:1005F00002D1217B0029E2D02046FFF7BBFE206814
:100600006FF00C01016041684906A3D50068C0077E
:1006100008BF10BDA06A40F48030A062204600F000
:10062000BDF820686FF00101016010BDB0B5002871
:1006300000F0B2800446806A20B121688868C00753
:100640000BD114E00020E06284F82400204600F082
:10065000A7F821688868C00709D0886820F00100E1
:10066000886000F0BDFA21688A68D20730D1A06A9C
:10067000C00644D4A06A41F2021290430230A06244
:10068000E36981F0804080F49E3083F4402210437F
:1006900008BF4FF40023D4E9010243EA000C531EC3
:1006A000B3FA83F35D091346B2F5807F18BF2B02BE
:1006B000207D257B01284CEA450030D135B3A56A61
:1006C00045F02005A562E56A45F00105E56226E0F2
:1006D000054602E08868C007C9D000F081FA401BD7
:1006E00021680328F6D38868C007F3D0A06A40F0D9
:1006F0001000A062E06A40F00100E062A06AA06A17
:1007000040F01000A0620120B0BD00BFD4F818C0B6
:100710004EF60005CFF6FF7505EB4C352B434D68C3
:10072000B2F5807F25F4694543EA05034B608B6889
:100730004FF2FD75CFF6E17503EA050343EA0003C6
:100740008B6001D0012A07D122690023CFF6F07314
:1007500003EB025201E000BF0022CB6A23F47003D6
:100760001A43CA62896840F6FE62CFF61F721140D2
:10077000814207D10020E062A16A012262F30101F7
:10078000A162B0BDA06A40F0100020F00200A0629B
:10079000E06A40F00100E0620120B0BD7047000057
:1007A00070B586B040F60004C4F20104006804F598
:1007B000E05188424FF00000CDE9040002D006B0BD
:1007C00070BD00BF41F21800C4F20200016802AD22
:1007D00041F4007101600168032601F40071019188
:1007E0000199016841F010010160016801F01001F8
:1007F00001910199016841F00401016000682946F6
:1008000000F00400019001980120029004F50060BE
:10081000039600F0DBF80820CDE9020620462946C1
:1008200000F0D4F812200321002200F05BFA12201D
:1008300000F044FA06B070BD10B5044690F82400EC
:10084000012804BF022010BD012084F824002046A6
:10085000FFF720FD20B1002184F8241010BD00BF57
:1008600042F2044C2068A16AC4F2010C40F6017205
:1008700091430CF57F7201F580719042A16237D0EF
:10088000A16A21F48011A1624168490504D5A16AD9
:10089000012363F30D31A162A16A0023C9044FF063
:1008A000000144BFE16A21F00601E1626FF002013C
:1008B00084F824300160416841F020014160816882
:1008C00001F46021B1F5602F06D190420AD1DCF825
:1008D000001011F4702F05D0816841F480118160FF
:1008E000002010BD816841F4A0018160002010BD8E
:1008F000DCF8001011F4702FC2D0A16A41F480110D
:10090000A162DCF800104905C1D4C5E7B0B50446C2
:1009100000F066F9054640F20800C2F200000078D7
:10092000611C18BF044400BF00F05AF9401BA042EC
:10093000FAD3B0BD80B5802816D0402818BF80BD3E
:1009400040F60000C4F2010000F50060802100F0D4
:100950003BF9D8B140F27800C2F20000416A01319F
:1009600041620121817080BD40F60000C4F20100A7
:10097000402100F029F998B140F27800C2F200005D
:10098000C16A0131C1620121C17080BD40F27800AD
:10099000C2F20000816A013181620021817080BD54
:1009A00040F27800C2F20000016B013101630021C6
:1009B000C17080BD40F21441C4F201010A680242D4
:1009C00014BF08607047FFF7B5BF00002DE9F04F76
:1009D00082B0D1F800C0BCF1000F00F0F180A0F1AE
:1009E000804241F60045A2F58432C4F2010540F28E
:1009F000004E4FEAB2240627A842C4F2010E08BFF7
:100A00000527052C4FF000044FF001084FF00F03AD
:100A10004FF0000A4FF0000B38BF4FEAB2270097A3
:100A20000AE000BFD1F800C00AF1010A3CFA0AF25C
:100A300004F1040400F0C48008FA0AF91CEA090F62
:100A4000F0D04E684FF6FF72C1F21002964211DCF0
:100A5000122E55D8DFE806F0340A44485454545452
:100A60005454545454545454544C5000D1F80CB071
:100A700046E000BF4FF6FF72C1F2210296420FDC42
:100A80000022C1F2110296421AD00022C1F21202D3
:100A9000964215D00022C1F22102964210D02FE0DA
:100AA0000022C1F2220296420AD00022C1F2310293
:100AB000964205D00022C1F23202964220D100BFF8
:100AC0008A684AB1012A14BFC0F81490C0F8109087
:100AD0004FF0080B14E000BF4FF0040B10E000BF14
:100AE000CA6802F1080B0BE04FF0000B08E000BFF2
:100AF000CA6802F1040B03E0CA6802F10C0B00BFE4
:100B000022460646BAF1080F24BF203A0436376859
:100B100003FA02F5AF430BFA02F23A433260CA79A4
:100B2000D2067FF57FAF41F21807C4F202073A6898
:100B30004FF6084342F001023A603A68CFF6FF737D
:100B400002F001020192019A2AF0030272440F2579
:100B5000D75804F00C06B540AF43009D05FA06F6E1
:100B60003743D7504E6840F20C45F203DEF80020C0
:100B700054BF22EA090242EA0902CEF80020DEF858
:100B80000420B70354BF22EA090242EA0902CEF860
:100B90000420DEF80820C4F20105F70254BF22EA5F
:100BA000090242EA0902CEF808200F232A68B70298
:100BB00054BF22EA090242EA09022A6032E700BF72
:100BC00002B0BDE8F08F00008068084018BF012027
:100BD00070470000002A08BF090401617047000047
:100BE00040F21C20C2F200000068704740F208008A
:100BF00040F21C21C2F20000C2F2000100780A6833
:100C0000104408607047000080B542F20000C4F252
:100C10000200016841F010010160032000F08EF82D
:100C20000F2000F005F800F027F8002080BD00003C
:100C300070B540F20806C2F2000640F210013278A8
:100C4000C2F200014FF47A730968B3FBF2F2044672
:100C5000B1FBF2F1084600F0D7FB0F2C4FF0010575
:100C600008D838B94FF0FF3021460022002500F0A7
:100C700039F87460284670BD82B041F21800C4F2A1
:100C800002000168022241F001010160016801F0E7
:100C9000010101910199416841F080514160406832
:100CA00000F08050009000980420C4F20100016818
:100CB00062F31A61016002B070470000002848BF6B
:100CC0007047C1B200F01F00012202FA00F04EF29C
:100CD0000012CEF2000242EAD10121F003010860C5
:100CE0007047000010B54EF60C5CCEF2000CDCF83C
:100CF0000030C3F3022E8EF00704042C28BF042416
:100D0000BEF103034FF0FF3E0EFA04F438BF002398
:100D1000A14399400EFA03F39A43114300F00F02E6
:100D200000F160430901043A03F56443624400287A
:100D300048BF02F10C03197010BD00004EF60C51B3
:100D4000CEF200010A684FF6FF031A4060F30A2250
:100D500042F0806040F0FD70086070472DE9F0417E
:100D600082B00446007841F21C06C007C4F20206B5
:100D70004AD0306810F0805808D1306840F0805078
:100D80003060306800F080500190019847F2000711
:100D9000C4F200073868C00512D4386840F4807087
:100DA0003860FFF71DFF05463868C00508D4FFF717
:100DB00017FF401B6428F7D9032002B0BDE8F0817B
:100DC000706810F4407012D0616801F4407188427C
:100DD0000DD0706840F24042C4F24222012320F458
:100DE000407113600023C007136071602AD17068DE
:100DF000616820F440700843B8F1000F706003D1BF
:100E0000306820F0805030602068810707D556F8A0
:100E1000181CA26821F44041114346F8181CC00672
:100E200004D4002002B0BDE8F08100BF56F8180CD1
:100E3000616920F48000084346F8180C002002B0D5
:100E4000BDE8F081FFF7CCFE054641F2883700BFD0
:100E500070688007CBD4FFF7C3FE401BB8424FF049
:100E60000300F5D9EBE70000704700002DE9F043DF
:100E700081B0002800F0858042F20008C4F2020828
:100E80000446D8F800000D4600F0070088420CD256
:100E9000D8F8000020F007002843C8F80000D8F870
:100EA000000000F00700A8426BD1206841F204095D
:100EB0008107C4F2020917D5410705D5D9F80010FA
:100EC00041F4E061C9F80010010705D5D9F8001018
:100ED00041F46051C9F80010D9F80010A26821F05F
:100EE000F0011143C9F80010C00741D1D8F8000043
:100EF00000F00700A8420CD9D8F8000020F0070045
:100F00002843C8F80000D8F8000000F00700A84205
:100F100037D12068410707D5D9F80010E26821F4DD
:100F2000E0611143C9F80010000708D5D9F80000A6
:100F3000216920F4605040EAC100C9F80000D9F8E6
:100F4000002002F00C00082841F20020C0F27A00D4
:100F500050D143F25E33C2F38341C0F60003595CC3
:100F6000D2033BD440F60010C0F23D00484341E0BC
:100F7000606802280AD001282AD159F8041C890384
:100F800008D4012001B0BDE8F08300BF59F8041C6B
:100F90008901F6D5D9F8001021F003010843C9F8FA
:100FA0000000FFF71DFE064641F28837D9F8000021
:100FB000616800F00C00B0EB810F97D0FFF710FED6
:100FC000801BB842F2D9032001B0BDE8F08300BF16
:100FD00059F8041C8907D4D5DCE700BFD9F80020F4
:100FE00043F24C33C2F34042C0F600039A5C4843DC
:100FF000B0FBF2F0D9F8001043F24E32C1F3031106
:10100000C0F60002515C40F2100220FA01F140F2F9
:101010000C00C2F200000068C2F200021160FFF78B
:1010200007FE002001B0BDE8F08300004C20C4F2B0
:10103000422001210160704710B541F20804C4F25A
:1010400002042068000658BF10BDFFF70DFF802086
:10105000A07010BD2DE9F04182B0002868D0044690
:10106000007841F20006C007C4F2020625D070687D
:1010700000F00C0004281BD0706800F00C00082859
:1010800002D17068C00313D46068002800F0688142
:10109000B0F5A02F00F07C81B0F5803F00F07C819E
:1010A000306820F480303060306820F4802076E1B1
:1010B0003068800301D56068D0B32078800718D5E8
:1010C000706810F00C0F07D0706800F00C00082852
:1010D0006ED17068C0036BD43068800702D5206978
:1010E000012825D13068616920F0F80040EAC1008C
:1010F0003060207800071FD42078400732D4E5699B
:1011000095B1706800F00C00082840F08F80012D28
:101110000ED07068216A00F480328A4208D1616A78
:1011200000F47010884203D1002002B0BDE8F081C5
:10113000012002B0BDE8F081A069002862D0002043
:10114000C4F242200121C0F88014FFF749FD054692
:10115000706A800700F18C80FFF742FD401B022877
:10116000F6D92AE1F06910F0805808D1F06940F012
:101170008050F061F06900F080500090009847F2D4
:101180000007C4F200073868C00529D4386840F465
:1011900080703860FFF724FD054600BF3868C00541
:1011A0001ED4FFF71DFD401B6428F7D905E100BFE1
:1011B0002069002840F20000C4F2422000F0828042
:1011C00001210160FFF70CFD054600BF3068800774
:1011D0003FF588AFFFF704FD401B0228F6D9ECE08D
:1011E000E068002800F08080052800F09780012842
:1011F00000F09880306A20F001003062306A20F000
:10120000040092E00020C4F242200021C0F88014C3
:10121000FFF7E6FC054600BF706A80077FF56CAFFC
:10122000FFF7DEFC401B0228F6D9C6E00027C4F217
:10123000422700203866FFF7D3FC022D05460BD16C
:101240003068800140F1BE80FFF7CAFC401B0228D5
:101250004FF00300F4D968E7306880017FF564AF90
:10126000FFF7BEFC401B02284FF00300F4D95CE7F7
:1012700040F21000C2F20000006844F6D351C1F2FF
:101280006201A0FB0101480A019000BF00BF019864
:10129000411E002801913FF42FAF00BF0198411E6D
:1012A000002801913FF428AF00BF0198411E00289B
:1012B00001913FF421AF00BF0198411E0028019128
:1012C000E4D119E700210160FFF78AFC054600BF61
:1012D000306880077FF50DAFFFF782FC401B0228C6
:1012E0004FF00300F4D920E7306A20F001003062AB
:1012F000306A20F004003062FFF772FC054641F2CC
:10130000883700BF306A800720D5FFF769FC401B93
:10131000B8424FF00300F5D907E700BF306A40F04C
:1013200004003062306A40F001003062FFF758FC80
:10133000054641F2883700BF306A800706D4FFF7C0
:101340004FFC401BB842F7D937E000BFB8F1000F9F
:101350007FF4D5AEF06920F08050F061CFE600BF99
:10136000306820F480303060306820F480203060B5
:10137000FFF736FC054600BF306880037FF59DAE61
:10138000FFF72EFC401B64284FF00300F4D9CCE695
:10139000306840F480203060306840F48030306045
:1013A000FFF71EFC054600BF306880033FF585AEA1
:1013B000FFF716FC401B6428F6D9032002B0BDE8F5
:1013C000F08100BF206AB0F5803F05D17168A26846
:1013D00021F40031114371607168626A21F4741163
:1013E00011430843706001203866FFF7F9FB04469B
:1013F000306880013FF598AEFFF7F2FB001B022832
:101400004FF00300F4D990E6411E0020B0EB116FBD
:101410001CBF012070474EF21002CEF20002516054
:101420004EF62351CEF20001F0230B70072190609D
:1014300011607047704700007047000010B590F8C9
:101440003C20012A4FF002023FD080F83D20026884
:10145000D2F804E0D2F808C00C682EF070032343E1
:1014600040F6FF34C4F20004A242536010DCB2F133
:10147000804F1FD040F20043C4F200039A4219D0BB
:1014800040F60003C4F200039A4213D017E000BFF5
:1014900040F60043C4F200039A420BD043F20043EB
:1014A000C4F201039A4205D042F60043C4F201039C
:1014B0009A4204D149682CF08003194391600121BC
:1014C000002280F83D1080F83C20104610BD00003E
:1014D000002804BF0120704710B5044690F83D0075
:1014E00028B9002084F83C00204600F085F802204E
:1014F00084F83D00206840F6FF330268C4F2000320
:1015000043F2004C9842C4F2010C21DCB0F1804F50
:101510002CD040F20041C4F20001884226D040F6AF
:101520000001C4F20001884220D0984224DCB0F1CE
:10153000804F2FD040F20041C4F20001884229D0F0
:1015400040F60001C4F20001884223D026E000BF2B
:1015500040F60041C4F20001884207D0604505D042
:1015600042F60041C4F201018842DED1A16822F0B6
:1015700070020A439842DADD40F60041C4F20001ED
:10158000884207D0604505D042F60041C4F201010F
:10159000884203D1216922F440720A43A36922F0F0
:1015A0008001D4F804E0E268194360450160C2623A
:1015B000C0F828E005D042F60041C4F2010188429B
:1015C00001D16169016301214161002084F8461065
:1015D00084F83E1084F83F1084F8401084F84110DD
:1015E00084F8421084F8431084F8441084F84510BD
:1015F00084F83D1010BD000080B582B0006840F254
:10160000FF71C4F20001884218DCB0F1804F3DD078
:1016100040F20041C4F20001884244D141F21C0072
:10162000C4F20200016841F002010160006800F0AC
:1016300002000190019802B080BD00BF40F6000199
:10164000C4F20001884231D042F60041C4F20101E7
:10165000884228D141F21C00C4F2020050F8041C58
:10166000002241F4006140F8041C50F8040C0021F1
:1016700000F40060019001981920FFF733FB192056
:1016800002B0BDE88040FFF719BB00BF41F21C006B
:10169000C4F20200016841F001010160006800F03D
:1016A00001000190019802B080BD00BF41F21C0012
:1016B000C4F202000168002241F0040101600068E8
:1016C000012100F00400019001981E20FFF70AFBA1
:1016D0001E2002B0BDE88040FFF7F0BA90F83D1040
:1016E00001291CBF01207047022180F83D100068CD
:1016F00040F6FF32C168C4F20002904241F001019D
:10170000C1600FDCB0F1804F1ED040F20041C4F246
:101710000001884218D040F60001C4F2000188425E
:1017200012D018E040F60041C4F2000188420BD00C
:1017300043F20041C4F20101884205D042F6004163
:10174000C4F20101884206D1816801F0070106292F
:1017500004BF00207047016841F0010101600020D2
:101760007047000080B590F83C20012A4FF002023B
:1017700000F0BF8080F83D20D0F800C04FF67772AF
:10178000DCF8083023EA0202CCF808200B683F2B73
:101790001CDD5F2B20DD602B50D0B3F5005F6DD0DA
:1017A000702B40F0A080D1E901E3C968DCF8082083
:1017B00043EA0E0322F47F4243EA01211143CCF8AD
:1017C0000810DCF8081041F077018AE01F2B29DCB3
:1017D00063B3102B2AD086E0402B63D0502B40F00F
:1017E0008280D1F804E0C968DCF82030DCF82020E1
:1017F00022F00102CCF82020DCF8182022F0F002C0
:1018000042EA011123F00A0242EA0E02CCF8181053
:10181000CCF82020DCF8081041F0570121F020011D
:101820005FE000BF202B01D0302B5CD1DCF808102A
:1018300021F07001194341F0070152E0D1F804E0B2
:10184000C968DCF8203023F01003CCF82030DCF835
:101850001830DCF8202023F4704322F0A00243EA81
:10186000013142EA0E12CCF81810CCF82020DCF836
:10187000081041F0670121F0100132E0D1E901E3E5
:10188000C968DCF8082043EA0E0322F47F4243EAE9
:1018900001211143CCF80810DCF8081041F4804114
:1018A0001FE000BFD1F804E0C968DCF82030DCF8A4
:1018B000202022F00102CCF82020DCF8182022F0B1
:1018C000F00242EA011123F00A0242EA0E02CCF8C9
:1018D0001810CCF82020DCF8081041F0470121F066
:1018E0003001CCF808100121002280F83D1080F86A
:1018F0003C20104680BD00007047000010B5016814
:1019000004460869800744BFC8685FEA807039D41C
:101910000869400744BFC8685FEA40703ED4086960
:10192000000744BFC8685FEA007045D40869C00674
:1019300044BFC8685FEAC0604AD40869C0071CBFDA
:10194000C8685FEAC07051D10869000644BFC86822
:101950005FEA006052D40869400644BFC8685FEA85
:10196000406053D40869800646BFC8685FEA80605B
:1019700010BD6FF0200220460A61BDE81040FFF75D
:101980005BBD00BF6FF0020008610120207788690D
:10199000800743D02046FFF7AFFF45E06FF004001B
:1019A000086102202077886910F4407F40D02046EB
:1019B000FFF7A2FF42E000BF6FF0080008610420BB
:1019C0002077C86980073DD02046FFF795FF3FE0AC
:1019D0006FF01000086108202077C86910F4407F7C
:1019E0003AD02046FFF788FF3CE000BF6FF00100CF
:1019F0000861204600F0B0FA2168A5E76FF080008A
:101A000008612046FFF716FD2168A4E76FF040004B
:101A10000861204600F0E8FA2168A3E7204600F0BC
:101A200065F8204600F024FA2168002020776FE74F
:101A3000204600F05BF8204600F01AFA21680020EA
:101A400020776CE7204600F051F8204600F010FAAD
:101A500021680020207769E7204600F047F82046FB
:101A600000F006FA21680020207766E780B586B08E
:101A7000006840F20041C4F2000188424FF00001CA
:101A8000CDE90411CDE9021114D0B0F1804F2BD172
:101A900041F21800C4F20200016841F00401016043
:101AA000006800F004000190019840F60000C4F2C4
:101AB000010012E041F21800C4F20200016841F096
:101AC00008010160006800F008000190019840F6EC
:101AD0000000C4F2010000F580600221CDE902118E
:101AE000059102A9FEF772FF06B080BD70470000A5
:101AF0002DE9F04190F83C30012B04BF0220BDE8F5
:101B0000F0814FEAB202032A00F21581DFE802F009
:101B1000024690DA036843F200461A6AC4F20106EC
:101B200022F001021A621D6A1A465C6852F818EF28
:101B30008F68D1F800C025F00205B34245EA0705D9
:101B400005D042F60047C4F20107BB4205D1CF6879
:101B500025F00C0527F004073D43B34205D042F6BB
:101B60000046C4F20106B34205D1D1E9056724F469
:101B7000407434433C432EF0730747EA0C075C6023
:101B80009F614F6809695F631D629F6947F008079D
:101B90009F619F6927F004079F61C9E0036843F2D2
:101BA00000461A6AC4F2010622F010021A621D6A87
:101BB0001A46D3F804C052F8188F8F68D1F800E0A5
:101BC00025F02005B34245EA071505D042F6004747
:101BD000C4F20107BB4207D1CF686FF0400425F083
:101BE000C00504EA07142543B34205D042F6004479
:101BF000C4F20104A34206D1D1E905462CF44067A2
:101C0000264347EA860C28F4E64444EA0E27C3F844
:101C100004C09F614F6809699F631D629F6947F413
:101C200000679F619F6927F480679F617FE000BF25
:101C3000036843F200461A6AC4F2010622F4807275
:101C40001A621D6A1A46D3F804C052F81CEF8F6856
:101C5000D1F8008025F40075B34245EA072505D088
:101C600042F60047C4F20107BB4208D1CF6840F2F8
:101C7000FF443F0225F4406527EA04042543B342AC
:101C800005D042F60044C4F20104A34206D1D1E9D2
:101C900005462CF44057264347EA061C2EF07307EE
:101CA00047EA0807C3F804C0DF614F680969DF63CA
:101CB0001D62DF6947F00807DF61DF6927F004076D
:101CC000DF6135E0036843F200471A6AC4F2010796
:101CD00022F480521A621A46D3F820C05D6852F886
:101CE0001C4FD1F800E08E68BB4205D042F6004799
:101CF000C4F20107BB4204D14F6925F4804545EA8F
:101D000087152CF4005747EA063724F4E64646EADE
:101D10000E265D60DE614E6809691E641F62DF6920
:101D200047F40067DF61DF6927F48067DF6109023C
:101D3000136819431160002180F83C100846BDE883
:101D4000F0810000002804BF0120704710B5044650
:101D500090F83D0028B9002084F83C00204600F0AF
:101D600085F8022084F83D00206840F6FF330268C1
:101D7000C4F2000343F2004C9842C4F2010C21DC8F
:101D8000B0F1804F2CD040F20041C4F200018842F3
:101D900026D040F60001C4F20001884220D09842CB
:101DA00024DCB0F1804F2FD040F20041C4F200019A
:101DB000884229D040F60001C4F20001884223D0B5
:101DC00026E000BF40F60041C4F20001884207D07F
:101DD000604505D042F60041C4F201018842DED1DF
:101DE000A16822F070020A439842DADD40F6004111
:101DF000C4F20001884207D0604505D042F6004198
:101E0000C4F20101884203D1216922F440720A43DD
:101E1000A36922F08001D4F804E0E2681943604528
:101E20000160C262C0F828E005D042F60041C4F269
:101E30000101884201D161690163012141610020F2
:101E400084F8461084F83E1084F83F1084F840105F
:101E500084F8411084F8421084F8431084F8441048
:101E600084F8451084F83D1010BD00007047000054
:101E70007047000041B1082910D0042914BF00F1B7
:101E8000410200F13F020BE090F83E20012A1CBF06
:101E900001207047022280F83E2013E000F140024A
:101EA0001278012A1CBF012070470222082907D09E
:101EB000042914BF80F8412080F83F2002E000BFD1
:101EC00080F84020006801F01F010122036A02FA35
:101ED00001F123EA01020262026A114340F6FF3275
:101EE000C4F20002904201620EDCB0F1804F25D0B6
:101EF00040F20041C4F2000188421FD040F60001C8
:101F0000C4F2000118E000BF40F60041C4F2000135
:101F1000884213D043F20042C4F2010242F600416B
:101F20009042C4F2010101D088420ED1436C90422C
:101F300043F40043436401D0884206D1816801F034
:101F40000701062904BF00207047016841F0010124
:101F5000016000207047000010B5006840F60001E5
:101F6000C4F2000188420DD042F60041C4F20101E2
:101F7000884218BF10BD40F27800C2F20000012173
:101F8000017010BD40F27802C2F2000202F11803A3
:101F90000BCB40F2140CC2F2000C00F1010E9CF8C5
:101FA00000000F24002808BF6FF00E04081919194B
:101FB000C2E906E01162002202284FF00003B8BF18
:101FC00001230229B8BF0122442842EA0302D8BFF4
:101FD000442903DD8CF8002010BD00BF002A18BF83
:101FE0008CF8002010BD000070470000FEE70000E4
:101FF000FEE70000FFF720F8FEE700007047000052
:1020000070470000FEF7F2BDB0B596B00024012085
:10201000CDE91144CDE90F440C9010904FF480208D
:102020004FF48031022515900CA80694CDE90444A4
:10203000CDE90244CDE90D14CDE91351FFF70AF8BB
:1020400020B1EFF3108072B6FEE700BF0F20CDE99C
:1020500007054FF48060CDE90A0407A80021099420
:10206000FEF704FF20B1EFF3108072B6FEE700BF69
:10207000022001900020039001A8FEF76FFE28B116
:10208000EFF3108072B600BFFEE700BFFEF7CEFF91
:1020900016B0B0BD7047000040F24410C2F200001C
:1020A000FFF72CBC40F2D410C2F20000FFF726BCB0
:1020B000FEE700008EB040F2780A40F60009C2F256
:1020C000000A0027C4F20109CAE90277CAE90777C2
:1020D000FEF79AFDFFF798FF41F218000497C4F24B
:1020E00002000168002241F02001016001684FF404
:1020F000706801F020010A910A99016841F010010D
:102100000160016801F010010A910A99016841F02B
:1021100004010160016801F004010A910A99016853
:1021200041F00801016000684FF4706100F00800A0
:102130000A900A984846FEF74DFD2020002401AD84
:102140000190C1F2110448462946CDE90247FEF745
:102150003DFC8020CDE9010402264846294603962D
:10216000FEF734FC4FF4A07001A991C109F500609D
:102170002946FEF72BFC0120CDE9020748462946F7
:10218000CDF804800496FEF721FC172002210022DE
:10219000FEF7A8FD1720FEF791FD40F2CC06C2F233
:1021A00000064FF08041304640F8301F632140F276
:1021B000F3120D97CDE90B77CDE90877CDE90677D6
:1021C000CDE90477C0E90117C0E903278761FFF76C
:1021D0007FF928B1EFF3108072B600BFFEE700BFB1
:1021E0004FF4805006F130050A900AA92846FFF7FF
:1021F000B9FA28B1EFF3108072B600BFFEE700BF56
:102200002846FFF79FFD28B1EFF3108072B600BF9C
:10221000FEE700BF08A92846FFF710F920B1EFF349
:10222000108072B6FEE700BF60200190002701A970
:1022300028460422CDE902770597FFF759FC28B11B
:10224000EFF3108072B600BFFEE700BF2846FFF72D
:102250000DFC40F28C10A9F58231C2F2000040F270
:10226000F3130D97CDE90B77CDE90877CDE9067724
:10227000CDE90477632280E88600C0E903378761EF
:10228000FFF726F920B1EFF3108072B6FEE700BF2A
:102290004FF480500A9040F28C10C2F200000AA95C
:1022A000FFF760FA20B1EFF3108072B6FEE700BFCF
:1022B00040F28C10C2F20000FFF744FD20B1EFF3B2
:1022C000108072B6FEE700BF40F28C10C2F2000030
:1022D00008A9FFF7B3F828B1EFF3108072B600BF7A
:1022E000FEE700BF6020019040F28C100025C2F292
:1022F000000001A90C22CDE902550595FFF7F8FB76
:1023000020B1EFF3108072B6FEE700BF40F28C10F0
:10231000C2F20000FFF7AAFB40F2441009F5105189
:10232000C2F2000009230495CDE90255CDE90A5512
:1023300045F6BF5280E82600C0E90335C0E90555DF
:10234000FFF7C6F820B1EFF3108072B6FEE700BFCA
:102350004FF48050019040F24410C2F2000001A9F5
:10236000FFF700FA20B1EFF3108072B6FEE700BF6E
:1023700040F24410C2F200000AA9FFF75FF818B15A
:10238000EFF3108072B6FEE740F2D4100021A9F5F9
:102390008032C2F2000045F6BF5340F277570491F5
:1023A000CDE90211CDE90A11C0E90023C0E9021705
:1023B00001618161FFF78CF820B1EFF3108072B6F4
:1023C000FEE700BF4FF48050019040F2D410C2F2FB
:1023D000000001A9FFF7C6F920B1EFF3108072B633
:1023E000FEE700BF40F2D410C2F200000AA9FFF7D6
:1023F00025F818B1EFF3108072B6FEE709F5E0504A
:10240000002101254FF46022C6E9000130463573F2
:102410003175F261B1603561FEF708F920B1EFF373
:10242000108072B6FEE700BF0320CDE9010507204A
:10243000039040F2CC00C2F2000001A9FDF79CFF1E
:1024400020B1EFF3108072B6FEE700BF40F2CC047B
:10245000C2F200042046FEF7EFF904F13000042137
:10246000FFF708FD40F28C10C2F200000C21FFF7CC
:1024700001FD40F24410C2F20000FFF72FF940F2D4
:10248000D410C2F20000FFF729F948464FF48071DA
:1024900000220024FEF79EFB48464FF40071012203
:1024A000FEF798FB48464FF480610022FEF792FB4E
:1024B00048464FF400610122FEF78CFB4FF4FA7599
:1024C0009AF80000002843D09AF8021031B1DAF8E7
:1024D000240000EBD0704010CAF834009AF80300D2
:1024E00030B1DAF82C2002EBD2725210CAF8382040
:1024F00089B9DAF828104EF69002CFF6FF725143F0
:1025000041F6F112C0F2765281FB0212111201EB78
:10251000D271CAF8341088B9DAF830004EF690015A
:10252000CFF6FF71484341F6F111C0F2765180FBBE
:102530000101081200EBD170CAF83800CAF828402F
:10254000CAF83040CAF82440CAF82C408AF8004043
:102550009AF80100002845D0BAF8040000F008FB02
:1025600046F266634FF06632C4F20A0300F014FBD1
:102570004CF6CD424CF6CC43CCF6CC42C3F6F073CD
:1025800000F00AFB4FF600630022C4F2AF0300F034
:1025900095F98346DAE90470884600F0E9FC0246C2
:1025A0000B465846414600F0E1F800F0ADF8791CC2
:1025B000312FCAF81010CAF8140011DB0021C4F240
:1025C000482100F001FD0021C4F2E021CAF83C00DE
:1025D000CAE9044400F0EEFD00F0B8FDCAF840007E
:1025E0008AF80140DAF80860DAF81C00DAF83410EA
:1025F000401A40F20001C2F200010F68CAF844001C
:1026000000F0C0FD0146384600F0D4FD00F09EFD0C
:10261000CAF848003044B0F5FA7FCAF8080003DB76
:1026200040F2F31005E000BF10F5FA7F03DC6FF411
:10263000F970CAF808000520FEF768F948464FF41B
:1026400080610022FEF7C6FA48464FF4006101227D
:10265000FEF7C0FA40F2CC00C2F20000006B8563C6
:10266000DAF80C60DAF82000DAF83810401A40F294
:102670000001C2F200014F68CAF84C0000F082FD70
:102680000146384600F096FD00F060FDCAF85000A3
:102690003044B0F5FA7FCAF80C0003DB40F2F310C7
:1026A00005E000BF10F5FA7F03DC6FF4F970CAF89B
:1026B0000C000520FEF72AF948464FF480710022ED
:1026C000FEF788FA48464FF400710122FEF782FABD
:1026D00040F28C10C2F2000000680564DAF81C00B9
:1026E00028B9DAF80800002818BFCAF80840DAF854
:1026F000200000287FF4E4AEDAF80C00002818BFB0
:10270000CAF80C40DCE6000021F0004201F0004372
:10271000A2F16052B2F5801F28BFD2F17F6C0BD9B5
:102720005FEA001C43EAC20242EB507018BF7047D8
:1027300028BF20F001007047B2F5801FBCBF1846CB
:1027400070474FEA410C1CF5001F02D2084600F00A
:10275000F8BD70B500F0CAFA00000089FFF7F6BFB7
:102760004FF00040A0F580007047000010B591EADE
:10277000030F48BF83F0004300F11483841A71EB08
:10278000030C05D2121943EB0C03001B61EB0C0187
:102790004FEA1154A4EB135CDFF81CE11EEA430F6F
:1027A00018BF9EEA445F00F0748021EA045123EAD6
:1027B0000E0343F48013DCF1200E32D322FA0CFE18
:1027C00010EB0E0023FA0CFE41EB0E01CCF1200EB3
:1027D00003FA0EFE10EB0E00CCF1200E51F10001B9
:1027E000B1F5801F32D201EB045112FA0EF2BDE8AE
:1027F000104058BF7047401C38BF5FEA420218BF04
:102800007047002814BF20F0010041F100014FEA99
:10281000410313F5001F38BF7047A1F1C04100F01C
:10282000B3BA012A43EB0302ACF1200CDCF11F0E1A
:1028300032BF4FF0000E23FA0CF310EB030041EB14
:102840000451B4EB115FD0D0A1EB045101F580111C
:10285000490801EB04515FEA30000ED350F100004B
:1028600038BF12FA0EFE08D1BDE81040C9E7401C7F
:1028700038BF5FEA4202CAD1C3E7BDE810404FEA61
:10288000410313F5001F38BF7047A1F1C04100F0AC
:102890007BBA9EEA445F08D011EA5E0FBDE81040A3
:1028A00004BF01F0004100207047BDE8104070B542
:1028B00000F01CFA64FBBE3E0000E0FF2DE9C041C1
:1028C00030B4DFF8A4C23CEA111418BF3CEA131478
:1028D00000F0ED801CEA111481EA030544EAD57486
:1028E00018BF1CEA131500F0C880A4EB050404F11E
:1028F0007F7404F500344FF0004545EAC12145EAF4
:10290000C32341EA505143EA52534FEAC0204FEAF1
:10291000C222994208BF904200F09D804FEA1365A1
:102920000FF24416765D4FEA134506FB05F7C7F133
:10293000807706FB07F74FEAD737A7FB0368764295
:10294000A7FB06CEC8F5803838BFA8F1010807FB01
:1029500008E6A6FB028C4FF0000EE6FB03CEDCF18E
:10296000000CCEF1004E38BFAEF1010EA6FB0C58A4
:102970004FF00007E6FB0E87A1FB08C6A0FB07CEC1
:1029800016EB0E064FF0000545F10005E1FB07656B
:1029900015F1E04E7EBFA4F580345FEA46066D4136
:1029A00016F1800745F100054FEA172747EA05674A
:1029B0004FEA15254FEA0666A6F1DE46B6F1805FBE
:1029C00020D9384605EBC47124F0010C01EB0C1141
:1029D000BCF1FE6F02D8F0BCBDE8008124425CBFB0
:1029E00001F5801E9EEAC47F02D4F0BCBDE80081E0
:1029F000244200F13980A1F1C041F0BCBDE80041A2
:102A000000F0C2B94FEAD02040EA41504FEAD1214C
:102A10004FEAD22242EA43524FEAD323A7FB02866F
:102A200007FB036605FB02661EEA0E0F58BFA6EB06
:102A30000056B6EB00564FEA520E4EEAC37E18EB34
:102A40000E0E56EB530EBCD518EB02085E417F1CF0
:102A500055F10005B5E74FF480154FF000074FF032
:102A600000064FF00008ACE701F1C04101F0004161
:102A70004FF00000F0BCBDE800810CEA131511EA2C
:102A80000C1F00D00CE013EA0C1F00F026804FF062
:102A9000000081EA030101F00041F0BCBDE80081C3
:102AA000F0BCBDE8004181EA030100F06DB9F0BC63
:102AB000BDE8004170B500F019F900BF097EFC3E89
:102AC00000F007B84FF0000081EA030101F0004177
:102AD000704781EA030100F057B9F0BCBDE800413E
:102AE00022494FF000007047FFFDFBF9F7F5F4F2C3
:102AF000F0EEEDEBE9E8E6E4E3E1E0DEDDDBDAD899
:102B0000D7D5D4D3D1D0CFCDCCCBCAC8C7C6C5C4F6
:102B1000C2C1C0BFBEBDBCBBBAB9B8B7B6B5B4B30D
:102B2000B2B1B0AFAEADACABAAA9A8A8A7A6A5A4F8
:102B3000A3A3A2A1A09F9F9E9D9C9C9B9A999998BC
:102B40009797969595949393929191908F8F8E8E5F
:102B50008D8C8C8B8B8A89898888878786858584EC
:102B600084838382828181800000FF070000F87FD8
:102B7000B0FA80F310FA03F10AD0C3F11D0303F594
:102B800080634FEA03524FEA415002EBD121704774
:102B90004FF000007047000070B5DFF848C11CEA34
:102BA000111E1EBF1CEA13159EEA0C0F95EA0C0FAE
:102BB00000F06F8081EA03044EEAD47EAE4421EA3D
:102BC0004C1123EA4C1341F4801143F48013AEF10D
:102BD0007F7EA1FB024CA0FB0365361955EB0C056B
:102BE000A1FB034C4CF10003A0FB021C16EB0C06EE
:102BF000654153F10003094218BF46F0010613F482
:102C0000007F0BD14FEA03314FEA053041EA1551FD
:102C100040EA165034036FF003020AE04FEAC32182
:102C20004FEAC52041EA555140EA5650F4026FF090
:102C3000020202EB2E4201EB025585EACE710AD068
:102C40005FEA440C18BF24F0004450F1000041F149
:102C5000000120EAD47040F2FE7C624500D270BDD3
:102C6000A84214BF4FF080444FF04044002E08BFEC
:102C70000024BEF1806FA8BFA1F1C041BDE8704043
:102C800080F2828001F1C04101F000414FF000006C
:102C900070470CEA13159EEA0C0F18BF95EA0C0F4B
:102CA00006D081EA030E4FF000000EF0004170BD27
:102CB00000F01CF88900013E00F007B800F009B8E8
:102CC0004FEA430C5FEA5C5C08D081EA030100F044
:102CD0005BB84FEA410C5FEA5C5CF6D102494FF009
:102CE000000070470000FF070000F87F0EF1020EA1
:102CF0002EF0030E5EF8046B364205D4012A43EB36
:102D0000030515F5001F12D8012841EB010C1CF535
:102D1000001F0CD80ED14FEAD17C0CEB4C0C0CF1FF
:102D2000020C15F5001F08BF4CEBD37C04E04FF0FC
:102D3000080C01E04FEAD37C0CEB4C0526FA05F6B3
:102D400006F00706B6F1040C06D20EEB860CBDE8C1
:102D500070404CF0010C6047DFE80CF0090B0202F8
:102D60004FF00041A1F500214FF0000070BD194661
:102D70001046012851EB010418BFD4F5001484BF9C
:102D8000002001F0004170BD0808A0F500114FEAD5
:102D90003101704710B591EA030F48BF83F000433B
:102DA0003FF5ECAC841A71EB030C07D28CF0004CAD
:102DB000121943EB0C03001B61EB0C014FEA115499
:102DC000A4EB135CDFF8A4E11EEA430F18BF9EEAF0
:102DD000445F00F0B48021EA045123EA6E035242BA
:102DE000C3EB6E0338BF5B1EDCF1200E25D322FA45
:102DF0000CFE10EB0E0043FA0CFE41EB0E01CCF181
:102E0000200E03FA0EFE10EB0E00CCF1200E51F155
:102E1000000129D401EB045112FA0EF2BDE8104072
:102E200058BF7047401C1CBFB2F1004F70470028CC
:102E30000CBF491C20F00100704712EB020E43EB5F
:102E4000030218BF4FF0010E4EEA4202ACF1200C13
:102E5000DCF11E0E56D943FA0CFE10EB0E00CCF13D
:102E60001E0E51F1FF31D5D50EF1010E12FA0EFEF4
:102E7000404141EB010101EB445C5FEA5C5C10D92D
:102E800001EB045110EBDE7038BFBEF1004FBDE81E
:102E9000104018BF704700280CBF491C20F00100EB
:102EA000704734D24FEAD42C24F4006411F5001199
:102EB0001BD0B1FA81F20B3AA41AA41ED2F120035E
:102EC000914030FA03F31943904001EBCC7101EBD0
:102ED0000451002CBDE81040A8BF704701F1C0416B
:102EE00001F000414FF000007047B0FA80F310FA93
:102EF00003F102D1BDE810407047E41A173C4805C1
:102F0000C90AE2E701EB0451BDE8104070474910DF
:102F10004FEA300001EB0451BDE8104002E04FF0F1
:102F2000000170474A0008BF0042F8D0B2F5001F08
:102F300028BF704701F000414FF0000070479EEA43
:102F4000445F07D011EA5E0FBDE8104004BF0021C6
:102F500000207047BDE8104070B5FFF7C7FE00BF06
:102F600040DFF63E104683F0004170470000E0FF6E
:102F700043004FEAD30C4FEA3C0C43401FBF4007CD
:102F80000CF1605113F0FE4F70471CF0006F03D13D
:102F90000CF00041002070470CF0004343EA5070F1
:102FA00040EACC0010B500F086F900BF00000092A6
:102FB0004FEA0001FFF7E8BE4FF00041A1F5002104
:102FC0004FF00000704700004FF47F0C1CEAD01255
:102FD0001EBF1CEAD11392EA0C0F93EA0C0F00F00B
:102FE000858090EA010F48BF42F4807240F4000CE3
:102FF00041F400002CF07F4120F07F4000B5A2EBAF
:10300000030281420FF2081CACEB504E9EF800E028
:10301000C0F100004FEA4E0E00FB0EFC38BF490025
:103020004FEA2C1C0CFB0EF34FEACE1E0EEB635E38
:103030004FEA112C0EFB0CFC4FEAC1214FEA1C5346
:1030400000FB031102F5FA024FEA112C0EFB0CFCF7
:103050004FEA01314FEADC4C00FB0C1142EB2242FB
:10306000C14228BF09184CEB03335DF804EB10EBA9
:10307000410143EBC250B2F57C0F38BF704729D5F0
:1030800012F0F00F1CBF00F1C04000F0004070478C
:10309000008182838485868788898B8C8D8E8F9131
:1030A0009293959697999A9C9D9FA0A2A3A5A7A855
:1030B000AAACAEB0B2B3B5B7B9BCBEC0C2C5C7C981
:1030C000CCCED1D4D7D9DCDFE2E6E9ECF0F3F7FAE5
:1030D000FE0000004FEA400C0CF1807CBCF17E4FFA
:1030E00028BF7047B0F1C04000F02BB90CEAD113F3
:1030F00090EA010F48BF42F48072624538BF6345D1
:1031000007D213F47F0F16D080EA010000F00040D0
:10311000704710B500F0CFF8097EFC3E00F005B80E
:1031200080EA010000F00040704780EA010000F0F2
:10313000004000F006B912F47F0F04BF0248704748
:1031400080EA010000F0FDB80000C07F41000B0ED6
:10315000D3F19E0208D950F400034FEA032323FA67
:1031600002F048BF4042704710B500F0A4F800BF1D
:1031700049922480002070476FF0004282EA2000CC
:103180007047000010F0004148BF4042B0FA80F3A1
:1031900010FA03F2C3F19D030BD051EAC35101EBC6
:1031A0001220530638BF704700F1010008BF20F01D
:1031B000010070474FF47F0C1CEAD0121EBF1CEABE
:1031C000D11392EA0C0F93EA0C0F00F0478090EABB
:1031D000010F48BF42F480724FF0004C4CEA0020CF
:1031E0004CEA012102EB0302A0FB0113A2F500024D
:1031F000002918BF43F001035B0028BF4FEA3303E7
:1032000042EB22425FEA132C4CEBC2502EBFBCEBC8
:10321000436FB2F57C0F70474FEA036CBCF1004F6F
:1032200008BF20F00100B2F57C0F38BF70470BD506
:1032300082F0FF0212F5803FC8BF704700F1C04026
:10324000D8BF00F00040704700F5000C5FEA4C0C5E
:1032500048BF7047B0F1C04000F073B80CEAD1131A
:1032600090EA010F48BF42F48072624538BF63455F
:1032700004D280EA010000F00040704710B500F071
:103280001AF800BF8900013E00F007B800F009B845
:103290005FEA410C5FEA1C6C08D080EA010000F094
:1032A00050B85FEA400C5FEA1C6CF6D14FF000406A
:1032B000A0F5800070470EF1020E2EF0030E5EF8AE
:1032C000044B244204D44FEA4102B2F17F4F11D89B
:1032D0004FEA4003B3F17F4F0CD80ED14FEAD07CB8
:1032E0000CEB4C0C0CF1020CB2F17F4F08BF4CEB15
:1032F000D17C04E04FF0080C01E04FEAD17C0CEBEC
:103300004C0324FA03F404F00704B4F1040C06D2CD
:103310000EEB840CBDE810404CF0010C6047DFE878
:103320000CF0070802024FF00040A0F5800010BD2D
:103330000846420018BFD2F1807288BF00F00040FA
:1033400010BDFF2141EAD050C005704701020000C6
:103350000000000000000102030406070809020340
:103360000405060708090A0B0C0D0E0F10100000CB
:103370009033000800000020180000006C010008D5
:10338000A833000818000020080800008801000881
:103390000000003F0000003F01000000100000009E
:0833A0000024F400010000000C
:0400000508000131BD
:00000001FF
